:020000040800F2
:1000000080100020FD020008551600085716000851
:100010005B1600085F160008631600080000000069
:10002000000000000000000000000000671600084B
:1000300069160008000000006B1600086D16000825
:100040001703000817030008170300081703000828
:100050001703000817030008170300081703000818
:100060001703000817030008170300081703000808
:1000700017030008170300081703000817030008F8
:1000800017030008170300081703000817030008E8
:1000900017030008170300081703000817030008D8
:1000A00017030008170300081703000817030008C8
:1000B00017030008170300081703000817030008B8
:1000C00017030008170300081703000817030008A8
:1000D0001703000817030008170300081703000898
:1000E00017030008170300081703000800F002F8C0
:1000F00000F03AF80AA090E8000C82448344AAF188
:100100000107DA4501D100F02FF8AFF2090EBAE885
:100110000F0013F0010F18BFFB1A43F0010318473B
:10012000E43A0000043B0000103A24BF78C878C1CC
:10013000FAD8520724BF30C830C144BF04680C60ED
:10014000704700000023002400250026103A28BF35
:1001500078C1FBD8520728BF30C148BF0B60704739
:100160001FB51FBD10B510BD02F020FF1146FFF7EF
:10017000F7FF01F016FA02F03EFF03B4FFF7F2FFBB
:1001800003BC02F043FF0000EFF30980704780F3E7
:1001900009887047EFF30880704780F3088870473C
:1001A00040BA7047C0BA704710B56FF0040000F055
:1001B00014F92E4800682E49B0FBF1F02D49087063
:1001C0000846007800EB4001C1EBC0104FF6FF710C
:1001D00001EAC0002849088010BD0146254A12786E
:1001E0004A434FF0E0235A6100229A611A4612698D
:1001F00042F001021A6100BF4FF0E022106900F0E6
:1002000001021AB100F48032002AF5D04FF0E0224A
:10021000126922F001024FF0E0231A6100229A6174
:1002200070470146144A12884A434FF0E0235A614E
:1002300000229A611A46126942F001021A6100BF57
:100240004FF0E022106900F001021AB100F4803290
:10025000002AF5D04FF0E022126922F001024FF09F
:10026000E0231A6100229A61704700001800002004
:1002700000127A00000000200200002008B50121D1
:1002800044F2040000F0E4FB4FF40070ADF800000D
:1002900018208DF8030003208DF8020069461548E8
:1002A00000F01AF94FF48060ADF8000004208DF8DA
:1002B000030069460F4800F00FF908BD1FB54FF461
:1002C000165000900020ADF80400ADF80600ADF81F
:1002D0000800ADF80C000C20ADF80A00FFF7CEFFC7
:1002E0006946054800F05BFC0121034800F0E3FC8F
:1002F0001FBD000000080140003801400948804748
:1003000009480047FEE7FEE7FEE7FEE7FEE7FEE7F7
:10031000FEE7FEE7FEE7FEE704480549054A064B0F
:10032000704700004F170008ED000008800A002009
:1003300080100020800C0020800C002031490143F7
:10034000314A1160704770B5002100230F22C47834
:1003500004B32D4C246804F4E064C4F5E064210A7D
:10036000C1F10403CA40447804FA03F184781440CC
:1003700021430901254C0678A155047804F01F0596
:100380000124AC4005786D11AD0005F1E025C5F8FC
:10039000004109E0047804F01F050124AC401C4D25
:1003A0000678761145F8264070BD1A4A0A40024385
:1003B000154B1B1F1A60704739B1134A121D126882
:1003C0000243114B1B1D1A6006E00F4A121D1268F2
:1003D00082430D4B1B1D1A607047042808D14FF053
:1003E000E021096941F004014FF0E022116107E0CA
:1003F0004FF0E021096921F004014FF0E022116182
:10040000704700000000FA050CED00E000E400E099
:1004100080E100E080FFFF1F10B50446CC48844215
:1004200008D10121042000F02DFB0021042000F060
:1004300029FB46E0C748844208D10121082000F08A
:1004400021FB0021082000F01DFB3AE0C248844255
:1004500008D10121102000F015FB0021102000F030
:1004600011FB2EE0BD48844208D10121202000F07C
:1004700009FB0021202000F005FB22E0B84884425F
:1004800008D10121402000F0FDFA0021402000F0B9
:10049000F9FA16E0B348844208D10121802000F027
:1004A000F1FA0021802000F0EDFA0AE0AE48844223
:1004B00007D10121801500F0E5FA0021A01500F018
:1004C000E1FA10BD10B50121084600F0DBFA002169
:1004D000012000F0D7FA10BD2DE9F04102460025B9
:1004E0000026002000230024002791F803C00CF010
:1004F0000F0591F803C00CF0100CBCF1000F03D0F5
:1005000091F802C04CEA050591F800C0BCF1000F5B
:1005100031D0146800202BE04FF0010C0CFA00F3EE
:10052000B1F800C00CEA03069E4220D183004FF0D0
:100530000F0C0CFA03F7BC4305FA03FC4CEA040465
:1005400091F803C0BCF1280F06D14FF0010C0CFA52
:1005500000FCC2F814C00AE091F803C0BCF1480FD7
:1005600005D14FF0010C0CFA00FCC2F810C0401C81
:100570000828D1D31460B1F800C0BCF1FF0F34DDFE
:10058000546800202EE000F1080C4FF0010808FA32
:100590000CF3B1F800C00CEA03069E4221D183009F
:1005A0004FF00F0C0CFA03F7BC4305FA03FC4CEABE
:1005B000040491F803C0BCF1280F05D100F1080C28
:1005C00008FA0CF8C2F8148091F803C0BCF1480F87
:1005D00007D100F1080C4FF0010808FA0CF8C2F836
:1005E0001080401C0828CED35460BDE8F0814FF63F
:1005F000FF710180022181700421C17070470246A1
:10060000002093680B400BB1012000E000207047F0
:100610000146886880B2704702460020D3680B40CC
:100620000BB1012000E0002070470146C86880B28D
:10063000704701617047416170470AB1016100E094
:1006400041617047C16070474FF480320A43826154
:100650008161826182698269704702460020434B52
:1006600018684FF68073184040EA021008433F4B69
:10067000186070473E49C8617047F0B50A460023CC
:1006800000240021002500F00046B6F1004F02D101
:10069000364EF16901E0354E7168C0F3034583B20F
:1006A00000F44016B6F5401F08D121F070612F4EBE
:1006B000766826F070662D4F7E6012E000F480169A
:1006C000B6F5801F06D1032606FA05F4A14341F0D2
:1006D000706106E0460D360103FA06F6B14341F0BB
:1006E000706122B1460D360103FA06F6314300F07F
:1006F0000046B6F1004F02D11C4EF16101E01B4EE5
:100700007160F0BD30B500228B071C0F0F2303FA78
:1007100004F2164B08338C1053F824309343134CD7
:1007200008348D1044F8253023468C1053F82430BB
:100730008C07240F00FA04F423430C4C08348D106A
:1007400044F8253030BD0A49DC31086070470000AC
:1007500000080140000C014000100140001401405D
:1007600000180140001C0140002001400000014031
:1007700000002042DF48006840F00100DD490860C9
:1007800008464068DC490840DA4948600846006885
:10079000DA490840D74908600846006820F48020FC
:1007A00008600846406820F4FE0048604FF41F00CF
:1007B00088607047CF49096821F48031CD4A1160C3
:1007C0001146096821F480211160B0F5803F03D003
:1007D000B0F5802F0ED106E0C649096841F480319A
:1007E000C44A116007E0C349096841F4A021C14A25
:1007F000116000E000BF00BF704710B50146002245
:10080000002300204A11012A02D1BA4C236806E0D5
:10081000022A02D1B74C236A01E0B64C636A01F0A8
:100820001F02012494401C400CB1012000E0002074
:1008300010BD38B5002000900024002500BF3120F5
:10084000FFF7DBFF05460098401C00900098B0F5CC
:10085000A06F01D0002DF2D03120FFF7CEFF08B1FC
:10086000012400E00024204638BD01460020A14AB2
:10087000106820F0F80040EAC10010607047A049FD
:1008800008607047024600209A4B586820F47C109C
:1008900042EA01031843974B58607047984908662D
:1008A000704701460020934A506820F00300084337
:1008B000506070478F48406800F00C007047014658
:1008C00000208C4A506820F0F000084350607047C8
:1008D00001460020874A506820F4E06008435060D9
:1008E000704701460020834A506820F4605040EA77
:1008F000C1005060704729B17E4A527A02437D4B55
:100900005A7204E07B4A527A82437A4B5A72704799
:100910007B49D8310860704701460020754A50680D
:1009200020F440400843506070470021714A203253
:100930001170704A82F82010012802D004280AD1D0
:1009400004E001216B4A2032117005E00521694A5B
:100950002032117000E000BF00BF70476949086095
:1009600070476449096A0143624A116270476549E8
:1009700044390860704730B500210022002400236C
:100980005C4D6D6805F00C0121B1042905D00829E2
:1009900023D105E05C4D056022E05B4D05601FE062
:1009A000544D6D6805F47012524D6D6805F4803435
:1009B000022505EB92421CB9544D554305600BE0EE
:1009C0004C4D6D6805F400351DB1504D5543056023
:1009D00002E04D4D5543056002E04B4D056000BF00
:1009E00000BF444D6D6805F0F0010909484D6B5C8E
:1009F0000568DD4045603F4D6D6805F4E061090A1A
:100A0000434D6B5C4568DD4085603A4D6D6805F48B
:100A10006051C90A3E4D6B5C4568DD40C560354D8F
:100A20006D6805F44041890B3A4D6B5CC568B5FBB8
:100A3000F3F5056130BD29B12E4A526902432D4BB1
:100A40005A6104E02B4A526982432A4B5A6170472B
:100A500029B1284A92690243264B9A6104E0254A4B
:100A600092698243234B9A61704729B1214AD26926
:100A70000243204BDA6104E01E4AD26982431D4BD7
:100A8000DA61704729B11B4AD2680243194BDA6018
:100A900004E0184AD2688243164BDA60704729B1E5
:100AA000144A12690243134B1A6104E0114A126995
:100AB0008243104B1A6170471249403908607047F1
:100AC0000F49C86470470B49C87170470948406AAC
:100AD00040F0807007494862704701460020054A8F
:100AE00092680A400AB1012000E0002070470149E5
:100AF00088727047001002400000FFF8FFFFF6FE0A
:100B0000000042428004424200127A0000093D0087
:100B1000040000201400002010B50446FB48844265
:100B200009D101218803FFF7ADFF00214FF4804078
:100B3000FFF7A8FF32E0F648844209D101214804BA
:100B4000FFF7ADFF00214FF40030FFF7A8FF25E0CD
:100B5000F048844209D101218804FFF7A0FF002159
:100B60004FF48020FFF79BFF18E0EB48844209D147
:100B70000121C804FFF793FF00214FF40020FFF785
:100B80008EFF0BE0E548844208D101210805FFF7FC
:100B900086FF00214FF48010FFF781FF10BD2DE983
:100BA000F04786B005460E460024A24600BFA14687
:100BB0000027B08900B100BF2F462C8A4CF6FF7089
:100BC0000440F08804432C82AC894EF6F3100440B4
:100BD000B08831890843718908430443AC81AC8AE9
:100BE0004FF6FF400440B0890443AC8201A8FFF7F0
:100BF000C2FEC648874202D1DDF810A001E0DDF850
:100C00000CA0A88900F4004040B10AEBCA0000EB38
:100C10000A1031684900B0FBF1F807E00AEBCA009E
:100C200000EB0A1031688900B0FBF1F86420B8FBD2
:100C3000F0F004012009642101FB1089A88900F467
:100C4000004040B1322000EBC900B0FBF1F000F0F1
:100C50000700044308E0322000EB09106421B0FBD8
:100C6000F1F000F00F0004432C8106B0BDE8F087DE
:100C70004FF41651016000218180C18001810C2157
:100C8000418100218181704710B502460020108A01
:100C90004FF2FF0318400B884C8823438C88234372
:100CA000CC8823431843108210BD0021018041806D
:100CB0008180C180704721B1828942F400528281D3
:100CC00004E082894DF6FF731A4082817047F0B5C7
:100CD0000346002400260025002040F66A17B9428A
:100CE00000D100BF1846C1F3421401F01F060127CE
:100CF00007FA06F5012C01D10C3004E0022C01D1D9
:100D0000103000E014301AB107682F43076002E08A
:100D10000768AF430760F0BD1AB1838A0B43838233
:100D200002E0838A8B4383827047028A4FF6F07316
:100D30001A400282028A0A430282704782894FF275
:100D4000FF731A40828182890A438281704721B1F0
:100D5000828942F00202828104E082894FF6FD73AB
:100D60001A4082817047028A4FF6DF731A4002826E
:100D7000028A0A430282704721B1028A42F4804209
:100D8000028204E0028A4BF6FF731A400282704727
:100D9000C1F308028280704701468888C0F30800CA
:100DA0007047818941F0010181817047028BD2B285
:100DB0000283028B42EA012202837047028B02F413
:100DC0007F420283028B0A430283704721B1828AE9
:100DD00042F02002828204E0828A4FF6DF731A40DA
:100DE0008282704721B1828A42F01002828204E03E
:100DF000828A4FF6EF731A408282704721B1828A4D
:100E000042F00802828204E0828A4FF6F7731A40A9
:100E10008282704721B1828942F40042828103E0DC
:100E20008289C2F30E028281704721B1828A42F424
:100E30000062828204E0828A4FF2FF731A4082824B
:100E40007047828A4FF6FB731A408282828A0A4375
:100E50008282704721B1828A42F00202828204E0DB
:100E6000828A4FF6FD731A40828270470246002044
:100E7000B1F5007F00D100BF13880B400BB10120FA
:100E800000E00020704701F40072B2F5007F00D14D
:100E900000BFCA430280704770B502460024002399
:100EA0000025002040F66A16B14200D100BFC1F310
:100EB000421501F01F03012606FA03F3012D02D1AA
:100EC0009689334006E0022D02D1168A334001E0B4
:100ED000968A33400C12012606FA04F41688344030
:100EE00013B10CB1012000E0002070BD10B500224C
:100EF000002340F66A14A14200D100BF0A12012467
:100F00009440A3B2DC43048010BD000000380140CF
:100F10000044004000480040004C004000500040A9
:100F200001460020FE4A106800F0380008431060B7
:100F30007047FB49096821F00801F94A1160114620
:100F40000968014311607047F549096821F01001F3
:100F5000F34A116011460968014311607047F14876
:100F6000EF494860F04848607047EE48EC494860F7
:100F7000ED4848607047EA48006940F08000E84961
:100F800008617047E648006940F08000E449086164
:100F900070470420E249C96801F0010109B101204C
:100FA0000EE0DF49C96801F0040109B1022007E041
:100FB000DB49C96801F0100109B1032000E00420F9
:100FC000704700B502460423FFF7E3FF034603E042
:100FD000FFF7DFFF0346521E012B01D1002AF7D194
:100FE00002B90523184600BD30B5044604254FF468
:100FF0003020FFF7E6FF0546042D17D1C8480069E9
:1010000040F00200C649086108464461006940F0AA
:10101000400008614FF43020FFF7D3FF0546C04879
:10102000006941F6FD710840BD490861284630BDA0
:1010300010B504244FF43020FFF7C3FF0446042CFE
:1010400016D1B748006940F00400B5490861084668
:10105000006940F0400008614FF43020FFF7B1FF15
:101060000446AF48006941F6FB710840AC4908618D
:10107000204610BD00B502460423FFF78AFF034651
:1010800003E0FFF786FF0346521E012B01D1002A21
:10109000F7D102B90523184600BD10B504244FF45A
:1010A0003020FFF7E7FF0446042C16D19C48006966
:1010B00040F004009A4908610846006940F0400089
:1010C00008614FF43020FFF7D5FF044694480069CB
:1010D00041F6FB71084092490861204610BD00208E
:1010E0008F49C96901F0020109B1012000E0002027
:1010F000704730B5A5250424FFF7F1FF00B10025A6
:101100004FF43020FFF75DFF0446042C3AD18548A8
:1011100083498860844888600846006940F0200060
:1011200008610846006940F0400008614FF4302033
:10113000FFF747FF0446042C1BD17948006941F6AC
:10114000DF710840764908610846006940F01000E8
:10115000086176480580E002FFF733FF0446052C5E
:1011600010D06F48006941F6EF7108406C49086182
:1011700008E0052C06D06A48006941F6EF71084086
:1011800067490861204630BD78B506460C460425FF
:1011900000200090E802FFF714FF0546042D24D13B
:1011A0005F48006940F001005D4908613480E80251
:1011B000FFF707FF0546042D10D1B01C0090200C4E
:1011C00000990880E802FFF7FCFE054654480069D4
:1011D00041F6FE7108405249086106E05048006936
:1011E00041F6FE7108404E490861284678BD70B549
:1011F00004460D460426F002FFF7E3FE0646042EE1
:1012000011D14748006940F0010045490861258037
:10121000F002FFF7D6FE06464148006941F6FE712E
:1012200008403F490861304670BD70B505460E461E
:101230000424E002FFF7C5FE0446042C17D1394808
:1012400037498860384888600846006940F01000D7
:1012500008612E80E002FFF7B4FE0446052C06D09C
:101260002F48006941F6EF7108402D49086120467A
:1012700070BD2DE9F04304464FF6FF763746B04681
:10128000B1460425E443E6B2C4F30727C4F3074894
:101290004FEA1469E802FFF794FE0546042D49D190
:1012A00020481F498860204888600846006940F04F
:1012B00010000861FF2E06D01C4808300680E802A6
:1012C000FFF77FFE0546042D08D1FF2F06D01748F3
:1012D0000A300780E802FFF774FE0546042D0AD1A4
:1012E000B8F1FF0F07D011480C30A0F80080E802D9
:1012F000FFF767FE0546042D0AD1B9F1FF0F07D0AD
:101300000A480E30A0F80090E802FFF75AFE0546A2
:10131000052D0FD00248006941F6EF71084007E043
:101320000020024023016745AB89EFCD00F8FF1F85
:10133000664908612846BDE8F08330B505460424B7
:101340004FF43020FFF73DFE0446042C41D16048A5
:101350005E4988605F4888600846006940F0200068
:1013600008610846006940F0400008614FF43020F1
:10137000FFF727FE0446042C22D15448006941F6A9
:10138000DF710840514908610846006940F01000CB
:1013900008611DB100205049088002E0A5204E4997
:1013A00008804FF43020FFF70CFE0446052C10D0C7
:1013B0004648006941F6EF7108404449086108E079
:1013C000052C06D04148006941F6DF7108403F49CD
:1013D0000861204630BDF0B505460E461746042488
:1013E0003B483A4988603B488860E002FFF7E9FDE6
:1013F0000446042C19D13548006940F010003349E7
:10140000086147F0F800304328433349891C0880BD
:10141000E002FFF7D6FD0446052C06D02B480069F4
:1014200041F6EF710840294908612046F0BD274880
:10143000C069800870472548006A7047002023492A
:10144000096801F0200109B1012000E00020704787
:1014500029B11E4A126902431C4B1A6104E01B4A5F
:1014600012698243194B1A61704701460020012915
:1014700008D1164AD26902F001020AB1012008E03F
:10148000002006E0114AD2680A400AB1012000E0BB
:10149000002070470D49C860704704200B49C96897
:1014A00001F0010109B101200EE00849C96801F00D
:1014B000040109B1022007E00449C96801F01001E4
:1014C00009B1032000E00420704700000020024022
:1014D00023016745AB89EFCD00F8FF1F10B500244D
:1014E0000C2339A20021084600F036FB0C233AA257
:1014F0001946002000F030FB0C233AA218210020EE
:1015000000F02AFB0C233BA22421002000F024FB46
:1015100000F0DBF94FF47A70FEF783FE4FF47A7037
:10152000FEF77FFE4FF47A70FEF77BFE012000F09D
:101530007CFC0446FFF713FD13E0324800F082FD07
:10154000314800F07FFD314800F07CFD2E4800F06E
:1015500079FD2C4800F076FD2DA000F073FD00F021
:101560005AFE002CE9D12C4800682C490840B0F103
:10157000005F12D12AA000F065FD274840682E497F
:101580000860084600682D49086023490868FEF78E
:1015900004FE2A480068804702E029A000F052FDBE
:1015A00010BD4FF4A060FEF7C9FEFEF7FDFDFEF78B
:1015B00085FE00F029FC00F083FB00F0C5F9FFF781
:1015C0008DFF00BFFEE700007570646174652070D8
:1015D000726F6772616D00007072657373205334AF
:1015E000000000004966206E6F742C69676E6F7290
:1015F000650000006E6F7420706F776572206F66F3
:1016000066000000183B0008CC3A0008803A000849
:101610000D0A0D0A00000000005000080000FE2F17
:101620004578656375746520757365722050726FB7
:101630006772616D0D0A0A00F4000020F0000020BE
:101640006E6F20757365722050726F6772616D0DD9
:101650000A0A0000704700BFFEE700BFFEE700BFB8
:10166000FEE700BFFEE77047704770477047000015
:101670000CB50020019000906C48006840F4803068
:101680006A49086000BF6948006800F400300090B3
:101690000198401C0190009818B90198B0F5A06F0E
:1016A000F1D16248006800F4003010B101200090D0
:1016B00001E0002000900098012843D15C480068B8
:1016C00040F010005A4908600846006820F0030006
:1016D00008600846006840F002000860534840680F
:1016E000524948600846406848600846406840F4EF
:1016F000806048600846406820F47C1048600846D6
:10170000406840F4E81048600846006840F0807087
:10171000086000BF4548006800F000700028F9D05C
:101720004248406820F0030040494860084640684D
:1017300040F00200486000BF3C48406800F00C00E8
:101740000828F9D10CBD10B5FFF792FF10BD10B5F8
:101750003648006840F00100344908600846406897
:101760003449084031494860084600683249084019
:101770002E4908600846006820F48020086008466A
:10178000406820F4FE0048604FF41F008860FFF7B7
:10179000DAFF4FF000602949086010BD10B5002144
:1017A00000200022214B5B6803F00C0121B10429C9
:1017B00006D0082928D107E0214B224C236027E0DE
:1017C0001F4B204C236023E0184B5B6803F4701020
:1017D000164B5B6803F48032022303EB904022B97E
:1017E000194B4343174C23600DE0104B5B6803F427
:1017F000003323B1144B4343124C236003E0104BDE
:101800004343104C236003E00D4B0E4C236000BF9C
:1018100000BF064B5B68C3F303130C4CE15C094B40
:101820001B68CB40074C236010BD00000010024035
:10183000002002400000FFF8FFFFF6FE08ED00E088
:1018400000127A001800002000093D001C00002052
:1018500070B504460E462EB14FF48051FE48FEF797
:10186000E8FE04E04FF48051FB48FEF7E4FE02215D
:10187000FA48FEF7E0FE00251BE04FF40041F74870
:10188000FEF7D9FE04F0800028B14FF40051F34870
:10189000FEF7CFFE04E04FF40051F048FEF7CBFE18
:1018A0004FF40041ED48FEF7C4FE6006040E681CCC
:1018B000C5B2082DE1DB0221E848FEF7BAFE4FF47D
:1018C0008051E548FEF7B5FE70BD70B500241CE000
:1018D00004F1B001C8B20021FFF7BAFF00210846A9
:1018E000FFF7B6FF00211020FFF7B2FF002508E048
:1018F000DB4901EBC501085D0121FFF7A9FF681C69
:10190000C5B2802DF4DB601CC4B2082CE0DB70BDD6
:1019100010B500218D20FFF79BFF00211420FFF759
:1019200097FF0021AF20FFF793FF10BD10B50021F6
:101930008D20FFF78DFF00211020FFF789FF002188
:10194000AE20FFF785FF10BD70B500240CE0002528
:1019500006E00020C24901EBC5010855681CC5B26C
:10196000802DF6DB601CC4B2082CF0DBFFF7ADFF66
:1019700070BDF0B5144600267F2801DC3F2900DD4C
:10198000F0BD0B46CF1701EB5777FF10C7F10707E4
:10199000FAB2CF1701EB5777FF10A1EBC707FDB2E3
:1019A000C5F107070123BB40DEB24CB1AC4B03EBE2
:1019B000C0039B5C3343AA4F07EBC007BB5408E04E
:1019C000A74B03EBC0039B5CB343A54F07EBC007DA
:1019D000BB5400BFD4E72DE9F04706460F469046BA
:1019E0009946DDF820A034460CE03D4606E052461C
:1019F00029462046FFF7BDFF681CC5B24D45F6DD00
:101A0000601CC4B24445F0DDFFF75FFFBDE8F0871E
:101A10002DE9F04F80460C4615461E46A346A5F11B
:101A20002000C5B200273EE00C2E07D105EB450093
:101A30008C4901EB800010F8079004E08A4800EB25
:101A4000051010F807904FF0000A26E009F080001A
:101A500028B121464046099AFFF78BFF09E0099813
:101A600008B9012000E00020024621464046FFF769
:101A700080FF4FEA49604FEA1069601CC4B2A4EBD2
:101A80000B00B04205D15C4608F1010000F0FF08F0
:101A900006E00AF1010000F0FF0ABAF1080FD5DBF9
:101AA00000BF781CC7B2B742BEDBBDE8F08F10B5EF
:101AB0000246012000E050430B00A1F10104E1B215
:101AC000F9D110BD2DE9FF4F81B0074691461E4662
:101AD0000E9D4FF0000A002439E0301B401EC1B2B9
:101AE0000A20FFF7E4FFB9FBF0F00A21B0FBF1F2A6
:101AF00001FB1208BAF1000F16D1701EA04213DDCF
:101B0000B8F1000F0ED10120AB4605EBDB71491097
:101B100001FB04710090C8B22B4620220299FFF706
:101B200077FF12E04FF0010A0120AB4605EBDB71B5
:101B3000491001FB04710090C8B208F13001CAB22B
:101B40002B460299FFF764FF00BF601CC4B2B44289
:101B5000C3DB05B0BDE8F08FF8B505460E46144668
:101B60001F4618E07A2D03DD002506F11000C6B2ED
:101B70003A2E04DD002005460646FFF7E5FE01206B
:101B8000009022783B4631462846FFF741FF05F199
:101B90000800C5B2641C20780028E3D1F8BD70B5F8
:101BA00004460D4605F1B001C8B20021FFF750FE12
:101BB000102141EA14100021FFF74AFE04F00F0142
:101BC00041F001000021FFF743FE70BD2DE9F04117
:101BD00080460E461546002731464046FFF7DFFF98
:101BE00000240AE0214A02EB8511085D0121FFF77C
:101BF0002FFE781CC7B2601CC4B2102CF2DB701C24
:101C0000C1B24046FFF7CBFF00240CE06900491C3D
:101C1000164A02EB4111085D0121FFF719FE781CFD
:101C2000C7B2601CC4B2102CF0DBBDE8F0812DE916
:101C3000F05F06460F4690461C46DDF828A04FF0A0
:101C4000000BE11704EB5171C910A4EBC101A1B95C
:101C50002046E1170CE0000000080140000C0140A4
:101C60001C0100201A3000088E3400082C000020CF
:101C700004EB5171C1F3C70506E02046E11704EB00
:101C80005171C910491CCDB23D4615E02946304678
:101C9000FFF785FFB1460BE059460BF1010B1AF82F
:101CA00001000121FFF7D4FD09F1010000F0FF0957
:101CB000C145F1DB681CC5B2A542E7DBBDE8F09F7A
:101CC00008B501210C20FEF7C3FE4FF48050ADF89B
:101CD000000010208DF8030003208DF802006946F3
:101CE0004748FEF7F9FB4FF480514548FEF7A1FC49
:101CF0004BF20200ADF8000010208DF80300032025
:101D00008DF8020069463F48FEF7E6FB4BF2020100
:101D10003C48FEF78EFC4FF480513A48FEF78BFCAE
:101D20006420FEF77EFA4FF480513648FEF781FCBE
:101D30000021AE20FFF78CFD0021D520FFF788FDA4
:101D400000215020FFF784FD0021A820FFF780FD2F
:101D500000213F20FFF77CFD0021D320FFF778FD15
:101D600000210846FFF774FD00214020FFF770FDB9
:101D700000218D20FFF76CFD00211420FFF768FD86
:101D800000212020FFF764FD00210220FFF760FD05
:101D90000021A120FFF75CFD0021C020FFF758FDC6
:101DA0000021DA20FFF754FD00211220FFF750FD3B
:101DB00000218120FFF74CFD0021EF20FFF748FDB7
:101DC0000021D920FFF744FD0021F120FFF740FD5D
:101DD0000021DB20FFF73CFD00213020FFF738FD1C
:101DE0000021A420FFF734FD0021A620FFF730FDDD
:101DF0000021AF20FFF72CFDFFF7A6FD08BD000076
:101E000000080140000C014008B501210820FEF740
:101E10001FFE4FF44870ADF8000048208DF8030015
:101E200069462948FEF758FB08BD10B5044614B1B1
:101E30000120264908702548007868B34FF40071E6
:101E40002148FEF7DCFB50B14FF480711E48FEF7CD
:101E5000D6FB20B120211C48FEF7D1FBE0B90A20B7
:101E6000FEF7DFF90020194908704FF40071164899
:101E7000FEF7C5FB08B9012010BD4FF48071124870
:101E8000FEF7BDFB08B90220F6E720210E48FEF759
:101E9000B6FBB0B90320EFE74FF400710A48FEF734
:101EA000AEFB01280DD101020748FEF7A8FB01286F
:101EB00007D120210448FEF7A2FB012801D10349E4
:101EC00008700020D8E70000000C0140EC00002062
:101ED000F0B5E84A00250024002320E0B1FBF2F62B
:101EE000303606F0FF0C2E466D1C00F806C0B1FB24
:101EF000F2F602FB16110A26B2FBF6F26E1E865DA2
:101F0000302E01D1012600E000260CB9012700E0A7
:101F100000273E400EB1002500E0641C5B1C0A2B2C
:101F2000DCD3F0BD70B502460C460021002500232D
:101F30001078302843D15078782802D0507858282B
:101F40003DD1907808B9002070BD022130E0505C8E
:101F500010B9236001252DE0505C412802DB505C64
:101F600046280BDD505C612802DB505C662805DDED
:101F7000505C302819DB505C392816DC505C302866
:101F800005DB505C392802DC505C30380AE0505CDC
:101F9000412805DB505C462802DC505C373801E004
:101FA000505C573800EB031301E0002502E0491CA8
:101FB0000B29CCD300BF0B2934D3002532E00021FC
:101FC0002AE0505C10B92360012527E0505C6B28A3
:101FD00002D0505C4B2804D119B19B02236001252B
:101FE0001CE0505C6D2802D0505C4D2804D119B122
:101FF0001B052360012511E0505C302809DB505C93
:10200000392806DC505C303803EB830600EB4603CE
:1020100001E0002502E0491C0B29D2D300BF0B29A7
:1020200000D3002528468FE710B504462146924884
:10203000FEF7AEFE00BF80218F48FEF717FF002895
:10204000F9D010BD10B5044603E02078FFF7ECFF8F
:10205000641C20780028F8D110BD10B5044620215A
:102060008548FEF703FF28B18348001D00882070D3
:10207000012010BD0020FCE708B50020009004E01E
:102080006846FFF7EAFF00B100E0F9E700BF9DF8FE
:10209000000008BD70B506460025002400BFFFF70C
:1020A000EBFF04460D2C00D11AE0082C05D11DB120
:1020B00072A0FFF7C7FF6D1E11E0802D04D370A042
:1020C000FFF7C0FF00250AE0202C07DB7E2C05DC93
:1020D00028466D1C34542046FFF7A6FF00BFDEE7FC
:1020E00000BF6FA0FFF7AEFF0020705570BD1FB599
:1020F000044623E06846FFF7CDFF9DF8000000B9D5
:102100001CE09DF80000612803D09DF800004128E4
:1021100008D19DF8010028B962A0FFF793FF0020C5
:1021200004B010BD21466846FFF7FCFE18B962A056
:10213000FFF788FF01E00120F2E700BFDAE701B511
:1021400000200099C1F309021AB1012202EB91208B
:1021500000E0880A08BD2DE9F0470024002501268B
:1021600002274FF004084FF00109FFF764F9054614
:1021700057480068284056490968884246D0FFF70A
:1021800056F9044652480068284351490860FEF752
:10219000B0FF81464E480068401C28B14C4800689A
:1021A000C043FFF766F8814604F00700072811D006
:1021B00004F0010000B9002604F0020000B9002775
:1021C00004F0040008B94FF0000842463946304692
:1021D000FFF701F9B9F1040F14D13EA0FFF732FF68
:1021E0004448FFF72FFF00BF4348006800F4E06059
:1021F00042490843001D40490860BFF3408F00BFBB
:1022000000BFFEE73EA0FFF71DFF02E047A0FFF77B
:1022100019FFBDE8F08700244D480068A0F1006078
:10222000000B4C4908600846017801208840401E98
:10223000C04327490860FFF7FEF8254909680840B0
:1022400023490968884203D001204349086002E01D
:102250000020414908602BE140A0FFF7F3FE4FA0AA
:10226000FFF7F0FE5DA0FFF7EDFE3B48006800B110
:10227000D4E0D6E000CA9A3B0038014008200800AC
:10228000436F6D6D616E6420737472696E67207345
:10229000697A65206F766572666C6F770D0A00004B
:1022A0000A0D0000557365722043616E63656C6CA6
:1022B0006564200D0A0000004572726F722C20497F
:1022C0006E70757420616761696E3A200D0A0000B6
:1022D000FC00002057726974652050726F7465634A
:1022E00074696F6E2064697361626C65642E2E2E52
:1022F0000D0A0000643B00080CED00E00000FA0548
:102300004572726F723A20466C6173682077726909
:10231000746520756E70726F74656374696F6E207A
:102320006661696C65642E2E2E0D0A00466C617321
:1023300068206D656D6F7279206E6F742077726999
:1023400074652070726F7465637465640D0A0000B3
:1023500004010020F8000020000100200D0A3D3D8E
:102360003D3D3D3D3D3D3D3D3D3D3D3D3D3D3D3D9D
:10237000204D61696E204D656E75203D3D3D3D3DB2
:102380003D3D3D3D3D3D3D3D3D3D3D3D3D3D3D3D7D
:102390003D3D3D3D3D3D3D0D0A0A00002020496682
:1023A00020796F75206E65656420746F2075706488
:1023B00061746520746865207465737420636F644C
:1023C00065202D2D2D2D2D2D2D2D2D2D2D2D2D2D12
:1023D0002D2D2D2D2D310D0A0A00000020204966DB
:1023E00020796F75206E65656420746F2075706448
:1023F000617465207468652066756E6374696F6EBC
:1024000020636F6465202D2D2D2D2D2D2D2D2D2D2F
:102410002D2D2D2D2D320D0A0A00000025A0FFF7CD
:1024200011FE34A0FFF70EFEFFF726FE0446312C06
:1024300014D100F0D1F83FA0FFF704FE43484068F4
:102440004349086008460068424908603F490868F7
:10245000FDF7A3FE3F480068804729E0322C14D1E5
:1024600000F0BAF833A0FFF7EDFD3848406838496E
:102470000860084600683749086034490868FDF775
:102480008CFE34480068804712E0342C06D1324874
:102490000068012802D1FFF75EFE09E02E480068BF
:1024A00018B92EA0FFF7CEFD02E03BA0FFF7CAFD52
:1024B000D2E60000202044697361626C6520746874
:1024C000652077726974652070726F7465637469D2
:1024D0006F6E202D2D2D2D2D2D2D2D2D2D2D2D2DB6
:1024E0002D2D2D2D2D2D2D2D2D2D2D2D20340D0A65
:1024F0000A0000003D3D3D3D3D3D3D3D3D3D3D3DF6
:102500003D3D3D3D3D3D3D3D3D3D3D3D3D3D3D3DFB
:102510003D3D3D3D3D3D3D3D3D3D3D3D3D3D3D3DEB
:102520003D3D3D3D3D3D3D3D3D3D3D3D3D3D0D0A3E
:102530000A000000457865637574652075736572DF
:102540002050726F6772616D0D0A0A00005000081A
:10255000F4000020F000002000010020496E7661A8
:102560006C6964204E756D6265722021203D3D3E90
:1025700020546865206E756D6265722073686F7592
:102580006C642062652065697468657220312C2056
:1025900032206F7220330D00496E76616C696420C1
:1025A0004E756D6265722021203D3D3E2054686568
:1025B000206E756D6265722073686F756C64206241
:1025C000652065697468657220312C20322C2033B7
:1025D000206F7220340D00003EB51DA207CA8DE8A1
:1025E000070000241DA0FFF72DFD2B4800F032F955
:1025F0000446002C16DD2948FFF724FD2848FFF784
:1026000021FD21466846FFF763FC26A0FFF71AFD6F
:102610006846FFF717FD26A0FFF714FD27A0FFF778
:1026200011FD14E0601C18B92AA0FFF70BFD0EE0A5
:10263000A01C18B937A0FFF705FD08E0E01C18B989
:102640003BA0FFF7FFFC02E03FA0FFF7FBFC3EBD15
:1026500020202020202020202020000057616974A5
:10266000696E6720666F72207468652066696C65A4
:1026700020746F2062652073656E74202E2E2E20CC
:102680002870726573732027612720746F20616240
:102690006F7274290A0D00001C050020B03B000871
:1026A0001C0900200A0D2053697A653A20000000B9
:1026B0002042797465730D0A000000002D2D2D2D28
:1026C0002D2D2D2D2D2D2D2D2D2D2D2D2D2D2D0A5D
:1026D000000000000A0A0D54686520696D61676595
:1026E0002073697A6520697320686967686572205C
:1026F0007468616E2074686520616C6C6F776564C6
:10270000207370616365206D656D6F7279210A0DAC
:10271000000000000A0A0D566572696669636174FB
:10272000696F6E206661696C6564210A0D000000A6
:102730000D0A0A41626F72746564206279207573B4
:1027400065722E0A0D0000000A0D4661696C656411
:1027500020746F20726563656976652074686520F2
:1027600066696C65210A0D0070B505460C4606E0E9
:102770002846FFF772FC012801D1002070BD20001F
:10278000A4F10104F4D1401EF8E710B50446204638
:10279000FFF74AFC002010BD2DE9F84304460D4622
:1027A00090460020286041466846FFF7DDFF18B1DB
:1027B0004FF0FF30BDE8F8839DF80000182813D0D3
:1027C00006DC012809D0022809D0042820D109E01C
:1027D00041281AD061281BD118E080271BE04FF454
:1027E000806718E00020E5E741466846FFF7BCFF38
:1027F00040B99DF80000182804D14FF0FF30286040
:102800000020D7E74FF0FF30D4E700BF0120D1E729
:102810004FF0FF30CEE700BF9DF80000207001268A
:1028200009E0A0194146FFF79FFF10B14FF0FF30BC
:10283000C0E7701C86B2781D8642F2DB6178A07812
:1028400080F0FF00814202D04FF0FF30B2E72F60EE
:102850000020AFE72DE9F04FADF22C4D06460020E9
:102860000190F748F74908604FF0000B4FF0000A5D
:102870000020029000BF002700200390B04600BF58
:102880004FF4801204A909A8FFF786FF10B10128B0
:102890007ED1D0E04FF0000A0498B0F1FF3F01D0A4
:1028A00070B907E00620FFF770FF00200DF22C4DF5
:1028B000BDE8F08F0620FFF768FF01200390B8E025
:1028C0009DF82500F9B2884203D01520FFF75DFF7F
:1028D000AFE0002F6ED19DF82700002863D00025BF
:1028E0000DF1270405E014F8012B28466D1CD6498C
:1028F0000A54207808B1FF2DF5DD002228466D1C12
:10290000D1490A540025641C05E014F8012B28461F
:102910006D1C05A90A542078202801D0102DF4DB65
:10292000002228466D1C05A90A5401A905A8FFF735
:10293000F9FA0198B0F5003F08DB1820FFF725FFF2
:102940001820FFF722FF4FF0FF30AFE70198FFF7A5
:10295000F6FBBE4908600020BD49086010E0B94997
:102960000968BC4A1288BA4B1B6802FB0310FEF7C9
:102970003BFBB9490870B6480068401CB449086080
:10298000B3480068B1490968884205D2B24800E0FE
:102990005AE000780428E2D00620FFF7F6FE432034
:1029A000FFF7F3FE42E00620FFF7EFFE0120039061
:1029B00083463EE00DF127014046049A00F07CFA80
:1029C000A64806604FF0000923E0A44800680168AB
:1029D0009C480068FEF7D8FB9A48006800689F4949
:1029E00009680968884208D01820FFF7CEFE182031
:1029F000FFF7CBFE6FF0010058E792480068001D1A
:102A00009049086095480068001D9449086009F1E4
:102A100004090498814506DA8949019808448949DE
:102A200009688842D1D80620FFF7AFFE7F1C01203D
:102A3000029000BF1CE01820FFF7A7FE1820FFF748
:102A4000A4FE6FF0020031E70298002801DD0AF1D0
:102A5000010ABAF1050F07DD1820FFF796FE1820CE
:102A6000FFF793FE002021E74320FFF78EFE00BF13
:102A700000BF039800283FF403AF00BF00BFBBF1C5
:102A8000000F3FF4F8AE00BF00BF01980EE701460B
:102A9000002070472DE9FE4305460F469046012071
:102AA000287000206870FF20A870002404E0395DC1
:102AB000E01C2954601C84B2385D08B1FF2CF6DD9F
:102AC0000021E01C29546846D8F80010FFF700FAEE
:102AD0000026201D84B208E03046711C8EB21DF81D
:102AE00000202046611C8CB22A541DF806000028E4
:102AF000F2D1264603E00020A855701C86B2832E32
:102B0000F9DBBDE8FE83F0B5074614461D46B5F572
:102B1000806F02D34FF4806C01E04FF0800C63466D
:102B20009D4201D2AC4600E09C461FFA8CF2B3F500
:102B3000806F04D14FF0020C81F800C003E04FF029
:102B4000010C81F800C04C706FEA040C81F802C0DF
:102B50003E46032007E016F801CB01F800C000F163
:102B6000010C1FFA8CF002F1030C6045F3DB9A4272
:102B70000EDC1FFA8CF007E04FF01A0C01F800C0D1
:102B800000F1010C1FFA8CF003F1030C6045F3DB3C
:102B9000F0BD10B503460C46194644F4807200BFE0
:102BA0004900520002F4807000B1491C01F48030E9
:102BB00010B141F22100414002F480300028EFD0F2
:102BC00088B210BDF0B505460E460024AF1905E0E9
:102BD00015F8011BA0B2FFF7DCFF0446BD42F7D396
:102BE000A0B20021FFF7D5FF044620460021FFF7E1
:102BF000D0FF04462046F0BD30B5024600235418ED
:102C000002E012F8015B2B44A242FAD3D8B230BDE5
:102C100070B505460E46002404E0285DFFF7B5FDBB
:102C2000601C84B2B442F8DB70BD2DE9F74FADF5FE
:102C3000A36D00200190814600248046002616E006
:102C400000500008040100201C0900201001002091
:102C50000C010020080100201401002018010020B0
:102C6000DDF81C05805D04A98855701CC6B2FF2ED6
:102C7000F6DB012001900DF5A46204A944A8FFF73A
:102C800009FF00BF832144A8FFF7C2FF019860B18C
:102C900080210DF21310FFF795FF05462812FFF76C
:102CA00074FDE8B2FFF771FD08E080210DF213100A
:102CB000FFF7A2FF03900398FFF767FD42F2107140
:102CC00002A8FFF751FD30B99DF80800062803D18E
:102CD0004FF0010800E0641CB8F1000F01D10A2C8C
:102CE000D0D30A2C04D3E0B20DF2245DBDE8F08FFE
:102CF000DDF818A5DDF820954FF0010B59E00BF039
:102D0000FF024B4644A95046FFF7FDFE4FF0000876
:102D100000208DF80800002400BFB9F5806F02D3B1
:102D20004FF4806700E08027F81C81B244A8FFF7C9
:102D30006FFF019860B139460DF21310FFF742FFA3
:102D400005462812FFF721FDE8B2FFF71EFD08E057
:102D500039460DF21310FFF74FFF03900398FFF76A
:102D600014FD544902A8FFF7FFFCC0B99DF8080004
:102D7000062814D14FF00108B9450CD9BA44A9EB83
:102D80000709BBF16C0F01D1FF20ADE70BF101008A
:102D90001FFA80FB04E0BA444FF0000900E0641C15
:102DA000B8F1000F01D10A2CB7D30A2C01D3E0B23D
:102DB0009AE7B9F1000FA2D14FF0000800208DF87A
:102DC0000800002400BF0420FFF7DFFC42F210716E
:102DD00002A8FFF7C9FC30B99DF80800062802D107
:102DE0004FF0010800E0641CB8F1000F01D10A2C7B
:102DF000E9D30A2C01D3E0B276E74FF000080020B7
:102E00008DF80800002401208DF8100100208DF8B5
:102E10001101FF208DF81201032604E0002044A9CF
:102E20008855701CC6B2832EF8DB00BF832144A8EE
:102E3000FFF7EEFE80210DF21310FFF7C3FE0546EB
:102E40002812FFF7A2FCE8B2FFF79FFC42F21071D4
:102E500002A8FFF789FC30B99DF80800062803D1C5
:102E60004FF0010800E0641CB8F1000F01D10A2CFA
:102E7000DCD30A2C01D3E0B236E700BF0420FFF711
:102E800084FC42F2107102A8FFF76EFC30B99DF885
:102E90000800062802D14FF0010800E0641CB8F1D8
:102EA000000F01D10A2CE9D30A2C01D3E0B21BE7B1
:102EB000002019E7A0860100032A40F2308010F0BC
:102EC000030C00F0158011F8013BBCF1020F6244C5
:102ED00098BF11F801CB00F8013B38BF11F8013B56
:102EE000A2F1040298BF00F801CB38BF00F8013B03
:102EF00011F0030300F02880083AC0F0088051F870
:102F0000043B083A51F804CBA0E80810F5E7121D7D
:102F10005CBF51F8043B40F8043BAFF30080D2079C
:102F200024BF11F8013B11F801CB48BF11F8012B68
:102F300024BF00F8013B00F801CB48BF00F8012B8B
:102F4000704770477047704710B5203AC0F00B804B
:102F5000B1E81850203AA0E81850B1E81850A0E89D
:102F60001850BFF4F5AF5FEA027C24BFB1E81850F7
:102F7000A0E8185044BF18C918C0BDE810405FEA67
:102F8000827C24BF51F8043B40F8043B08BF7047E3
:102F9000D20728BF31F8023B48BF11F8012B28BFE8
:102FA00020F8023B48BF00F8012B7047754600F03F
:102FB00029F8AE4605006946534620F007008546CD
:102FC00018B020B5FDF7A8F9BDE820404FF0000685
:102FD0004FF000074FF000084FF0000B21F0070101
:102FE000AC46ACE8C009ACE8C009ACE8C009ACE844
:102FF000C0098D4670470446AFF300802046FDF7B8
:10300000BCF80000004870471C0A00200149182045
:10301000ABBEFEE726000200704700000000000083
:10302000000000000000000000003F400000000021
:1030300000000000300040003000400000000900A7
:103040000BC03D000BC03D00090018C024407FE0CC
:10305000224031800000180024C01B000D80324047
:10306000018003801C4027401C8007400040100066
:1030700060000000000000000000000000000000F0
:103080001F80204040200000402020401F80000082
:103090000000090006001F8006000900000004006F
:1030A00004003F80040004000000001000600000E5
:1030B00000000000000004000400040004000400FC
:1030C00000000000004000000000000000000020A0
:1030D00001C006003800400000001F802040204052
:1030E00020401F800000000010403FC00040000052
:1030F000000018C0214022402440184000001080E9
:103100002040244024401B80000002000D001100DC
:103110003FC0014000003C802440244024402380E4
:1031200000001F8024402440344003800000300011
:10313000200027C03800200000001B8024402440CD
:1031400024401B8000001C0022C0224022401F801F
:103150000000000000000840000000000000000027
:1031600000000460000000000000000004000A00ED
:1031700011002080404009000900090009000900F1
:10318000000000004040208011000A0004001800E8
:10319000200023402400180000001F80204027400A
:1031A00029401F400000004007C039000F0001C047
:1031B000004020403FC0244024401B8000001F806E
:1031C0002040204020403080000020403FC0204070
:1031D00020401F80000020403FC024402E4030C0CF
:1031E000000020403FC024402E00300000000F00AF
:1031F0001080204022403380020020403FC0040065
:1032000004003FC02040204020403FC020402040DC
:1032100000000060202020203FC02000200020402F
:103220003FC024400B0030C0204020403FC0204021
:103230000040004000C03FC03C0003C03C003FC015
:10324000000020403FC00C4023003FC020001F80F2
:103250002040204020401F80000020403FC02440EC
:103260002400180000001F802140214020E01FA002
:10327000000020403FC02440260019C0004018C074
:1032800024402440224031800000300020403FC0D4
:1032900020403000000020003F80004000403F8080
:1032A000200020003E0001C0070038002000380048
:1032B00007C03C0007C038000000204039C00600AD
:1032C00039C0204000002000384007C038402000AE
:1032D0000000304021C02640384020C000000000DF
:1032E00000007FE0402040200000000070000C0043
:1032F0000380004000000000402040207FE00000EC
:10330000000000002000400020000000000000102D
:10331000001000100010001000100000000040001D
:10332000000000000000000002800540054003C0CE
:10333000004020003FC00440044003800000000023
:103340000380044004400640000000000380044065
:1033500024403FC00040000003800540054003407A
:103360000000000004401FC0244024402000000052
:1033700002E0055005500650042020403FC00440A4
:10338000040003C000400000044027C000400000CB
:10339000000000100010041027E000000000204092
:1033A0003FC00140070004C00440204020403FC00F
:1033B00000400040000007C0040007C0040003C034
:1033C0000000044007C00440040003C000400000A7
:1033D00003800440044003800000041007F0045000
:1033E000044003800000000003800440045007F004
:1033F0000010044007C00240040004000000000068
:1034000006400540054004C00000000004001F8085
:10341000044000400000040007800040044007C052
:1034200000400400070004C00180060004000600FC
:1034300001C0070001C006000000044006C00100F2
:1034400006C0044000000410071004E001800600DC
:1034500004000000044005C00640044000000000D5
:10346000000004007BE0402000000000000000009D
:10347000FFF000000000000040207BE0040000009E
:1034800000004000800040002000200040000000BC
:10349000000000000000000000000000000000002C
:1034A000000000001FCC000C000000000000000025
:1034B00008003000600008003000600000000220BA
:1034C00003FC1E20022003FC1E200220000000003E
:1034D0000E1811043FFF10840C78000000000F004C
:1034E00010840F3800C00778188400780000007836
:1034F0000F8410C411240E9800E400840008080012
:1035000068007000000000000000000000000000E3
:103510000000000007E0181820044002000000002E
:1035200040022004181807E00000000000000240DC
:10353000024001800FF00180024002400000008044
:10354000008000800FF800800080008000000001F3
:10355000000D000E00000000000000000000000050
:1035600000800080008000800080008000800000DB
:10357000000C000C00000000000000000000000033
:1035800000060018006001800600180020000000FE
:1035900007F0080810041004080807F000000000F5
:1035A000080408041FFC00040004000000000000E0
:1035B0000E0C10141024104411840E0C0000000096
:1035C0000C1810041104110412880C700000000083
:1035D00000E00320042408241FFC00240000000055
:1035E0001F9810841104110410881070000000004E
:1035F00007F008881104110418880070000000000A
:103600001C00100010FC13001C0010000000000043
:103610000E3811441084108411440E38000000004C
:103620000700088C10441044088807F000000000D0
:1036300000000000030C030C00000000000000006C
:103640000000000101060000000000000000000072
:10365000008001400220041008081004000002202D
:10366000022002200220022002200220000000008E
:10367000100408080410022001400080000000002F
:103680000E001200100C106C10800F00000003E000
:103690000C1813E4142417C4082807D000000004F1
:1036A000003C03C41C40074000E4001C000410045C
:1036B0001FFC1104110411040E880070000003E0C7
:1036C0000C1810041004100410081C100000100442
:1036D0001FFC100410041004080807F00000100478
:1036E0001FFC1104110417C4100408180000100472
:1036F0001FFC1104110017C010000800000003E0B7
:103700000C181004100410441C7800400000100431
:103710001FFC10840080008010841FFC1004000037
:10372000100410041FFC100410040000000000032B
:103730000001100110011FFE100010000000100415
:103740001FFC110403801464181C100400001004F2
:103750001FFC1004000400040004000C000010040E
:103760001FFC1F0000FC1F001FFC100400001004C1
:103770001FFC0C04030000E010181FFC100007F0F1
:103780000808100410041004080807F000001004D2
:103790001FFC10841080108010800F00000007F0C4
:1037A000081810241024101C080A07F20000100446
:1037B0001FFC1104110011C011300E0C0004000098
:1037C0000E1C11041084108410441C3800001800D2
:1037D000100010041FFC100410001800000010005E
:1037E0001FF810040004000410041FF8100010005B
:1037F0001E0011E0001C007013801C0010001FC090
:10380000103C00E01F0000E0103C1FC0000010044E
:10381000180C163401C001C01634180C1004100026
:103820001C00130400FC13041C001000000008041A
:10383000101C1064108413041C04101800000000F5
:10384000000000007FFE4002400240020000000035
:1038500030000C0003800060001C0003000000002A
:103860004002400240027FFE000000000000000015
:103870000000200040004000400020000000000147
:103880000001000100010001000100010001000031
:103890004000400020000000000000000000000088
:1038A0000098012401440144014400FC000410007C
:1038B0001FFC008801040104008800700000000063
:1038C0000070008801040104010400880000000069
:1038D000007000880104010411081FFC00040000AE
:1038E00000F8014401440144014400C80000000004
:1038F000010401040FFC1104110411001800000060
:1039000000D601290129012901C90106000010047E
:103910001FFC008401000100010400FC0004000001
:103920000104190419FC0004000400000000000058
:10393000000300010101190119FE0000000010043C
:103940001FFC0024004001B4010C01040000000031
:10395000100410041FFC0004000400000000010417
:1039600001FC0104010001FC0104010000FC010450
:1039700001FC008401000100010400FC00040000BF
:1039800000F8010401040104010400F80000010131
:1039900001FF0085010401040088007000000000A0
:1039A0000070008801040104010501FF0001010409
:1039B000010401FC008401040100018000000000FA
:1039C00000CC0124012401240124019800000000FE
:1039D0000100010007F801040104000000000100DB
:1039E00001F8000400040004010801FC00040100C7
:1039F00001800170000C001001600180010001F0E5
:103A0000010C003001C00030010C01F00100000089
:103A10000104018C00740170018C0104000001019B
:103A200001810171000E0018016001800100000099
:103A30000184010C013401440184010C00000000E8
:103A400000000000000001003EFC400240020000B7
:103A5000000000000000FFFF000000000000000068
:103A6000400240023EFC0100000000000000000097
:103A70006000800080004000400020002000000026
:103A80000D0A3D2020202020496E2D4170706C6968
:103A9000636174696F6E2050726F6772616D6D69DA
:103AA0006E67204170706C69636174696F6E3D561A
:103AB000322E3020425954414E4767682020202042
:103AC000202020202020203D200000000D0A3D2045
:103AD00020202020202020202020202020202020E6
:103AE00020202020202020202020202020202020D6
:103AF00020202020202020202020202020202020C6
:103B000020202020202020202020202020202020B5
:103B10002020203D000000000D0A3D3D3D3D3D3D83
:103B20003D3D3D3D3D3D3D3D3D3D3D3D3D3D3D3DC5
:103B30003D3D3D3D3D3D3D3D3D3D3D3D3D3D3D3DB5
:103B40003D3D3D3D3D3D3D3D3D3D3D3D3D3D3D3DA5
:103B50003D3D3D3D3D3D3D3D3D3D3D3D3D3D3D3D95
:103B6000000000002E2E2E616E64206120537973B8
:103B700074656D2052657365742077696C6C206282
:103B8000652067656E65726174656420746F20726C
:103B9000652D6C6F616420746865206E6577206F99
:103BA0007074696F6E2062797465730D0A0000008D
:103BB0000A0A0D2050726F6772616D6D696E672021
:103BC000436F6D706C6574656420537563636573D2
:103BD0007366756C6C79210A0D2D2D2D2D2D2D2DD3
:103BE0002D2D2D2D2D2D2D2D2D2D2D2D2D2D2D2D05
:103BF0002D2D2D2D2D2D2D2D2D0D0A204E616D6578
:103C00003A200000243C0008000000201C010000B5
:103C100028010008403D00081C010020640F00003E
:103C2000440100080000000000000000010203043D
:103C300001020304060708090204060800A24A0458
:103C4000000000000000000001020304060708094C
:103C50000000FC4454545455FE545454F44444005D
:103C60000000000000000000000000000000000054
:103C700040300F00FD45454547454545FD000000E6
:103C80000000000000000000000000000000000034
:103C9000000000FE2222222222222222FE00000018
:103CA0000000000000000000000000000000000014
:103CB0008040300F02020202020242827F000000B6
:103CC00000000000000000000000000000000000F4
:103CD00000FE0282BAAAAAAAAAAABA8202FE00001A
:103CE00000000000000000000000000000000000D4
:103CF00000FF404F605048464850604F40FF000072
:103D000000000000000000000000000000000000B3
:103D100001000000000000000000000000000000A2
:103D20000000000000000000005000080004000037
:103D3000000000000000000004000000000000007F
:04000005080000ED02
:00000001FF
