:020000040800F2
:10500000A00B00204D770008B1530008B3530008EF
:10501000B7530008BB530008BF530008000000004E
:10502000000000000000000000000000C353000862
:10503000C553000800000000C7530008C95300080A
:10504000677700086777000867770008C56E000873
:105050006777000867770008ED7500086777000834
:1050600067770008677700086777000867770008A8
:105070006777000867770008677700086777000898
:105080006777000867770008677700086777000888
:105090006777000867770008677700086777000878
:1050A0006777000867770008677700086777000868
:1050B00067770008137500086777000867770008AE
:1050C0006777000867770008677700086777000848
:1050D0006777000867770008677700086777000838
:1050E00067770008677700086777000800F002F824
:1050F00000F03AF80AA090E8000C82448344AAF138
:105100000107DA4501D100F02FF8AFF2090EBAE835
:105110000F0013F0010F18BFFB1A43F001031847EB
:10512000484B0000684B0000103A24BF78C878C193
:10513000FAD8520724BF30C830C144BF04680C609D
:10514000704700000023002400250026103A28BFE5
:1051500078C1FBD8520728BF30C148BF0B607047E9
:105160001FB51FBD10B510BD04F009F81146FFF7BB
:10517000F7FF00F009F804F027F803B4FFF7F2FF97
:1051800003BC04F02BF8000008B5724872490860AF
:1051900072B64FF4A06002F0F9FA02F06DFA41F62F
:1051A0001F4141F2873002F087F900F0E1FE00F084
:1051B0008BFD01F0BFFE01F05FFB01F09BFD02F0F3
:1051C0001FFA00F04DFD00F0EFFE01F0CDFE02F001
:1051D0004EF901F07EF801F093F962B6B9E000F003
:1051E00084FD04215D4802F032FC80B900F040FDEE
:1051F0000C20032300905A4802783021122001F03D
:105200003DFA5748007801F06EF801F03AF9554838
:10521000807855490978884271D05248807852493F
:1052200008700C2000904F48828804230021084613
:1052300001F024FA01200C232F22002100901820D5
:1052400001F0C2F90C200090464882790223002127
:105250001E2001F013FA01200C232F2200210090C0
:105260002A2001F0B1F90C2000903E48C2790223B7
:105270000021302001F002FA0C2000903948027819
:1052800002230C21002001F0F9F901200C233A221D
:1052900019460090184601F097F90C20009031480B
:1052A000427802230C21122001F0E8F901200C239E
:1052B0003A22194600901E2001F086F90C20009039
:1052C0002848827802230C21242001F0D7F92548B0
:1052D000007A072837D2DFE800F0040B131A2128E0
:1052E0002F000C2321A20021422001F011FA2AE014
:1052F0000C2320A20021422001F00AFA23E023E03F
:105300000C231EA20021422001F002FA1BE00C2314
:105310001CA20021422001F0FBF914E00C231CA286
:105320000021422001F0F4F90DE00C231BA2002122
:10533000422001F0EDF906E00C231AA200214220E0
:1053400001F0E6F900BF00BF01F09BF8022002F077
:10535000D0F944E70050000808ED00E000080140E3
:1053600019000020320500200000002053756E64F3
:10537000617900004D6F6E6461790000547565734A
:10538000646179005765646E65736461790000003B
:105390005468757273646179000000004672696434
:1053A00061790000536174757264617900000000D6
:1053B000704700BFFEE700BFFEE700BFFEE700BF8B
:1053C000FEE7704770477047704700000CB500203B
:1053D000019000906C48006840F480306A49086091
:1053E00000BF6948006800F4003000900198401C3C
:1053F0000190009818B90198B0F5A06FF1D16248FA
:10540000006800F4003010B10120009001E000209D
:1054100000900098012843D15C48006840F01000DB
:105420005A4908600846006820F0030008600846F2
:10543000006840F0020008605348406852494860E4
:105440000846406848600846406840F4806048600C
:105450000846406820F47C1048600846406840F4E4
:10546000E81048600846006840F08070086000BF9F
:105470004548006800F000700028F9D042484068B4
:1054800020F00300404948600846406840F00200B0
:10549000486000BF3C48406800F00C000828F9D183
:1054A0000CBD10B5FFF792FF10BD10B5364800686F
:1054B00040F001003449086008464068344908401B
:1054C0003149486008460068324908402E49086062
:1054D0000846006820F4802008600846406820F4F0
:1054E000FE0048604FF41F008860FFF7DAFF4FF0BE
:1054F00000602949086010BD10B50021002000227D
:10550000214B5B6803F00C0121B1042906D0082966
:1055100028D107E0214B224C236027E01F4B204C71
:10552000236023E0184B5B6803F47010164B5B6834
:1055300003F48032022303EB904022B9194B43431A
:10554000174C23600DE0104B5B6803F4003323B16C
:10555000144B4343124C236003E0104B4343104C65
:10556000236003E00D4B0E4C236000BF00BF064BD1
:105570005B68C3F303130C4CE15C094B1B68CB4025
:10558000074C236010BD00000010024000200240C4
:105590000000FFF8FFFFF6FE08ED00E000127A00C1
:1055A0000400002000093D000800002008B501218A
:1055B0000C2002F075FCC020ADF8000010208DF822
:1055C000030003208DF802006946FD4802F0ACF9A3
:1055D0000420ADF8000028208DF8030003208DF88A
:1055E00002006946F74802F09FF94021F44802F0B2
:1055F00048FA8021F24802F044FA042002F079F8D7
:1056000008BD08B54020ADF8000014208DF8030057
:1056100003208DF802006946E94802F085F908BDCB
:1056200008B54020ADF8000004208DF8030069465D
:10563000E34802F079F908BD08B58020ADF8000014
:1056400014208DF8030003208DF802006946DC4821
:1056500002F06AF908BD08B58020ADF8000004200A
:105660008DF803006946D64802F05EF908BD08B51A
:105670000420ADF8000028208DF803006946D148C9
:1056800002F052F908BD10B5FFF7BBFFFFF7D4FFDA
:10569000FFF7EDFF00BF0421CA4802F0D8F9002847
:1056A000F9D1FFF7BDFF00BF4021C54802F0CFF997
:1056B0000028F9D08021C24802F0E3F900BF802120
:1056C000BF4802F0C4F90028F9D0042001F0EDFF32
:1056D0008021BB4802F0D7F9FFF7AEFF042001F0AC
:1056E000E4FFFFF78EFF4021B54802F0CCF910BD72
:1056F00010B500BF0421B34802F0A9F90028F9D180
:10570000FFF78EFF00BF4021AD4802F0A0F900284E
:10571000F9D08021AA4802F0B4F900BF8021A8483E
:1057200002F095F90028F9D0042001F0BEFF802195
:10573000A34802F0A8F9FFF77FFF042001F0B5FFAE
:10574000FFF75FFF40219E4802F09DF910BD10B5A4
:1057500080219B4802F097F9FFF76EFF012001F0CE
:10576000A4FFFFF75DFF00BF4021954802F06FF9ED
:105770000028F9D0012001F098FF8021904802F024
:1057800080F900BF80218E4802F061F90028F9D02D
:10579000012001F08AFF10BD70B50024FFF75BFF08
:1057A000002528E0012001F080FFFFF739FF0120EC
:1057B00001F07BFF00BF4021814802F048F900283A
:1057C000F9D06006040E012001F06FFF80217C48B3
:1057D00002F03DF908B1601CC4B2012001F065FF80
:1057E000FFF70FFF4021764802F04DF9012001F04C
:1057F0005CFF681CC5B2082DD4DB8021704802F024
:1058000042F9FFF719FF00BF80216D4802F01FF930
:105810000028F9D1022001F048FFFFF701FF00BF87
:105820004021674802F013F90028F9D0022001F066
:105830003CFFFFF7E6FE4021614802F024F9032017
:1058400001F033FF204670BD70B50024FFF703FF61
:10585000002528E0012001F028FFFFF7E1FE0120EC
:1058600001F023FF00BF4021554802F0F0F8002866
:10587000F9D06006040E012001F017FF8021504886
:1058800002F0E5F808B1601CC4B2012001F00DFF80
:10589000FFF7B7FE40214A4802F0F5F8012001F079
:1058A00004FF681CC5B2082DD4DB8021444802F0F7
:1058B000E8F800BF8021424802F0C9F80028F9D07A
:1058C000022001F0F2FEFFF7ABFE00BF40213C4892
:1058D00002F0BDF80028F9D0022001F0E6FEFFF743
:1058E00090FE4021364802F0CEF8032001F0DDFEA4
:1058F000204670BD2DE9F04104460A26002730E01D
:1059000004F0800058B180212D4802F0BAF800BFA1
:1059100080212B4802F09BF80028F9D005E0802177
:10592000274802F0B0F8FFF787FE6006040E01205A
:1059300001F0BBFEFFF774FE00BF4021204802F0DB
:1059400086F80028F9D0042001F0AFFEFFF759FED9
:1059500040211B4802F097F8022001F0A6FE781CB7
:10596000C7B2082FCCDB022001F09FFEFFF773FEC9
:10597000FFF756FE00BF4021114802F068F80028EA
:10598000F9D0012001F091FE1EE0701EC6B20A207F
:1059900001F08BFEC6B9012001F087FEFFF731FE52
:1059A0004021074802F06FF8012001F07EFE00253B
:1059B0008021034802F065F82846BDE8F081000028
:1059C000000C01400008014080210C4802F03FF823
:1059D0000028DAD1012001F068FEFFF712FE402115
:1059E000064802F050F8012001F05FFE01258021F9
:1059F000024802F046F82846DFE70000000C0140AC
:105A00002DE9F04105460E4617469846002101EB68
:105A10004501C8B2FFF76EFF3046FFF76BFF002469
:105A200004E0385DFFF766FF601CC4B24445F8DB54
:105A3000BDE8F0812DE9F0410646884617461C4630
:105A4000002101EB4601C8B2FFF754FF4046FFF7C3
:105A500051FFFFF74DFE012101EB4601C8B2FFF7F0
:105A600049FF012C09DD002504E0FFF795FE78557C
:105A7000681CC5B2601EA842F7DCFFF7E5FE611E98
:105A80007854BDE8F08110B5FFF7FDFD02238B4A85
:105A900000214420FFF7CEFFFFF759FE0020874981
:105AA0000870FFF7F0FD0123844A19464420FFF7F0
:105AB000A7FFFFF74CFE0F2080490870FFF7E3FDBA
:105AC00001237E4A0D214420FFF79AFFFFF73FFE96
:105AD00008207A490870202048708870C870082013
:105AE000087100204871142088710420C871FFF7E4
:105AF000CAFD0823714A0A214420FFF781FFFFF7FE
:105B000026FE00206D4908703020487040208870C3
:105B1000FFF7B9FD0323694A0B214420FFF770FF0B
:105B2000FFF715FE08206549087048708870C87036
:105B3000FFF7A9FD0423614A07214420FFF760FF16
:105B4000FFF705FE00205D4908701D2048704020C9
:105B500088700020C87003200871FFF794FD0523AA
:105B6000564A09214420FFF74BFFFFF7F0FD512073
:105B700052490870492048704A2088704920C870EE
:105B8000FFF781FD04234D4A08214420FFF738FF29
:105B9000FFF7DDFD002049490870FFF774FD012380
:105BA000464A0B214420FFF72BFFFFF7D0FD0520CD
:105BB000424908705120487033208870FFF763FD18
:105BC00003233E4A0C214420FFF71AFFFFF7BFFDD5
:105BD00010203A490870FFF756FD0123374A092182
:105BE0004420FFF70DFFFFF7B2FD00BF0A2001F0D0
:105BF00080FDFFF748FD0123304A19464420FFF796
:105C000019FFFFF7A4FD2D48007800F004000428D8
:105C1000ECD00020294908705D204870422088702F
:105C20000020C87003200871FFF72DFD0523234ACB
:105C300009214420FFF7E4FEFFF789FD10BD10B5F0
:105C400000201E4908701D204870FFF71CFD02232C
:105C50001A4A09214420FFF7D3FEFFF778FD10BD53
:105C600010B5FFF7A3FCFFF7EAFFFFF70CFF10BD2D
:105C700010B5FFF708FD0223104A01214420FFF769
:105C8000D9FEFFF735FD04230C4A921C0321442062
:105C9000FFF7D0FEFFF72CFD0323084AD21C022198
:105CA0004420FFF7C7FEFFF752FD044880780449FF
:105CB00008700248C0780349087010BD1401002024
:105CC000180000201900002008B501210C2002F066
:105CD000E7F84FF44870ADF8000048208DF8030055
:105CE0006946924801F020FE08BD08B520218F4882
:105CF00001F0ADFE002864D1052001F0FAFC20215E
:105D00008A4801F0A4FE00285BD189480078401C35
:105D10008749087000BF2021844801F098FE0028C0
:105D2000F9D08348007801280ED10C2381A21946AE
:105D3000122000F0EDFC0C237FA21821002000F0BF
:105D4000E7FC022001F0D5FC7948007802280ED14A
:105D50000C2378A21946002000F0DAFC0C2378A26C
:105D60001821002000F0D4FC022001F0C2FC704891
:105D70000078032808D10C2374A21821002000F019
:105D8000C7FC022001F0B5FC69480078042808D15E
:105D90000C2370A21821002000F0BAFC022001F0B0
:105DA000A8FC6348007805280BD1002060490870E2
:105DB0001E2364221821009000F0E9FB022001F06C
:105DC00098FC5B48007800287ED04FF4007157485B
:105DD00001F03DFE00284DD1052001F08AFC4FF472
:105DE0000071524801F033FE002843D100BF4FF448
:105DF00000714E4801F02BFE0028F8D04C48007886
:105E000001280AD156480068401C554908600846D8
:105E100000683C2801D1002008604548007802282D
:105E20000AD150480068401C4E4908600846006886
:105E3000182801D1002008603D48007803280AD1C5
:105E400049480068401C48490860084600683C28EA
:105E500001D1002008603648007804280AD1434860
:105E60000068401C4149086008460068182801D1B4
:105E7000002008604FF480712C4801F0E8FD0028F4
:105E80004FD1052001F035FC4FF48071274801F017
:105E9000DEFD002845D100BF4FF48071234801F09A
:105EA000D6FD0028F8D02248007801280AD12C48D5
:105EB0000068401E2A49086008460068401C08B96E
:105EC0003B2008601A4800E02BE0007802280AD145
:105ED00024480068401E2349086008460068401CAA
:105EE00008B9182008601248007803280AD11E4813
:105EF0000068401E1C49086008460068401C08B93C
:105F00003B2008600A48007804280AD11748006836
:105F1000401E1649086008460068401C08B9182051
:105F2000086000F0E7FE00F0ACFA08BD000C01408C
:105F3000210000205F5F00005345545F4D494E0033
:105F40005345545F484F5552000000004E414F5F8B
:105F50004D494E004E414F5F484F555200000000E2
:105F6000E4000020E8000020EC000020F000002009
:105F700008B50121102001F093FF4FF40050ADF857
:105F8000000010208DF8030002208DF80200694601
:105F9000044801F0C9FC4FF40051024801F071FDC2
:105FA00008BD00000010014008B50121042001F0E7
:105FB00077FF1820ADF8000003208DF802001020B4
:105FC0008DF803006946F84801F0AEFC1021F64850
:105FD00001F057FD0821F44801F053FD2020ADF8F1
:105FE000000010208DF8030003208DF802006946A0
:105FF000ED4801F099FC01222021EB4801F045FD1C
:1060000008BD08B51020ADF8000014208DF803007D
:1060100003208DF802006946E34801F085FC08BDC5
:1060200008B51020ADF8000004208DF80300694683
:10603000DD4801F079FC08BD10B51021DA4801F007
:1060400020FD052001F031FB0821D74801F019FDA2
:10605000052001F02AFB1021D34801F014FD052092
:1060600001F023FB0821D04801F00DFD052001F0CF
:106070001CFB10BD10B51021CB4801F004FD05201C
:1060800001F013FB0821C84801F0FBFC052001F0DA
:106090000CFB1021C44801F0F4FC052001F005FBC5
:1060A0000821C14801F0EFFC052001F0FEFA10BD07
:1060B00070B50546002420E005FA04F000F08000E9
:1060C00020B11021B84801F0DCFC03E01021B648F3
:1060D00001F0D9FC052001F0E8FA0821B24801F0EE
:1060E000D0FC052001F0E1FA0821AF4801F0CBFC1B
:1060F000052001F0DAFA601CC4B2082CDCDB70BDAC
:1061000010B50124FFF78CFF032001F0CEFA08211F
:10611000A54801F0B6FC052001F0C7FA1021A248FD
:1061200001F095FC00B1002408219F4801F0ABFC70
:10613000012001F0BAFAFFF764FF042001F0B5FA7C
:10614000204610BD10B50821974801F09CFCFFF7D0
:1061500058FF1021944801F096FC052001F0A5FAA3
:106160000821914801F08DFC052001F09EFA0821DC
:106170008D4801F088FC10BD10B508218A4801F057
:1061800082FCFFF73EFF1021874801F07AFC0520D2
:1061900001F08BFA0821844801F073FC052001F01E
:1061A00084FA0821804801F06EFC10BD70B50546E8
:1061B0000024FFF735FF002618E008217A4801F097
:1061C00062FC042001F071FA0821774801F059FCC3
:1061D0006006040E1021744801F039FC08B1601CFF
:1061E000C4B2012001F061FA701CC6B2082EE4DBD3
:1061F00015B9FFF7C1FF01E0FFF7A4FF204670BD0E
:1062000070B506460C461546FFF716FF3046FFF7F9
:106210004FFFFFF775FF2046FFF74AFFFFF770FFBC
:106220002846FFF745FFFFF76BFFFFF723FF70BD21
:106230002DE9F04180460D4616461F46FFF7FCFE4D
:106240004046FFF735FFFFF75BFF2846FFF730FFBB
:10625000FFF756FF002406E0385DFFF729FFFFF740
:106260004FFF601CC4B2B442F6DBFFF703FFBDE88A
:10627000F0812DE9F0410746884616461C46FFF797
:10628000DBFE3846FFF714FFFFF73AFF4046FFF703
:106290000FFFFFF735FFFFF7CFFE791CC8B2FFF7FE
:1062A00007FFFFF72DFF012C0ADD002505E0012087
:1062B000FFF77CFF7055681CC5B2601EA842F6DC73
:1062C0000020FFF773FF611E7054FFF7D3FEBDE897
:1062D000F08110B5002211466420FFF791FFC8201D
:1062E00001F0E3F910BD70B50446002211466420A8
:1062F000FFF786FFC82001F0D8F9FF223D21642076
:10630000FFF77EFFC82001F0D0F940220021642071
:10631000FFF776FFC82001F0C8F94D22362164202E
:10632000FFF76EFFC82001F0C0F90F2C3EDD2246BA
:1063300016216420FFF764FFC4F1FF0217216420D7
:10634000FFF75EFF224618216420FFF759FFC4F1D2
:10635000FF0219216420FFF753FF22461A2164200F
:10636000FFF74EFFC4F1FF021B216420FFF748FF37
:1063700004F1FF0505EBD570C0F347021C21642032
:10638000FFF73EFF05EBD570C0F347021D216420E7
:10639000FFF736FF05EBD570C0F347021E216420DE
:1063A000FFF72EFF2FE000000008014022461621D3
:1063B0006420FFF725FF224617216420FFF720FF06
:1063C000224618216420FFF71BFF22461921642072
:1063D000FFF716FF22461A216420FFF711FF22461D
:1063E0001B216420FFF70CFF22461C216420FFF7CD
:1063F00007FF22461D216420FFF702FF22461E21CF
:106400006420FFF7FDFE70BD70B504460E462EB148
:106410004FF48051FE4801F034FB04E04FF480510A
:10642000FB4801F030FB0221FA4801F02CFB00256B
:106430001BE04FF40041F74801F025FB04F0800019
:1064400028B14FF40051F34801F01BFB04E04FF476
:106450000051F04801F017FB4FF40041ED4801F006
:1064600010FB6006040E681CC5B2082DE1DB02219A
:10647000E84801F006FB4FF48051E54801F001FBCC
:1064800070BD70B500241CE004F1B001C8B2002159
:10649000FFF7BAFF00210846FFF7B6FF00211020E2
:1064A000FFF7B2FF002508E0DB4901EBC501085DFD
:1064B0000121FFF7A9FF681CC5B2802DF4DB601C29
:1064C000C4B2082CE0DB70BD10B500218D20FFF7B1
:1064D0009BFF00211420FFF797FF0021AF20FFF75B
:1064E00093FF10BD10B500218D20FFF78DFF002117
:1064F0001020FFF789FF0021AE20FFF785FF10BDB8
:1065000070B500240CE0002506E00020C24901EB34
:10651000C5010855681CC5B2802DF6DB601CC4B2ED
:10652000082CF0DBFFF7ADFF70BDF0B51446002678
:106530007F2801DC3F2900DDF0BD0B46CF1701EBC2
:106540005777FF10C7F10707FAB2CF1701EB57775C
:10655000FF10A1EBC707FDB2C5F107070123BB4040
:10656000DEB24CB1AC4B03EBC0039B5C3343AA4F90
:1065700007EBC007BB5408E0A74B03EBC0039B5CD1
:10658000B343A54F07EBC007BB5400BFD4E72DE9C9
:10659000F04706460F4690469946DDF820A034465F
:1065A0000CE03D4606E0524629462046FFF7BDFF77
:1065B000681CC5B24D45F6DD601CC4B24445F0DD33
:1065C000FFF75FFFBDE8F0872DE9F04F80460C46EE
:1065D00015461E46A346A5F12000C5B200273EE0A1
:1065E0000C2E07D105EB45008C4901EB800010F81B
:1065F000079004E08A4800EB051010F807904FF070
:10660000000A26E009F0800028B121464046099A98
:10661000FFF78BFF09E0099808B9012000E000208E
:10662000024621464046FFF780FF4FEA49604FEAA5
:106630001069601CC4B2A4EB0B00B04205D15C46EB
:1066400008F1010000F0FF0806E00AF1010000F087
:10665000FF0ABAF1080FD5DB00BF781CC7B2B742FA
:10666000BEDBBDE8F08F10B50246012000E05043CC
:106670000B00A1F10104E1B2F9D110BD2DE9FF4FEA
:1066800081B0074691461E460E9D4FF0000A002439
:1066900039E0301B401EC1B20A20FFF7E4FFB9FB0E
:1066A000F0F00A21B0FBF1F201FB1208BAF1000F81
:1066B00016D1701EA04213DDB8F1000F0ED10120DB
:1066C000AB4605EBDB71491001FB04710090C8B2C9
:1066D0002B4620220299FFF777FF12E04FF0010AC4
:1066E0000120AB4605EBDB71491001FB0471009002
:1066F000C8B208F13001CAB22B460299FFF764FF15
:1067000000BF601CC4B2B442C3DB05B0BDE8F08F6B
:10671000F8B505460E4614461F4618E07A2D03DDEF
:10672000002506F11000C6B23A2E04DD0020054611
:106730000646FFF7E5FE0120009022783B463146F1
:106740002846FFF741FF05F10800C5B2641C207818
:106750000028E3D1F8BD70B504460D4605F1B0013F
:10676000C8B20021FFF750FE102141EA14100021A9
:10677000FFF74AFE04F00F0141F001000021FFF78E
:1067800043FE70BD2DE9F04180460E4615460027B8
:1067900031464046FFF7DFFF00240AE0214A02EBC2
:1067A0008511085D0121FFF72FFE781CC7B2601C20
:1067B000C4B2102CF2DB701CC1B24046FFF7CBFF15
:1067C00000240CE06900491C164A02EB4111085DE7
:1067D0000121FFF719FE781CC7B2601CC4B2102C4F
:1067E000F0DBBDE8F0812DE9F05F06460F469046EC
:1067F0001C46DDF828A04FF0000BE11704EB5171A7
:10680000C910A4EBC101A1B92046E1170CE00000BA
:1068100000080140000C014032010020EA9100080C
:106820005E9600082200002004EB5171C1F3C705F9
:1068300006E02046E11704EB5171C910491CCDB2A6
:106840003D4615E029463046FFF785FFB1460BE08F
:1068500059460BF1010B1AF801000121FFF7D4FD95
:1068600009F1010000F0FF09C145F1DB681CC5B268
:10687000A542E7DBBDE8F09F08B501210C2001F03F
:106880000FFB4FF48050ADF8000010208DF803008E
:1068900003208DF802006946474801F045F84FF49F
:1068A0008051454801F0EDF84BF20200ADF80000D0
:1068B00010208DF8030003208DF8020069463F4840
:1068C00001F032F84BF202013C4801F0DAF84FF4E3
:1068D00080513A4801F0D7F8642000F00AFF4FF4E5
:1068E0008051364801F0CDF80021AE20FFF78CFD35
:1068F0000021D520FFF788FD00215020FFF784FDFF
:106900000021A820FFF780FD00213F20FFF77CFD3C
:106910000021D320FFF778FD00210846FFF774FD22
:1069200000214020FFF770FD00218D20FFF76CFD56
:1069300000211420FFF768FD00212020FFF764FDEF
:1069400000210220FFF760FD0021A120FFF75CFD80
:106950000021C020FFF758FD0021DA20FFF754FD89
:1069600000211220FFF750FD00218120FFF74CFD90
:106970000021EF20FFF748FD0021D920FFF744FD5B
:106980000021F120FFF740FD0021DB20FFF73CFD57
:1069900000213020FFF738FD0021A420FFF734FD4F
:1069A0000021A620FFF730FD0021AF20FFF72CFDCE
:1069B000FFF7A6FD08BD000000080140000C0140E3
:1069C00008B503208DF8000000208DF801008DF837
:1069D000020001208DF80300684600F0DCFE08BDCF
:1069E000F0B503460C461546642093FBF0F0C6B2A2
:1069F000642093FBF0F700FB1730C1B2132E02DDC9
:106A000001F16400C1B20846CF1701EB977701EBA3
:106A1000A707BAB2072092FBF0F700FB172082B25B
:106A20005719601EDFF850C41CF80000384482B2C9
:106A3000CF1701EB9777BF10A1EB87071FB9032C86
:106A400001DA501E82B2072092FBF0F700FB1720FC
:106A5000C0B2F0BD0146CA1701EB92729210A1EBD1
:106A6000820292B9642091FBF0F200FB121050B93F
:106A70004FF4C87091FBF0F200FB121008B901202E
:106A800070470020FCE70120FAE70020F8E770B526
:106A9000002600240025F94806883604001D0088D9
:106AA0000644F748B6FBF0F4F6480088A0423CD014
:106AB000F4490C8040F2B27510E02846FFF7CAFF97
:106AC00040B1B4F5B77F02D3A4F5B77404E0681CF5
:106AD00085B206E0A4F26D14681C85B2B4F5B67FE9
:106AE000EBD800BFE8488580002516E0E649888895
:106AF000FFF7B0FF30B1012D04D11D2C01D31D3C97
:106B000009E00CE0E148405DA04203D8DF48405D69
:106B1000241A00E003E0681C85B21C2CE6D200BFFA
:106B2000681CD9498871601CC871D548B6FBF0F162
:106B300000FB11644FF46160B4FBF0F0D2490870BF
:106B40004FF46160B4FBF0F100FB11403C21B0FB5D
:106B5000F1F0CD4948704FF46160B4FBF0F100FBF7
:106B600011403C21B0FBF1F201FB1200C6498870D4
:106B70000B46DA7999799888FFF732FFC249087293
:106B8000002070BD2DE9F05F06460F4690469946FD
:106B9000DDE90AAB002440F2B270864203DB40F626
:106BA0003300864202DD0120BDE8F09F40F2B2755D
:106BB0000AE02846FFF74EFF10B1B548044401E053
:106BC000B4480444681C85B2B542F2DB781EC7B2F3
:106BD000002510E0AD48405D40F2A321484304EB9E
:106BE000C0143046FFF736FF18B1012D01D1A4487B
:106BF0000444681C85B2BD42ECDBA8F1010040F200
:106C0000A321484304EBC014C9EB4910C0EB092091
:106C100004EB0014CAEB0A1004EB80045C4401216D
:106C20004FF0C05001F049F9012002F0BCF92046B4
:106C300002F033F902F064F90020B5E72DE9F05FC6
:106C400006460F4690469946DDE90AAB002440F21D
:106C5000B270864203DB40F63300864202DD01203B
:106C6000BDE8F09F40F2B2750AE02846FFF7F2FE59
:106C700010B18748044401E086480444681C85B28A
:106C8000B542F2DB781EC7B2002510E07F48405DB8
:106C900040F2A321484304EBC0143046FFF7DAFE6C
:106CA00018B1012D01D176480444681C85B2BD425B
:106CB000ECDBA8F1010040F2A321484304EBC0142F
:106CC000C9EB4910C0EB092004EB0014CAEB0A1011
:106CD00004EB80045C4401214FF0C05001F0EDF85A
:106CE000012002F060F9204602F0F2F802F008F903
:106CF0000020B5E77CB5002401214FF0C05001F021
:106D0000DCF8012002F04FF9042002F070F862492B
:106D10000968624A12681144614A12681144614A62
:106D20001268114445F25002114488427DD002F0AD
:106D300029F8012001F021F804E0601CC4B20A2007
:106D400000F0D7FC412000F080FF0028F5D0FA2C9D
:106D500001DB01207CBD4FF4807001F02AF8012096
:106D600001F02DF802F0CCF802F0D3F80121032055
:106D700002F06AF802F0C4F802F073F847F6FF7008
:106D800002F098F802F0BCF84648006800280EDDD2
:106D90003D4880783C494978CDE900104148037866
:106DA0000422052140F2E170FFF7ECFE4FE03A4883
:106DB000006800280EDD3448807837490978CDE92D
:106DC0000010314803780422052140F2E170FFF7FA
:106DD000D9FE3CE032480068002812DD2A4880785D
:106DE00029494978284DCDE900102D782C4E367868
:106DF0003544EBB2244DEA79A979A888FFF71EFF44
:106E000025E026480068002813DD1F4880782249C5
:106E10000978224A12781144C9B21B4DCDE90010FD
:106E20002B78EA79A979A88800E03DE0FFF706FF12
:106E30000DE01548807814494978CDE900101248D2
:106E400003780422052140F2E170FFF79BFE02F077
:106E500011F811480088114A12881044104A12880B
:106E60001044104A1288104445F25002104481B276
:106E7000042001F0B0FF1FE04E9C000818280040DD
:106E800080510100F6000020320500205A9C0008C5
:106E90000085E2018033E101E4000020EC000020E5
:106EA000F0000020E800002002F033F80121032068
:106EB00001F0CAFF02F024F8FFF782FDFFF7E7FDBB
:106EC000002047E708B5012002F048F808B1FFF7B5
:106ED000DEFD022002F042F8E0B1022002F04EF89E
:106EE0000F480078401C0E490870FFF709FB10237B
:106EF0000CA218210020FFF70BFCFFF7C8FD0C20A7
:106F000000900B484278022324210020FFF7B6FBB3
:106F1000FFF7B7FA052002F031F801F0F1FF08BDE4
:106F2000F40000204E414F5A484F4E4700000000E9
:106F30003205002008B50121082000F0B1FF012032
:106F4000ADF8000010208DF8030003208DF802003A
:106F50006946044800F0E8FC0121024800F093FD76
:106F600008BD0000000C014008B50121082000F018
:106F700097FF4FF48840ADF8000010208DF8030013
:106F800003208DF802006946E04800F0CDFC0120A6
:106F9000DF490860DF49C1F8B80108BD10B5DB481A
:106FA000001D006820F07060D849091D086008467F
:106FB000006840F0407008600120D5491031086039
:106FC000D449C1F8A801042000F06FFB0020D0498B
:106FD00010310860042000F068FB0020CD49C1F8A2
:106FE000A80110BD10B5C948001D006820F07060F0
:106FF000C649091D08600846006840F040700860F6
:107000000020C3490860C349C1F8B801042000F05A
:107010004CFB0120BE490860BE49C1F8B8010420FC
:1070200000F043FB10BD10B50024B848001D0068F7
:1070300020F07060B549091D08600846006840F0FE
:10704000006008600120B2491031086000F02DFB9B
:107050000120B049C1F8A80100F027FB07E0601C3F
:10706000C4B2FA2C03DDFFF7BDFF012010BDA84814
:10707000703800680028F2D1A549086000BFF5E724
:1070800010B50020A2490860A048001D006820F04B
:1070900070609E49091D08600846006840F0407015
:1070A000086000209B49C1F8B801022000F0FDFAF9
:1070B000012097490860022000F0F7FA0020954966
:1070C000C1F8A80110BD10B50020914908608F4893
:1070D000001D006820F070608C49091D086008469A
:1070E000006840F04070086001208A49C1F8B8018A
:1070F000022000F0DAFA012085490860022000F041
:10710000D4FA00208349C1F8A80110BD70B5044627
:107110007E48001D006820F070607C49091D0860F1
:107120000846006840F04070086000207849086018
:10713000002517E0E0097649103108606006040E6A
:10714000022000F0B2FA01207249C1F8A801022021
:1071500000F0ABFA00206E490860022000F0A5FAAA
:10716000681CC5B2082DE5DB70BD70B5054600246E
:107170006648001D006820F070606449091D0860C1
:107180000846006840F000600860002616E0002015
:107190005F490860022000F088FA01205D49C1F8CB
:1071A000A8016006040E5A487038006808B1601CD7
:1071B000C4B2012000F079FA701CC6B2082EE6DBDA
:1071C00015B9FFF780FF01E0FFF75AFF204670BDB9
:1071D00070B504460026FFF7E1FEA020FFF796FFFA
:1071E000FFF721FF2012FFF791FFFFF71CFF254655
:1071F000E11704EB11610912A4EB0121C8B2FFF7FA
:1072000085FFFFF710FFFFF7C9FEA120FFF77EFF04
:10721000FFF709FF0020FFF7A8FF0646FFF7E2FE91
:10722000304670BD70B504460E46FFF7B7FEA0208D
:10723000FFF76CFFFFF7F7FE2012FFF767FFFFF77E
:10724000F2FE2546E11704EB11610912A4EB0121BE
:10725000C8B2FFF75BFFFFF7E6FE3046FFF756FFC9
:10726000FFF7E1FEFFF7BEFE0A2000F042FA70BD14
:107270002DE9F04105460E461746002409E0E200DC
:1072800026FA02F2D1B22A1990B2FFF7CBFF601CA6
:10729000C4B2BC42F3DBBDE8F0812DE9F041074602
:1072A0000C460026002509E036023919491B491E03
:1072B00088B2FFF78DFF0644681CC5B2A542F3DB18
:1072C0003046BDE8F08170B506460C46154608E02C
:1072D0003046721C96B2FFF77BFF04F8010B681E64
:1072E00085B2002DF4D170BD70B505460C4616462A
:1072F00006E021782846FFF795FF681C85B2641CDC
:107300003000A6F101018EB2F3D170BD000C014036
:10731000A88121420080214210B56448006820F015
:107320000F00624908600846006840F003000860EA
:1073300000205F490860142000F0DBF901205D495E
:10734000C1F8A0011E2000F0B0F910BD10B5002456
:107350005648006820F00F0054490860084600684D
:1073600040F00800086004E0601CC4B2012000F096
:107370009CF94F488038006808B1642CF4DB642C19
:1073800001DB012010BD002404E0601CC4B2012018
:1073900000F08BF946488038006808B9642CF4DBAB
:1073A000642C01DB0120EDE70020EBE710B50024A1
:1073B00004E0601CC4B2012000F077F93C4880383A
:1073C000006808B1642CF4DB002404E0601CC4B243
:1073D000012000F06AF936488038006808B9642C4A
:1073E000F4DB282000F061F931488038006808B1EA
:1073F000012010BD0020FCE770B50024002506E048
:107400006006040EFFF7D2FF0443681CC5B2082DC6
:10741000F6DB204670BD7CB505460E46FFF77CFFC7
:10742000FFF794FFF8B9002405E0FFF7E5FF0DF83A
:107430000400601CC4B2052CF7DB9DF800009DF829
:10744000011008449DF8021008449DF803100844F8
:107450009DF80410884208D19DF8000030709DF816
:107460000200287001E001207CBD0020FCE708B587
:107470000121042000F014FD4FF48070ADF80000ED
:1074800010208DF8030003208DF80200694607489C
:10749000001F00F049FA4FF480710448001F00F00B
:1074A000F0FAFFF739FFFFF751FF08BD040801406C
:1074B000A0012142000021427FB505460C46012172
:1074C000022000F0FAFCADF80850ADF804400020AE
:1074D000ADF80A00ADF8060001A9254800F018FE35
:1074E00001221146224801F08AF91D208DF8000082
:1074F00000208DF8010003208DF8020001208DF896
:107500000300684600F047F90121194801F05CF9D1
:107510007FBD08B50121164801F01FFC38B30121D9
:10752000134801F02BFC13491348FFF774FF0C209C
:1075300002230090104802780C214420FFF79EF8A7
:1075400001200C234322194600905020FFF73CF8FD
:107550000C2002230090074802780C216220FFF7DC
:107560008DF80C2305A219466E20FFF7D1F808BD4F
:1075700000040040FB000020FA00002052480000F8
:1075800010B50121080700F098FC012001F01AFD58
:1075900001F037FD10BD10B500214FF4FE7000F072
:1075A00099FCFFF7EDFF10BD70B500250024002009
:1075B0002E49086019E02E48006818B1681CC5B251
:1075C000002408E0601CC4B2032C04DD012027491C
:1075D0000860002070BD1E2000F08BF8642D04DBD5
:1075E0000020224908600120F4E7E4E710B50120FB
:1075F00001F0B9FDFFF7D8FF08B1FFF7CCFF10BDD0
:107600001FB50121052000F04BFC0120ADF80C0056
:1076100028208DF80F0003A9164800F085F90021F5
:10762000084600F097FA0120009000208DF8040031
:1076300008208DF8050001208DF80600684601F04D
:107640001BFD06208DF8080002208DF809008DF83A
:107650000A0001208DF80B0002A800F09CF8FFF74B
:10766000A3FF08B9FFF78CFF1FBD0000B401224241
:10767000000121420008014010B56FF0040000F045
:10768000D4F82E4800682E49B0FBF1F02D4908705F
:107690000846007800EB4001C1EBC0104FF6FF71C7
:1076A00001EAC0002849088010BD0146254A127829
:1076B0004A434FF0E0235A6100229A611A46126948
:1076C00042F001021A6100BF4FF0E022106900F0A1
:1076D00001021AB100F48032002AF5D04FF0E02206
:1076E000126922F001024FF0E0231A6100229A6130
:1076F00070470146144A12884A434FF0E0235A610A
:1077000000229A611A46126942F001021A6100BF12
:107710004FF0E022106900F001021AB100F480324B
:10772000002AF5D04FF0E022126922F001024FF05A
:10773000E0231A6100229A617047000004000020D3
:1077400000127A00FC000020FE000020094880475B
:1077500009480047FEE7FEE7FEE7FEE7FEE7FEE733
:10776000FEE7FEE7FEE7FEE704480549054A064B4B
:1077700070470000AB540008ED500008A005002041
:10778000A00B0020A0070020A007002031490143E2
:10779000314A1160704770B5002100230F22C47870
:1077A00004B32D4C246804F4E064C4F5E064210AB9
:1077B000C1F10403CA40447804FA03F18478144008
:1077C00021430901254C0678A155047804F01F05D2
:1077D0000124AC4005786D11AD0005F1E025C5F838
:1077E000004109E0047804F01F050124AC401C4D61
:1077F0000678761145F8264070BD1A4A0A400243C1
:10780000154B1B1F1A60704739B1134A121D1268BD
:107810000243114B1B1D1A6006E00F4A121D12682D
:1078200082430D4B1B1D1A607047042808D14FF08E
:10783000E021096941F004014FF0E022116107E005
:107840004FF0E021096921F004014FF0E0221161BD
:10785000704700000000FA050CED00E000E400E0D5
:1078600080E100E080FFFF1F10B50446CC48844251
:1078700008D10121042000F02DFB0021042000F09C
:1078800029FB46E0C748844208D10121082000F0C6
:1078900021FB0021082000F01DFB3AE0C248844291
:1078A00008D10121102000F015FB0021102000F06C
:1078B00011FB2EE0BD48844208D10121202000F0B8
:1078C00009FB0021202000F005FB22E0B84884429B
:1078D00008D10121402000F0FDFA0021402000F0F5
:1078E000F9FA16E0B348844208D10121802000F063
:1078F000F1FA0021802000F0EDFA0AE0AE4884425F
:1079000007D10121801500F0E5FA0021A01500F053
:10791000E1FA10BD10B50121084600F0DBFA0021A4
:10792000012000F0D7FA10BD2DE9F04102460025F4
:107930000026002000230024002791F803C00CF04B
:107940000F0591F803C00CF0100CBCF1000F03D030
:1079500091F802C04CEA050591F800C0BCF1000F97
:1079600031D0146800202BE04FF0010C0CFA00F32A
:10797000B1F800C00CEA03069E4220D183004FF00C
:107980000F0C0CFA03F7BC4305FA03FC4CEA0404A1
:1079900091F803C0BCF1280F06D14FF0010C0CFA8E
:1079A00000FCC2F814C00AE091F803C0BCF1480F13
:1079B00005D14FF0010C0CFA00FCC2F810C0401CBD
:1079C0000828D1D31460B1F800C0BCF1FF0F34DD3A
:1079D000546800202EE000F1080C4FF0010808FA6E
:1079E0000CF3B1F800C00CEA03069E4221D18300DB
:1079F0004FF00F0C0CFA03F7BC4305FA03FC4CEAFA
:107A0000040491F803C0BCF1280F05D100F1080C63
:107A100008FA0CF8C2F8148091F803C0BCF1480FC2
:107A200007D100F1080C4FF0010808FA0CF8C2F871
:107A30001080401C0828CED35460BDE8F0814FF67A
:107A4000FF710180022181700421C17070470246DC
:107A5000002093680B400BB1012000E0002070472C
:107A60000146886880B2704702460020D3680B4008
:107A70000BB1012000E0002070470146C86880B2C9
:107A8000704701617047416170470AB1016100E0D0
:107A900041617047C16070474FF480320A43826190
:107AA0008161826182698269704702460020434B8E
:107AB00018684FF68073184040EA021008433F4BA5
:107AC000186070473E49C8617047F0B50A46002308
:107AD00000240021002500F00046B6F1004F02D13D
:107AE000364EF16901E0354E7168C0F3034583B24B
:107AF00000F44016B6F5401F08D121F070612F4EFA
:107B0000766826F070662D4F7E6012E000F48016D5
:107B1000B6F5801F06D1032606FA05F4A14341F00D
:107B2000706106E0460D360103FA06F6B14341F0F6
:107B3000706122B1460D360103FA06F6314300F0BA
:107B40000046B6F1004F02D11C4EF16101E01B4E20
:107B50007160F0BD30B500228B071C0F0F2303FAB4
:107B600004F2164B08338C1053F824309343134C13
:107B700008348D1044F8253023468C1053F82430F7
:107B80008C07240F00FA04F423430C4C08348D10A6
:107B900044F8253030BD0A49DC31086070470000E8
:107BA00000080140000C0140001001400014014099
:107BB00000180140001C014000200140000001406D
:107BC00000002042DF48006840F00100DD49086005
:107BD00008464068DC490840DA49486008460068C1
:107BE000DA490840D74908600846006820F4802038
:107BF00008600846406820F4FE0048604FF41F000B
:107C000088607047CF49096821F48031CD4A1160FE
:107C10001146096821F480211160B0F5803F03D03E
:107C2000B0F5802F0ED106E0C649096841F48031D5
:107C3000C44A116007E0C349096841F4A021C14A60
:107C4000116000E000BF00BF704710B50146002280
:107C5000002300204A11012A02D1BA4C236806E011
:107C6000022A02D1B74C236A01E0B64C636A01F0E4
:107C70001F02012494401C400CB1012000E00020B0
:107C800010BD38B5002000900024002500BF312031
:107C9000FFF7DBFF05460098401C00900098B0F508
:107CA000A06F01D0002DF2D03120FFF7CEFF08B138
:107CB000012400E00024204638BD01460020A14AEE
:107CC000106820F0F80040EAC10010607047A04939
:107CD00008607047024600209A4B586820F47C10D8
:107CE00042EA01031843974B586070479849086669
:107CF000704701460020934A506820F00300084373
:107D0000506070478F48406800F00C007047014693
:107D100000208C4A506820F0F00008435060704703
:107D200001460020874A506820F4E0600843506014
:107D3000704701460020834A506820F4605040EAB2
:107D4000C1005060704729B17E4A527A02437D4B90
:107D50005A7204E07B4A527A82437A4B5A727047D5
:107D60007B49D8310860704701460020754A506849
:107D700020F440400843506070470021714A20328F
:107D80001170704A82F82010012802D004280AD10C
:107D900004E001216B4A2032117005E00521694A97
:107DA0002032117000E000BF00BF704769490860D1
:107DB00070476449096A0143624A11627047654924
:107DC00044390860704730B50021002200240023A8
:107DD0005C4D6D6805F00C0121B1042905D008291E
:107DE00023D105E05C4D056022E05B4D05601FE09E
:107DF000544D6D6805F47012524D6D6805F4803471
:107E0000022505EB92421CB9544D554305600BE029
:107E10004C4D6D6805F400351DB1504D554305605E
:107E200002E04D4D5543056002E04B4D056000BF3B
:107E300000BF444D6D6805F0F0010909484D6B5CC9
:107E40000568DD4045603F4D6D6805F4E061090A55
:107E5000434D6B5C4568DD4085603A4D6D6805F4C7
:107E60006051C90A3E4D6B5C4568DD40C560354DCB
:107E70006D6805F44041890B3A4D6B5CC568B5FBF4
:107E8000F3F5056130BD29B12E4A526902432D4BED
:107E90005A6104E02B4A526982432A4B5A61704767
:107EA00029B1284A92690243264B9A6104E0254A87
:107EB00092698243234B9A61704729B1214AD26962
:107EC0000243204BDA6104E01E4AD26982431D4B13
:107ED000DA61704729B11B4AD2680243194BDA6054
:107EE00004E0184AD2688243164BDA60704729B121
:107EF000144A12690243134B1A6104E0114A1269D1
:107F00008243104B1A61704712494039086070472C
:107F10000F49C86470470B49C87170470948406AE7
:107F200040F0807007494862704701460020054ACA
:107F300092680A400AB1012000E000207047014920
:107F400088727047001002400000FFF8FFFFF6FE45
:107F5000000042428004424200127A0000093D00C3
:107F6000000100201001002010B50446FE488442A4
:107F700008D10121C014FFF7ADFF0021E014FFF785
:107F8000A9FFC4E0B4F1804F08D101210846FFF7F2
:107F9000AEFF00210120FFF7AAFFB8E0F3488442BA
:107FA00008D101210220FFF7A2FF00210220FFF7E4
:107FB0009EFFACE0EE48844208D101210420FFF787
:107FC00096FF00210420FFF792FFA0E0E9488442D9
:107FD00008D101210820FFF78AFF00210820FFF7C0
:107FE00086FF94E0E448844208D101211020FFF785
:107FF0007EFF00211020FFF77AFF88E0DF488442EF
:1080000008D101212020FFF772FF00212020FFF777
:108010006EFF7CE0DA48844208D101214014FFF76A
:1080200059FF00216014FFF755FF70E0D5488442E6
:1080300009D10121C804FFF74DFF00214FF40020B2
:10804000FFF748FF63E0D048844209D101210805C9
:10805000FFF740FF00214FF48010FFF73BFF56E091
:10806000CA48844209D101214805FFF733FF0021A6
:108070004FF40010FFF72EFF49E0C548844208D1B5
:1080800001214020FFF733FF00214020FFF72FFFA1
:108090003DE0C048844208D101218020FFF727FF3E
:1080A00000218020FFF723FF31E0BB48844208D144
:1080B00001218015FFF71BFF0021A015FFF717FF17
:1080C00025E0B648844209D101210804FFF702FFE8
:1080D00000214FF48030FFF7FDFE18E0B0488442E5
:1080E00009D101214804FFF7F5FE00214FF40030CB
:1080F000FFF7F0FE0BE0AB48844208D10121880471
:10810000FFF7E8FE00214FF48020FFF7E3FE10BDEB
:1081100000220288944B98420ED0994B98420BD083
:10812000B0F1804F08D0914B984205D0904B9842C7
:1081300002D0904B984204D14FF68F731A404B886F
:108140001A438D4B984207D08C4B984204D04FF67F
:10815000FF431A40CB881A4302808B8883850B88A3
:108160000385814B98420BD0854B984208D08B4BAE
:10817000984205D08A4B984202D08A4B984201D14E
:108180000B7A038601238382704770B50024002296
:108190000023058C4FF6FE7635400584028C8388DB
:1081A000048B4FF68F752C40B51E2C400D882C4348
:1081B000751E2A400D892A434D882A436A4DA842DC
:1081C0000BD06F4DA84208D0744DA84205D0744D15
:1081D000A84202D0734DA84213D14FF6F7752A403A
:1081E0004D892A434FF6FB752A408D882A434FF666
:1081F000FF652B404FF6FF552B408D892B43CD89D2
:108200002B4383800483CD888586028470BD70B53E
:10821000002400220023058C4FF6EF7635400584BC
:10822000028C8388048B48F6FF752C404FF6FF457F
:108230002C400D884FF6FF7606EA05252C434FF6B5
:10824000DF752A400D8906EA05152A434D8806EA9E
:1082500005152A43444DA84202D0494DA8421DD1DC
:108260004FF67F752A404D894FF6FF7606EA0515D1
:108270002A434FF6BF752A408D8806EA05152A4322
:108280004FF6FF352B404FF2FF752B408D8906EAE4
:1082900085052B43CD8906EA85052B43838004831E
:1082A000CD880587028470BD70B5002400220023AC
:1082B000058C4FF6FF6635400584028C8388848BDD
:1082C0004FF68F752C404FF6FC752C400D882C43D3
:1082D0004FF6FF552A400D894FF6FF7606EA052531
:1082E0002A434D8806EA05252A431F4DA84202D09D
:1082F000234DA8421DD14FF2FF752A404D894FF6FC
:10830000FF7606EA05252A434FF6FF352A408D8879
:1083100006EA05252A434EF6FF752B404DF6FF75FC
:108320002B408D8906EA05152B43CD8906EA0515F4
:108330002B4383808483CD888587028470BD70B58C
:10834000002200230024058C4EF6FF76354005847C
:10835000038C8488828B48F6FF752A404FF6FF45D0
:108360002A400D8820E00000002C0140000400405D
:1083700000080040000C00400010004000140040C5
:1083800000340140004C01400050014000540140C5
:1083900000180040001C0040002000400040014048
:1083A00000440140004801404FF6FF7606EA0525EB
:1083B0002A434DF6FF752B400D8906EA05352B4300
:1083C0004D8806EA05352B43FA4DA84202D0FA4DF6
:1083D000A84208D14BF6FF752C408D894FF6FF76E9
:1083E00006EA85152C4384808283CD88A0F840500E
:1083F000038470BD828B4FF2FF331A408283828BDD
:108400004FF6FF7303EA01231A4382837047F0B5E6
:108410000C461546002200210026078C4EF6FF7CF4
:1084200007EA0C070784828B018C4FF6FF7707EA77
:10843000043640F6FF473A404FF6FF7707EA052734
:108440003A434FF6FF7707EA03373A43D94FB8422A
:108450000ED0D94FB8420BD0B0F1804F08D0D74FD3
:10846000B84205D0D64FB84202D0D64FB84206D156
:108470004DF6FF77394046F48057394305E047F61B
:10848000FF57394044F48057394382830184F0BD5B
:10849000828B4FF6F3731A408283828B0A43828366
:1084A0007047F0B50C461546002200210026078CC7
:1084B0004FF6FF6C07EA0C070784828B018C4FF69E
:1084C000FF7707EA04264FF60C773A404FF6FF771E
:1084D00007EA03172F433A43B64FB8420ED0B64FC0
:1084E000B8420BD0B0F1804F08D0B44FB84205D09D
:1084F000B34FB84202D0B34FB84206D14FF6FF5740
:10850000394046F48077394305E04FF2FF57394050
:1085100044F48077394382830184F0BD028B4FF2AB
:10852000FF331A400283028B4FF6FF7303EA0123E5
:108530001A4302837047F0B50C461546002200210D
:108540000026078C4FF6EF7C07EA0C070784028BA6
:10855000018C4FF6FF7707EA041640F6FF473A40D2
:108560004FF6FF7707EA03373A434FF6FF7707EAFC
:1085700005273A438F4FB8420ED08F4FB8420BD0E9
:10858000B0F1804F08D08D4FB84205D08C4FB84223
:1085900002D08C4FB84206D14FF6DF77394046F013
:1085A0001007394305E04FF65F77394044F0100774
:1085B000394302830184F0BD028B4FF6F3731A40F6
:1085C0000283028B0A4302837047F0B50C461546BE
:1085D00000220021068C4FF6FE773E400684028B77
:1085E000018C4FF60C7632407E1C06EA03162E43B1
:1085F0003243704EB0420ED06F4EB0420BD0B0F14D
:10860000804F08D06D4EB04205D06D4EB04202D0C2
:108610006C4EB04206D14FF6FD76314044F0010673
:10862000314305E04FF6F576314044F00106314321
:1086300002830184F0BD70B505460C465D48854255
:108640000ED05D4885420BD0B5F1804F08D05B4815
:10865000854205D05A48854202D05A48854200D109
:1086600000E000BF208850B92389A288618828468D
:10867000FFF7ABFFE1882846FFF79EFF25E0208843
:1086800004280AD12389A28861882846FFF753FF6E
:10869000E1882846FFF742FF17E0208808280AD122
:1086A0002389A28861882846FFF7FBFEE1882846D7
:1086B000FFF7EEFE09E02389A28861882846FFF7CC
:1086C000A6FEE1882846FFF795FE70BD2DE9F04132
:1086D00005460C4600260127608808B9022600E0FE
:1086E0000026A088012801D1022700E00127208868
:1086F000A0B92389A28861882846FFF766FFE18830
:108700002846FFF759FF23893A4631462846FFF7A6
:1087100012FFE1882846FFF701FF13E02389A288B2
:1087200061882846FFF707FFE1882846FFF7F6FE35
:1087300023893A4631462846FFF747FFE188284615
:10874000FFF73AFFBDE8F0810A884B881A438B880F
:108750001A43CB881A430B891A434B891A438B89D6
:108760001A43A0F8442070474FF6FF718180002122
:108770000180C180418001727047002101804180E9
:108780008180C180018141818181C1817047002147
:1087900001804180012181800021C18001817047D9
:1087A0000021018041808180C180018141818181DE
:1087B00070470000002C01400034014000040040DC
:1087C00000080040000C004021B1028842F0010284
:1087D000028004E002884FF6FE731A400280704760
:1087E00031B1B0F8442042F40042A0F8442005E042
:1087F000B0F84420C2F30E02A0F8442070471AB12A
:1088000083890B43838102E083898B438381704793
:108810008182704741EA0203A0F8483070471AB1DC
:1088200083890B43838102E083898B438381704773
:1088300001894FF6F8721140018170470A46002104
:1088400001894FF68F73194011430181704730B58C
:1088500004460D4629462046FFF7F0FF208940F0E8
:108860000700208130BD2DE9F04104460D46164633
:108870001F46602D06D13B46012231462046FFF7B8
:108880005AFE05E03B46012231462046FFF79DFE99
:1088900029462046FFF7D2FF208940F007002081BB
:1088A000BDE8F08130B50C4600210189C9B24FF610
:1088B000FF7505EA0325154325432943018130BD92
:1088C0002DE9F04105460E461746984600244346DA
:1088D0003A4631462846FFF7E5FF2C894FF6F870F7
:1088E000044044F007044FF68F70044044F07004D5
:1088F0002C81BDE8F081F0B504460D4616461F46B2
:108900003B46324629462046FFF7CCFF208940F4FB
:1089100080402081F0BD0185828270470A46002197
:1089200001884FF68F731940114301807047F0B5ED
:108930000C4615461E460021002200230189028BA9
:10894000038C4FF6F877394021434FF6FC473A4005
:1089500040F201173A434FF6DD773B404FF6FF7781
:1089600007EA06172F433B43018102830384F0BDCE
:108970000A460021018B4FF68F7319401143018382
:1089800070470A460021018B48F6FF7319404FF6E5
:10899000FF7303EA02231943018370470A4600214B
:1089A000818B4FF68F7319401143818370470A46BC
:1089B0000021818B48F6FF7319404FF6FF7303EADD
:1089C000022319438183704721B1028842F080025B
:1089D000028004E002884FF67F731A4002807047DD
:1089E00021B1828842F00402828004E082884FF63E
:1089F000FB731A408280704721B1828842F00802DE
:108A0000828004E082884FF6F7731A4082807047B4
:108A100021B1828842F00102828004E082884FF610
:108A2000FE731A40828070470A460021018B4FF680
:108A3000F77319401143018370470A460021018BE7
:108A40004FF2FF7319404FF6FF7303EA02231943F5
:108A5000018370470A460021818B4FF6F773194056
:108A60001143818370470A460021818B4FF2FF73C7
:108A700019404FF6FF7303EA0223194381837047BD
:108A80000A460021018B4FF6FB7319401143018305
:108A900070470A460021018B4FF6FF3319404FF60D
:108AA000FF7303EA02231943018370470A4600213A
:108AB000818B4FF6FB7319401143818370470A463F
:108AC0000021818B4FF6FF3319404FF6FF7303EA05
:108AD00002231943818370470A460021018B4FF618
:108AE0007F7319401143018370470A460021018BAF
:108AF000C1F30E014FF6FF7303EA0223194301830A
:108B000070470A460021818B4FF67F73194011434D
:108B1000818370470A460021818BC1F30E014FF615
:108B2000FF7303EA02231943818370470A46002139
:108B3000018C4FF6FD7319401143018470470A46BA
:108B40000021018C4FF6F7731940114301847047DF
:108B50000A460021018C4FF6DF7319404FF6FF7370
:108B600003EA02131943018470470A460021018C6D
:108B70004FF67F7319404FF6FF7303EA0213194350
:108B8000018470470A460021018C4FF6FF531940BB
:108B90004FF6FF7303EA02231943018470470A4624
:108BA0000021018C4FF2FF7319404FF6FF7303EA67
:108BB00002231943018470470A460021018C4DF6B7
:108BC000FF7319404FF6FF7303EA02331943018420
:108BD000704730B5002301248C40A3B2048C9C4321
:108BE0000484048C02FA01F5ADB22C43048430BD38
:108BF00030B5002304248C40A3B2048C9C4304842D
:108C0000048C02FA01F5ADB22C43048430BD70B57A
:108C10000346002000241846183001258D40ACB2D0
:108C20001D8CA5431D8409B1082909D100EB610001
:108C3000056825F0700505600568154305600EE0C0
:108C40000D1FC5F34E052844056825F4E045056071
:108C500005684FF6FF7606EA02263543056070BDCB
:108C600021B1028842F00202028004E002884FF63D
:108C7000FD731A400280704721B1028842F004025D
:108C8000028004E002884FF6FB731A4002807047AE
:108C900021B1828842F08002828004E082884FF60F
:108CA0007F731A408280704702884FF6F7731A402C
:108CB000028002880A430280704782884FF68F73D1
:108CC0001A40828082880A438280704702894FF668
:108CD000F8731A40028102890A43028170470289AF
:108CE0004FF67F731A40028102890A43028170475E
:108CF00081847047818570478186704701877047FE
:108D000081877047A0F84010704702884FF6FF43F4
:108D10001A40028002880A43028070470146888E0A
:108D200070470146088F70470146888F704701469B
:108D3000B1F8400070470146888C70470146088DA5
:108D4000704702460020138A0B400BB1012000E05F
:108D500000207047CA430282704730B502460020A7
:108D600000230024158A05EA0103958905EA010418
:108D700013B10CB1012000E0002030BDCA430282D3
:108D80007047000010B50120FFF7BEF80020FFF784
:108D9000BBF810BD2A49086070472949091F0860BF
:108DA0007047274984310860704701460020254AF2
:108DB00010884FF67F4210400843224A10807047C7
:108DC000014600201F4A10884FF680721040084369
:108DD0001C4A1080704708B500220092194A2C3AAC
:108DE0000092009A02440092009A116008BD08B5F2
:108DF00001460020009013482C3800900098084449
:108E000000900098008808BD0D489C300068C0B2F2
:108E100070470C480830008840F0010009490831CB
:108E2000088070470648A0300068C0B27047054807
:108E30000830008840F0020002490831088070477D
:108E400004860D422C6C004029B1504A128802431E
:108E50004E4B1A8004E04D4A128882434B4B1A80D5
:108E600070474A48001D008840F010004749091D1E
:108E7000088070474548001D00884FF6EF71084094
:108E80004249091D08807047002140481C30018874
:108E9000001F008841EA0040704700B50246FFF716
:108EA000E0FF100C394918310880091D0A80FFF7CE
:108EB000E1FF00BD00B50246FFF7D3FFC2F3034058
:108EC000324908310880091D0A80FFF7D3FF00BD31
:108ED00000B50246FFF7C5FF100C2C492031088071
:108EE000091D0A80FFF7C6FF00BD00202749103189
:108EF00009880907080B2549143109880843704778
:108F000000BF2248001D008800F020000028F8D093
:108F100070471E48001D00884FF6F77108401B4936
:108F2000091D088000BF1948001D008800F00800D6
:108F30000028F8D0704701460020144A121D1288FC
:108F40000A400AB1012000E0002070470F49091DC6
:108F5000098881430D4A121D118070470146002087
:108F60000A4A121D12880A40D0B2084A12880A40E2
:108F700012B108B1012000E0002070470349091D2B
:108F800009888143014A121D118070470028004062
:108F900010B501210807FEF7AAFF00214FF080500D
:108FA000FEF7A5FF10BD2A490862704728490861ED
:108FB000704701460020274A106820F0E00008436F
:108FC000106070472249A0310860704710B5024612
:108FD0000020204B186820F00300104318601E4B3F
:108FE0001B6843F004031C4C2360012901D130BFEE
:108FF00000E020BF184B1B6823F00403164C2360CD
:1090000010BD1448006840F004001249086008468A
:10901000006840F0020008600F48006840F004005B
:109020000D49086000BF00BF30BF704701460020F7
:10903000084A52680A400AB1012000E00020704747
:109040000449096841EA8001024A11607047000042
:1090500000000E420070004010ED00E00020444986
:109060000860091D0860091D0860091D0860414865
:109070003F4914310860704700213D498279002A38
:109080003AD00A46126803689A430B461A600A1DD2
:10909000126803689A430B1D1A60027911440A682A
:1090A00003681A430A60324A0832126803689A4316
:1090B0002F4B08331A601A1D126803689A432C4B11
:1090C0000C331A604279102A0ED11A1F12680368F5
:1090D0001A43274B08331A601A1D126803681A4393
:1090E000234B0C331A600DE02149427911440A6880
:1090F00003681A430A6005E0027911440A680368AC
:109100009A430A6070470021016001710C2141718E
:109110000021817170471649103109680143144AD2
:1091200010321160704701460020114A1432126853
:109130000A400AB1012000E0002070470C491431B8
:1091400008607047014600200022094B1B6803EAB3
:109150000102074B14331B680B4013B10AB1012005
:1091600000E0002070470249143108607047000099
:1091700000040140FFFF0F007047704770477546BD
:1091800000F028F8AE4605006946534620F0070077
:10919000854618B020B5FEF7E7FABDE820404FF04D
:1091A00000064FF000074FF000084FF0000B21F0D1
:1091B0000701AC46ACE8C009ACE8C009ACE8C0099E
:1091C000ACE8C0098D4670470446AFF300802046E6
:1091D000FBF7D3FF004870473C05002001491820E9
:1091E000ABBEFEE726000200704700000000000052
:1091F000000000000000000000003F4000000000F0
:109200000000000030004000300040000000090075
:109210000BC03D000BC03D00090018C024407FE09A
:10922000224031800000180024C01B000D80324015
:10923000018003801C4027401C8007400040100034
:1092400060000000000000000000000000000000BE
:109250001F80204040200000402020401F80000050
:109260000000090006001F8006000900000004003D
:1092700004003F80040004000000001000600000B3
:1092800000000000000004000400040004000400CA
:10929000000000000040000000000000000000206E
:1092A00001C006003800400000001F802040204020
:1092B00020401F800000000010403FC00040000020
:1092C000000018C0214022402440184000001080B7
:1092D0002040244024401B80000002000D001100AB
:1092E0003FC0014000003C802440244024402380B3
:1092F00000001F80244024403440038000003000E0
:10930000200027C03800200000001B80244024409B
:1093100024401B8000001C0022C0224022401F80ED
:1093200000000000000008400000000000000000F5
:1093300000000460000000000000000004000A00BB
:1093400011002080404009000900090009000900BF
:10935000000000004040208011000A0004001800B6
:10936000200023402400180000001F8020402740D8
:1093700029401F400000004007C039000F0001C015
:10938000004020403FC0244024401B8000001F803C
:109390002040204020403080000020403FC020403E
:1093A00020401F80000020403FC024402E4030C09D
:1093B000000020403FC024402E00300000000F007D
:1093C0001080204022403380020020403FC0040033
:1093D00004003FC02040204020403FC020402040AB
:1093E00000000060202020203FC0200020002040FE
:1093F0003FC024400B0030C0204020403FC02040F0
:109400000040004000C03FC03C0003C03C003FC0E3
:10941000000020403FC00C4023003FC020001F80C0
:109420002040204020401F80000020403FC02440BA
:109430002400180000001F802140214020E01FA0D0
:10944000000020403FC02440260019C0004018C042
:1094500024402440224031800000300020403FC0A2
:1094600020403000000020003F80004000403F804E
:10947000200020003E0001C0070038002000380016
:1094800007C03C0007C038000000204039C006007B
:1094900039C0204000002000384007C0384020007C
:1094A0000000304021C02640384020C000000000AD
:1094B00000007FE0402040200000000070000C0011
:1094C0000380004000000000402040207FE00000BA
:1094D00000000000200040002000000000000010FC
:1094E00000100010001000100010000000004000EC
:1094F000000000000000000002800540054003C09D
:10950000004020003FC004400440038000000000F1
:109510000380044004400640000000000380044033
:1095200024403FC000400000038005400540034048
:109530000000000004401FC0244024402000000020
:1095400002E0055005500650042020403FC0044072
:10955000040003C000400000044027C00040000099
:10956000000000100010041027E000000000204060
:109570003FC00140070004C00440204020403FC0DD
:1095800000400040000007C0040007C0040003C002
:109590000000044007C00440040003C00040000075
:1095A00003800440044003800000041007F00450CE
:1095B000044003800000000003800440045007F0D2
:1095C0000010044007C00240040004000000000036
:1095D00006400540054004C00000000004001F8054
:1095E000044000400000040007800040044007C021
:1095F00000400400070004C00180060004000600CB
:1096000001C0070001C006000000044006C00100C0
:1096100006C0044000000410071004E001800600AA
:1096200004000000044005C00640044000000000A3
:10963000000004007BE0402000000000000000006B
:10964000FFF000000000000040207BE0040000006C
:10965000000040008000400020002000400000008A
:1096600000000000000000000000000000000000FA
:10967000000000001FCC000C0000000000000000F3
:109680000800300060000800300060000000022088
:1096900003FC1E20022003FC1E200220000000000C
:1096A0000E1811043FFF10840C78000000000F001A
:1096B00010840F3800C00778188400780000007804
:1096C0000F8410C411240E9800E4008400080800E0
:1096D00068007000000000000000000000000000B2
:1096E0000000000007E018182004400200000000FD
:1096F00040022004181807E00000000000000240AB
:10970000024001800FF00180024002400000008012
:10971000008000800FF800800080008000000001C1
:10972000000D000E0000000000000000000000001E
:1097300000800080008000800080008000800000A9
:10974000000C000C00000000000000000000000001
:1097500000060018006001800600180020000000CC
:1097600007F0080810041004080807F000000000C3
:10977000080408041FFC00040004000000000000AE
:109780000E0C10141024104411840E0C0000000064
:109790000C1810041104110412880C700000000051
:1097A00000E00320042408241FFC00240000000023
:1097B0001F9810841104110410881070000000001C
:1097C00007F00888110411041888007000000000D8
:1097D0001C00100010FC13001C0010000000000012
:1097E0000E3811441084108411440E38000000001B
:1097F0000700088C10441044088807F0000000009F
:1098000000000000030C030C00000000000000003A
:109810000000000101060000000000000000000040
:1098200000800140022004100808100400000220FB
:10983000022002200220022002200220000000005C
:1098400010040808041002200140008000000000FD
:109850000E001200100C106C10800F00000003E0CE
:109860000C1813E4142417C4082807D000000004BF
:10987000003C03C41C40074000E4001C000410042A
:109880001FFC1104110411040E880070000003E095
:109890000C1810041004100410081C100000100410
:1098A0001FFC100410041004080807F00000100446
:1098B0001FFC1104110417C4100408180000100440
:1098C0001FFC1104110017C010000800000003E085
:1098D0000C181004100410441C7800400000100400
:1098E0001FFC10840080008010841FFC1004000006
:1098F000100410041FFC10041004000000000003FA
:109900000001100110011FFE1000100000001004E3
:109910001FFC110403801464181C100400001004C0
:109920001FFC1004000400040004000C00001004DC
:109930001FFC1F0000FC1F001FFC1004000010048F
:109940001FFC0C04030000E010181FFC100007F0BF
:109950000808100410041004080807F000001004A0
:109960001FFC10841080108010800F00000007F092
:10997000081810241024101C080A07F20000100414
:109980001FFC1104110011C011300E0C0004000066
:109990000E1C11041084108410441C3800001800A0
:1099A000100010041FFC100410001800000010002C
:1099B0001FF810040004000410041FF81000100029
:1099C0001E0011E0001C007013801C0010001FC05E
:1099D000103C00E01F0000E0103C1FC0000010041D
:1099E000180C163401C001C01634180C10041000F5
:1099F0001C00130400FC13041C00100000000804E9
:109A0000101C1064108413041C04101800000000C3
:109A1000000000007FFE4002400240020000000003
:109A200030000C0003800060001C000300000000F8
:109A30004002400240027FFE0000000000000000E3
:109A40000000200040004000400020000000000115
:109A500000010001000100010001000100010000FF
:109A60004000400020000000000000000000000056
:109A70000098012401440144014400FC000410004A
:109A80001FFC008801040104008800700000000031
:109A90000070008801040104010400880000000037
:109AA000007000880104010411081FFC000400007C
:109AB00000F8014401440144014400C800000000D2
:109AC000010401040FFC110411041100180000002E
:109AD00000D601290129012901C90106000010044D
:109AE0001FFC008401000100010400FC00040000D0
:109AF0000104190419FC0004000400000000000027
:109B0000000300010101190119FE0000000010040A
:109B10001FFC0024004001B4010C010400000000FF
:109B2000100410041FFC00040004000000000104E5
:109B300001FC0104010001FC0104010000FC01041E
:109B400001FC008401000100010400FC000400008D
:109B500000F8010401040104010400F800000101FF
:109B600001FF00850104010400880070000000006E
:109B70000070008801040104010501FF00010104D7
:109B8000010401FC008401040100018000000000C8
:109B900000CC0124012401240124019800000000CC
:109BA0000100010007F801040104000000000100A9
:109BB00001F8000400040004010801FC0004010095
:109BC00001800170000C001001600180010001F0B3
:109BD000010C003001C00030010C01F00100000058
:109BE0000104018C00740170018C0104000001016A
:109BF00001810171000E0018016001800100000068
:109C00000184010C013401440184010C00000000B6
:109C100000000000000001003EFC40024002000085
:109C2000000000000000FFFF000000000000000036
:109C3000400240023EFC0100000000000000000065
:109C400060008000800040004000200020000003F1
:109C5000030601040602050003051F1C1F1E1F1E2C
:109C60001F1F1E1F1E1F0000889C000800000020F0
:109C700014010000285100089C9D000814010020D8
:109C80008C0A0000445100080000000000A24A04B1
:109C9000000000000000000001020304060708099C
:109CA000000000000000000000000000FC445454CC
:109CB0005455FE545454F444440000000000000085
:109CC0000000000000000000000040300F00FD45D3
:109CD000454547454545FD000000000000000000E7
:109CE00000000000000000000000000000FE222232
:109CF000222222222222FE0000000000000000009A
:109D0000000000000000000000008040300F020250
:109D10000202020242827F000000000000000000F8
:109D20000000000000000000000000FE0282BAAA4D
:109D3000AAAAAAAABA8202FE00000000000000003F
:109D40000000000000000000000000FF404F6050D5
:109D500048464850604F40FF0000000000000000EF
:109D600000000000000000000000000000000000F3
:109D700000000000000000000000000000000000E3
:109D800000000000000000000000000001020304C9
:0C9D90000102030406070809020406088B
:04000005080050EDB2
:00000001FF
