:020000040800F2
:10000000800C0020393B0008C5060008C706000820
:10001000CB060008CF060008D30600080000000049
:10002000000000000000000000000000D7060008EB
:10003000D906000800000000DB060008DD06000805
:10004000533B0008533B0008533B00084131000874
:10005000533B0008533B000899380008533B000805
:10006000533B0008533B0008533B0008533B000838
:10007000533B0008533B0008533B0008533B000828
:10008000533B0008533B0008533B0008533B000818
:10009000533B0008533B0008533B0008533B000808
:1000A000533B0008533B0008533B0008533B0008F8
:1000B000533B0008BF370008533B0008533B000880
:1000C000533B0008533B0008533B0008533B0008D8
:1000D000533B0008AF3A0008533B0008533B00086D
:1000E000533B0008533B0008533B000800F002F864
:1000F00000F03FF80AA090E8000C82448344AAF183
:100100000107DA4501D100F034F8AFF2090EBAE880
:100110000F0013F0010F18BFFB1A43F0010318473B
:1001200084660000A4660000103A24BF78C878C135
:10013000FAD8520724BF30C830C144BF04680C60ED
:10014000704700000023002400250026103A28BF35
:1001500078C1FBD8520728BF30C148BF0B60704739
:10016000782905F03984002070471FB51FBD10B5F0
:1001700010BD05F085FD1146FFF7F7FF00F01EF9F1
:1001800005F0A3FD03B4FFF7F2FF03BC03F034FC5A
:1001900010B501F048FB4FF4487003F000FC4FF439
:1001A000487003F0FCFB01F08DFB4FF4487003F046
:1001B000F6FB4FF4487003F0F2FB4FF4487003F085
:1001C000EEFB4FF4487003F0EAFB01F055FC4FF4EE
:1001D000487003F0E4FB4FF4487003F0E0FB4FF489
:1001E000487003F0DCFB4FF4487003F0D8FB01F0DB
:1001F0001DFD4FF4487003F0D2FB4FF4487003F03C
:10020000CEFB4FF4487003F0CAFB4FF4487003F084
:10021000C6FB01F0BDFD4FF4487003F0C0FB4FF486
:10022000487003F0BCFB4FF4487003F0B8FB4FF488
:10023000487003F0B4FB01F023FF4FF4487003F063
:10024000AEFB4FF4487003F0AAFB4FF4487003F084
:10025000A6FB4FF4487003F0A2FB02F09DF84FF4A8
:10026000487003F09CFB4FF4487003F098FB4FF488
:10027000487003F094FB4FF4487003F090FB01F0DA
:1002800035FA10BD10B50C23D8A20021084602F0A3
:100290007FFB0C23D7A21946002002F079FB0C2328
:1002A000D7A21821002002F073FB0C23D4A2242132
:1002B000002002F06DFB0C23D1A23021002002F0BF
:1002C00067FB02F01EFA4FF47A7003F068FB4FF4FC
:1002D0007A7003F064FB4FF47A7003F060FB4FF424
:1002E0007A7003F05CFB02F04BFA00BF00F070FE86
:1002F0000028FBD10C23C6A20021084602F048FBCF
:1003000002F0FFF94FF47A7003F049FB4FF47A7072
:1003100003F045FB00BF01F0CEF90028FBD10C2310
:10032000BEA2194602F034FB02F0EBF94FF47A70EA
:1003300003F035FB4FF47A7003F031FB00BF02F09D
:1003400019FE0028FBD10C23B7A2182102F020FBD4
:1003500002F0D7F94FF47A7003F021FB4FF47A7072
:1003600003F01DFB00BF03F0ECF80028FBD10C23C9
:10037000AFA2242102F00CFB02F0C3F94FF47A7013
:1003800003F00DFB4FF47A7003F009FB00BF03F09C
:10039000C4F90028FBD10C23A8A21821402002F0A8
:1003A000F7FA02F0AEF94FF47A7003F0F8FA4FF46E
:1003B0007A7003F0F4FA02F0E3F910BD08B572B6F2
:1003C0004FF4A06003F0D8FB03F0ACFA4FF4E13037
:1003D00003F021FB41F61F4141F2873003F0C2F9DF
:1003E00000F096FF00F03AFE02F0E2FE02F084FB1D
:1003F00002F0C0FD03F05AFA00F0BCFD00F0A4FFCB
:1004000002F0F0FE03F089F901F070F902F0B8F99A
:100410008DA005F0ADFAD22003F018F88D490860E0
:10042000022003F0BCFA8B480068C821B0FBF1F24F
:1004300001FB120020B9FFF725FFFFF7A9FE04E03A
:1004400085480068401C8449086083480178D220B0
:1004500003F026F8022003F0A2FA62B6C5E00421F8
:100460007E4803F0EAFCE0B900F08CFD0C237CA28E
:100470001821002002F08CFA0C237BA230210020EE
:1004800002F086FA0C20032300907A48027830218B
:10049000552002F033FA7748007801F031F902F084
:1004A00030F900F0ECFD744880787449097888428E
:1004B00071D071488078714908700C2000906E48A6
:1004C000828804230021084602F018FA01200C2338
:1004D0002F2200210090182002F0B6F90C20009085
:1004E00065488279022300211E2002F007FA0120CC
:1004F0000C232F22002100902A2002F0A5F90C20C5
:1005000000905D48C27902230021302002F0F6F904
:100510000C2000905848027802230C21002002F0A1
:10052000EDF901200C233A2219460090184602F0FA
:100530008BF90C2000905048427802230C211220A5
:1005400002F0DCF901200C233A22194600901E200B
:1005500002F07AF90C2000904748827802230C219F
:10056000242002F0CBF94448007A072837D2DFE88C
:1005700000F0040B131A21282F000C2340A20021A5
:10058000422002F005FA2AE00C233FA2002142207B
:1005900002F0FEF923E023E00C233DA200214220DB
:1005A00002F0F6F91BE00C233BA20021422002F0EE
:1005B000EFF914E00C233BA20021422002F0E8F9FD
:1005C0000DE00C233AA20021422002F0E1F906E0FE
:1005D0000C2339A20021422002F0DAF900BF00BF4B
:1005E00002F08FF8022003F0DAF938E74841505062
:1005F0005900000045564552592044415900000019
:10060000424920594520534845204A4900000000EE
:100610004951533236335F4F4B0000004C50353553
:100620003233315F4F4B2000525443204F4B000078
:100630004154323443323536204F4B004448543114
:1006400031204F4B000000005265616479210D0A92
:100650000000000008000020040000200008014005
:1006600077656C636F6D65006272696768746E654B
:1006700073733A00210000204C0500200000002088
:1006800053756E64617900004D6F6E64617900008E
:1006900054756573646179005765646E6573646150
:1006A000790000005468757273646179000000007D
:1006B000467269646179000053617475726461798E
:1006C00000000000704700BFFEE700BFFEE700BF6C
:1006D000FEE700BFFEE770477047704770470000B5
:1006E0000CB50020019000906C48006840F4803008
:1006F0006A49086000BF6948006800F40030009053
:100700000198401C0190009818B90198B0F5A06FAD
:10071000F1D16248006800F4003010B1012000906F
:1007200001E0002000900098012843D15C48006857
:1007300040F010005A4908600846006820F00300A5
:1007400008600846006840F00200086053484068AE
:10075000524948600846406848600846406840F48E
:10076000806048600846406820F47C104860084675
:10077000406840F4E81048600846006840F0807027
:10078000086000BF4548006800F000700028F9D0FC
:100790004248406820F003004049486008464068ED
:1007A00040F00200486000BF3C48406800F00C0088
:1007B0000828F9D10CBD10B5FFF792FF10BD10B598
:1007C0003648006840F00100344908600846406837
:1007D00034490840314948600846006832490840B9
:1007E0002E4908600846006820F48020086008460A
:1007F000406820F4FE0048604FF41F008860FFF757
:10080000DAFF4FF000602949086010BD10B50021E3
:1008100000200022214B5B6803F00C0121B1042968
:1008200006D0082928D107E0214B224C236027E07D
:100830001F4B204C236023E0184B5B6803F47010BF
:10084000164B5B6803F48032022303EB904022B91D
:10085000194B4343174C23600DE0104B5B6803F4C6
:10086000003323B1144B4343124C236003E0104B7D
:100870004343104C236003E00D4B0E4C236000BF3C
:1008800000BF064B5B68C3F303130C4CE15C094BE0
:100890001B68CB40074C236010BD000000100240D5
:1008A000002002400000FFF8FFFFF6FE08ED00E028
:1008B00000127A000C00002000093D00100000200A
:1008C00008B501210C2003F0E1FCC020ADF80000C8
:1008D00010208DF8030003208DF802006946FD48C2
:1008E00003F018FA0420ADF8000028208DF803006A
:1008F00003208DF802006946F74803F00BFA402107
:10090000F44803F0B4FA8021F24803F0B0FA04206E
:1009100003F045F808BD08B54020ADF800001420EC
:100920008DF8030003208DF802006946E94803F0C2
:10093000F1F908BD08B54020ADF8000004208DF89D
:1009400003006946E34803F0E5F908BD08B58020D7
:10095000ADF8000014208DF8030003208DF802008C
:100960006946DC4803F0D6F908BD08B58020ADF82B
:10097000000004208DF803006946D64803F0CAF948
:1009800008BD08B50420ADF8000028208DF803004C
:100990006946D14803F0BEF908BD10B5FFF7BBFFAB
:1009A000FFF7D4FFFFF7EDFF00BF0421CA4803F0B3
:1009B00044FA0028F9D1FFF7BDFF00BF4021C54828
:1009C00003F03BFA0028F9D08021C24803F04FFA27
:1009D00000BF8021BF4803F030FA0028F9D004207E
:1009E00002F0B9FF8021BB4803F043FAFFF7AEFFE6
:1009F000042002F0B0FFFFF78EFF4021B54803F05E
:100A000038FA10BD10B500BF0421B34803F015FA41
:100A10000028F9D1FFF78EFF00BF4021AD4803F059
:100A20000CFA0028F9D08021AA4803F020FA00BF70
:100A30008021A84803F001FA0028F9D0042002F030
:100A40008AFF8021A34803F014FAFFF77FFF0420F8
:100A500002F081FFFFF75FFF40219E4803F009FA93
:100A600010BD10B580219B4803F003FAFFF76EFF1D
:100A7000012002F070FFFFF75DFF00BF40219548A5
:100A800003F0DBF90028F9D0012002F064FF802197
:100A9000904803F0ECF900BF80218E4803F0CDF9B7
:100AA0000028F9D0012002F056FF10BD70B50024D7
:100AB000FFF75BFF002528E0012002F04CFFFFF765
:100AC00039FF012002F047FF00BF4021814803F0B9
:100AD000B4F90028F9D06006040E012002F03BFFB3
:100AE00080217C4803F0A9F908B1601CC4B2012040
:100AF00002F031FFFFF70FFF4021764803F0B9F90C
:100B0000012002F028FF681CC5B2082DD4DB80212B
:100B1000704803F0AEF9FFF719FF00BF80216D4860
:100B200003F08BF90028F9D1022002F014FFFFF73F
:100B300001FF00BF4021674803F07FF90028F9D08A
:100B4000022002F008FFFFF7E6FE4021614803F0B3
:100B500090F9032002F0FFFE204670BD70B500241E
:100B6000FFF703FF002528E0012002F0F4FEFFF765
:100B7000E1FE012002F0EFFE00BF4021554803F0E6
:100B80005CF90028F9D06006040E012002F0E3FEB3
:100B90008021504803F051F908B1601CC4B2012013
:100BA00002F0D9FEFFF7B7FE40214A4803F061F991
:100BB000012002F0D0FE681CC5B2082DD4DB8021D4
:100BC000444803F054F900BF8021424803F035F94E
:100BD0000028F9D0022002F0BEFEFFF7ABFE00BFF6
:100BE00040213C4803F029F90028F9D0022002F006
:100BF000B2FEFFF790FE4021364803F03AF9032099
:100C000002F0A9FE204670BD2DE9F04104460A26F7
:100C1000002730E004F0800058B180212D4803F017
:100C200026F900BF80212B4803F007F90028F9D0EE
:100C300005E08021274803F01CF9FFF787FE6006D6
:100C4000040E012002F087FEFFF774FE00BF402172
:100C5000204803F0F2F80028F9D0042002F07BFECF
:100C6000FFF759FE40211B4803F003F9022002F070
:100C700072FE781CC7B2082FCCDB022002F06BFE9C
:100C8000FFF773FEFFF756FE00BF4021114803F047
:100C9000D4F80028F9D0012002F05DFE1EE0701E9D
:100CA000C6B20A2002F057FEC6B9012002F053FE78
:100CB000FFF731FE4021074803F0DBF8012002F086
:100CC0004AFE00258021034803F0D1F82846BDE8FC
:100CD000F0810000000C01400008014080210C4818
:100CE00003F0ABF80028DAD1012002F034FEFFF760
:100CF00012FE4021064803F0BCF8012002F02BFE52
:100D000001258021024803F0B2F82846DFE7000001
:100D1000000C01402DE9F04105460E461746984665
:100D2000002101EB4501C8B2FFF76EFF3046FFF727
:100D30006BFF002404E0385DFFF766FF601CC4B25F
:100D40004445F8DBBDE8F0812DE9F04106468846D0
:100D500017461C46002101EB4601C8B2FFF754FFBD
:100D60004046FFF751FFFFF74DFE012101EB460121
:100D7000C8B2FFF749FF012C09DD002504E0FFF7A9
:100D800095FE7855681CC5B2601EA842F7DCFFF7D7
:100D9000E5FE611E7854BDE8F08110B5FFF7FDFD5A
:100DA00002239E4A00214420FFF7CEFFFFF759FEA1
:100DB00000209A490870FFF7F0FD0123974A194671
:100DC0004420FFF7A7FFFFF74CFE0F209349087060
:100DD000FFF7E3FD0123914A0D214420FFF79AFF1D
:100DE000FFF73FFE08208D4908702020487088706A
:100DF000C8700820087100204871142088710420F0
:100E0000C871FFF7CAFD0823844A0A214420FFF76E
:100E100081FFFFF726FE00208049087030204870CF
:100E200040208870FFF7B9FD03237C4A0B21442042
:100E3000FFF770FFFFF715FE08207849087048702B
:100E40008870C870FFF7A9FD0423744A0721442065
:100E5000FFF760FFFFF705FE0020704908701D20B6
:100E60004870402088700020C87003200871FFF788
:100E700094FD0523694A09214420FFF74BFFFFF742
:100E8000F0FD512065490870492048704A2088705B
:100E90004920C870FFF781FD0423604A08214420DF
:100EA000FFF738FFFFF7DDFD00205C490870FFF712
:100EB00074FD0123594A0B214420FFF72BFFFFF754
:100EC000D0FD0520554908705120487033208870A6
:100ED000FFF763FD0323514A0C214420FFF71AFF5B
:100EE000FFF7BFFD10204D490870FFF756FD0123A5
:100EF0004A4A09214420FFF70DFFFFF7B2FD00BF6A
:100F00000A2002F04CFDFFF748FD0123434A194631
:100F10004420FFF719FFFFF7A4FD4048007800F0D8
:100F200004000428ECD000203C4908705D20487083
:100F3000422088700020C87003200871FFF72DFD43
:100F40000523364A09214420FFF7E4FEFFF789FD17
:100F500010BD10B50020314908701D204870FFF702
:100F60001CFD02232D4A09214420FFF7D3FEFFF781
:100F700078FD10BD10B5FFF7A3FCFFF7EAFFFFF700
:100F80000CFF10BD10B5FFF708FD0223234A012115
:100F90004420FFF7D9FEFFF735FD04231F4A921CBA
:100FA00003214420FFF7D0FEFFF72CFD03231B4A4B
:100FB000D21C02214420FFF7C7FEFFF752FD17485D
:100FC0008078174908701548C0781649087010BD18
:100FD00010B5FFF7E2FC0223104A00214420FFF77E
:100FE000B3FEFFF73EFD0020044612E00B48005D13
:100FF0003C2809D00948015D0BA004F0B9FC0CA005
:1010000004F0B6FC012010BD10A004F0B1FC0020DB
:10101000F9E7022CEADB00BFF5E70000240100201D
:101020002000002021000020307825303258200098
:10103000B4EDCEF33AB6C1B3F6D3EBBBFAC6F7B50F
:10104000C4CAFDBEDDB2BBD2BBD6C200B6C1B2E2DD
:10105000CAD4B3C9B9A60D0A0000000008B5012121
:101060000C2003F013F94FF44870ADF8000048204D
:101070008DF803006946924802F04CFE08BD10B599
:1010800020218F4802F0D9FE002863D1052002F00C
:1010900086FC20218A4802F0D0FE00285AD18948D7
:1010A0000078401C8749087000BF2021844802F066
:1010B000C4FE0028F9D08348007801280ED10C2303
:1010C00081A21946122001F063FC0C237FA2182193
:1010D000002001F05DFC022002F061FC79480078FC
:1010E00002280ED10C2378A21946002001F050FCF2
:1010F0000C2378A21821002001F04AFC022002F003
:101100004EFC70480078032808D10C2374A21821E3
:10111000002001F03DFC022002F041FC694800780B
:10112000042808D10C2370A21821002001F030FC03
:10113000022002F034FC6348007805280AD1002020
:10114000604908700C236BA2182101F021FC0220D9
:1011500002F025FC5B48007800287DD04FF4007138
:10116000574802F06AFE00284DD1052002F017FC16
:101170004FF40071524802F060FE002843D100BFD6
:101180004FF400714E4802F058FE0028F8D04D4848
:10119000007801280AD15A480068401C5849086064
:1011A000084600683C2801D10020086045480078C6
:1011B00002280AD153480068401C5249086008467A
:1011C0000068182801D1002008603E4800780328F4
:1011D0000AD14D480068401C4B4908600846006829
:1011E0003C2801D1002008604848006803280AD143
:1011F00046480068401C45490860084600681828B1
:1012000001D1002008604FF480712D4802F015FED6
:1012100000284FD1052002F0C2FB4FF4807128480E
:1012200002F00BFE002845D100BF4FF48071244826
:1012300002F003FE0028F8D02248007801280AD1E5
:101240002F480068401E2E49086008460068401C70
:1012500008B93B20086000E02CE01A48007802281A
:101260000AD128480068401E2649086008460068E0
:10127000401C08B9182008601248007803280AD1D9
:1012800021480068401E2049086008460068401C4C
:1012900008B93B2008600B48007804280AD11B4895
:1012A0000068401E1949086008460068401C08B9DB
:1012B0001820086001F05EFE01F023FA10BD000066
:1012C000000C0140290000205F5F00005345545F7F
:1012D0004D494E005345545F484F555200000000A1
:1012E0004E414F5F4D494E004E414F5F484F555262
:1012F0000000000053455420464F52205334000054
:10130000EC000020F0000020F4000020F800002095
:1013100008B50121102002F0B9FF4FF40050ADF8DC
:10132000000010208DF8030002208DF802006946AD
:10133000044802F0EFFC4FF40051024802F097FD20
:1013400008BD00000010014008B50121042002F092
:101350009DFF1820ADF8000003208DF8020010203A
:101360008DF803006946FE4802F0D4FC1021FC48C9
:1013700002F07DFD0821FA4802F079FD2020ADF849
:10138000000010208DF8030003208DF8020069464C
:10139000F34802F0BFFC01222021F14802F06BFD6E
:1013A00008BD08B51020ADF8000014208DF803002A
:1013B00003208DF802006946E94802F0ABFC08BD45
:1013C00008B51020ADF8000004208DF80300694630
:1013D000E34802F09FFC08BD10B51021E04802F080
:1013E00046FD052002F0B7FA0821DD4802F03FFD76
:1013F000052002F0B0FA1021D94802F03AFD05208C
:1014000002F0A9FA0821D64802F033FD052002F0C7
:10141000A2FA10BD10B51021D14802F02AFD052016
:1014200002F099FA0821CE4802F021FD052002F0D1
:1014300092FA1021CA4802F01AFD052002F08BFA38
:101440000821C74802F015FD052002F084FA10BDFE
:1014500070B50546002420E005FA04F000F0800095
:1014600020B11021BE4802F002FD03E01021BC486B
:1014700002F0FFFC052002F06EFA0821B84802F0E5
:10148000F6FC052002F067FA0821B54802F0F1FCED
:10149000052002F060FA601CC4B2082CDCDB70BDD1
:1014A00010B50124FFF78CFF032002F054FA082145
:1014B000AB4802F0DCFC052002F04DFA1021A848F0
:1014C00002F0BBFC00B100240821A54802F0D1FCC9
:1014D000012002F040FAFFF764FF042002F03BFA1B
:1014E000204610BD10B508219D4802F0C2FCFFF750
:1014F00058FF10219A4802F0BCFC052002F02BFA9C
:101500000821974802F0B3FC052002F024FA0821D4
:10151000934802F0AEFC10BD10B50821904802F0CF
:10152000A8FCFFF73EFF10218D4802F0A0FC05202B
:1015300002F011FA08218A4802F099FC052002F015
:101540000AFA0821864802F094FC10BD70B50546E1
:101550000024FFF735FF002618E00821804802F03C
:1015600088FC042002F0F7F908217D4802F07FFC96
:101570006006040E10217A4802F05FFC08B1601C7E
:10158000C4B2012002F0E7F9701CC6B2082EE4DBF9
:1015900015B9FFF7C1FF01E0FFF7A4FF204670BDBA
:1015A00070B506460C461546FFF716FF3046FFF7A6
:1015B0004FFFFFF775FF2046FFF74AFFFFF770FF69
:1015C0002846FFF745FFFFF76BFFFFF723FF70BDCE
:1015D0002DE9F04180460D4616461F46FFF7FCFEFA
:1015E0004046FFF735FFFFF75BFF2846FFF730FF68
:1015F000FFF756FF002406E0385DFFF729FFFFF7ED
:101600004FFF601CC4B2B442F6DBFFF703FFBDE836
:10161000F0812DE9F0410746884616461C46FFF743
:10162000DBFE3846FFF714FFFFF73AFF4046FFF7AF
:101630000FFFFFF735FFFFF7CFFE791CC8B2FFF7AA
:1016400007FFFFF72DFF012C0ADD002505E0012033
:10165000FFF77CFF7055681CC5B2601EA842F6DC1F
:101660000020FFF773FF611E7054FFF7D3FEBDE843
:10167000F08110B5FF223D216420FFF791FF4FF468
:10168000FA6002F068F9402200216420FFF788FF29
:101690004FF4FA6002F05FF904223E216420FFF764
:1016A0007FFF192002F07BF901232E4A3F2164209D
:1016B000FFF7AFFF10BD10B500202A490870FF22C8
:1016C00040216420FFF76CFF4FF4FA6002F043F909
:1016D0000123244A40216420FFF79BFF2148007822
:1016E000FF2801D1002010BD0120FCE710B5002229
:1016F00011466420FFF754FFC82002F02CF910BDFA
:1017000070B50446002211466420FFF749FFC82047
:1017100002F021F9FF223D216420FFF741FFC8209C
:1017200002F019F9402200216420FFF739FFC82098
:1017300002F011F94D2236216420FFF731FFC82055
:1017400002F009F90F2C40DD224616216420FFF734
:1017500027FFC4F1FF0217216420FFF721FF03E0F8
:101760000008014042010020224618216420FFF7B2
:1017700017FFC4F1FF0219216420FFF711FF224671
:101780001A216420FFF70CFFC4F1FF021B21642023
:10179000FFF706FF04F1FF0505EBD570C0F3470224
:1017A0001C216420FFF7FCFE05EBD570C0F3470257
:1017B0001D216420FFF7F4FE05EBD570C0F347024E
:1017C0001E216420FFF7ECFE2CE022461621642047
:1017D000FFF7E6FE224617216420FFF7E1FE2246CE
:1017E00018216420FFF7DCFE224619216420FFF750
:1017F000D7FE22461A216420FFF7D2FE22461B2183
:101800006420FFF7CDFE22461C216420FFF7C8FEAE
:1018100022461D216420FFF7C3FE22461E216420BC
:10182000FFF7BEFE70BD10B5002211466420FFF721
:10183000B7FEC82002F08FF8FF223D216420FFF799
:10184000AFFEC82002F087F8402200216420FFF795
:10185000A7FEC82002F07FF84D2236216420FFF752
:101860009FFEC82002F077F8022216216420FFF7BD
:1018700097FE022217216420FFF792FE0222182110
:101880006420FFF78DFE022219216420FFF788FEF5
:1018900002221A216420FFF783FE02221B2164200A
:1018A000FFF77EFE02221C216420FFF779FE022250
:1018B0001D216420FFF774FE02221E216420FFF721
:1018C0006FFE10BD10B5002211466420FFF768FEC0
:1018D0004FF4FA6002F03FF8FF223D216420FFF749
:1018E0005FFE4FF4FA6002F036F8402200216420D7
:1018F000FFF756FE4FF4FA6002F02DF84D22362124
:101900006420FFF74DFE00224C216420FFF748FEC3
:10191000152201216420FFF743FE4FF4FA6002F024
:101920001AF800224F216420FFF73AFE9D22502131
:101930006420FFF735FE062251216420FFF730FEB8
:10194000022252216420FFF72BFEFF225321642044
:10195000FFF726FE032254216420FFF721FEFF2219
:1019600055216420FFF71CFE9D2256216420FFF7BD
:1019700017FE022257216420FFF712FE022258218F
:101980006420FFF70DFEFF2259216420FFF708FEB7
:1019900003225A216420FFF703FEFF225B2164200B
:1019A000FFF7FEFD9D225C216420FFF7F9FD042274
:1019B0005D216420FFF7F4FD02225E216420FFF721
:1019C000EFFDFF225F216420FFF7EAFD0322602183
:1019D0006420FFF7E5FDFF2261216420FFF7E0FDB1
:1019E0009D2262216420FFF7DBFD00226321642039
:1019F000FFF7D6FD022264210846FFF7D1FDFF2242
:101A000065216420FFF7CCFD032266216420FFF7E7
:101A1000C7FDFF2267216420FFF7C2FD9D226821D8
:101A20006420FFF7BDFD002269216420FFF7B8FDA7
:101A300002226A216420FFF7B3FDFF226B2164209C
:101A4000FFF7AEFD03226C216420FFF7A9FDFF2202
:101A50006D216420FFF7A4FD002237216420FFF7E9
:101A60009FFD6A2200216420FFF79AFD2A220121AE
:101A70006420FFF795FD10BD10B5002211466420CB
:101A8000FFF78EFD4FF4FA6001F065FFFF223D2164
:101A90006420FFF785FD4FF4FA6001F05CFF4022FF
:101AA00000216420FFF77CFD4FF4FA6001F053FF42
:101AB0004D2236216420FFF773FD00224C21642063
:101AC000FFF76EFD152201216420FFF769FD4FF439
:101AD000FA6001F040FF00224F216420FFF760FD13
:101AE0009D2250216420FFF75BFD092251216420D3
:101AF000FFF756FD022252216420FFF751FDFF221D
:101B000053216420FFF74CFD032254216420FFF78A
:101B100047FDFF2255216420FFF742FD9D225621FB
:101B20006420FFF73DFD072257216420FFF738FDB1
:101B3000022258216420FFF733FDFF22592164203F
:101B4000FFF72EFD03225A216420FFF729FDFF2213
:101B50005B216420FFF724FD9D225C216420FFF7B8
:101B60001FFD08225D216420FFF71AFD02225E217D
:101B70006420FFF715FDFF225F216420FFF710FDB1
:101B8000032260216420FFF70BFDFF226121642006
:101B9000FFF706FD9D2262216420FFF701FD002270
:101BA00063216420FFF7FCFC022264210846FFF752
:101BB000F7FCFF2265216420FFF7F2FC0322662177
:101BC0006420FFF7EDFCFF2267216420FFF7E8FCAB
:101BD0009D2268216420FFF7E3FC00226921642034
:101BE000FFF7DEFC02226A216420FFF7D9FCFF2206
:101BF0006B216420FFF7D4FC03226C216420FFF7E3
:101C0000CFFCFF226D216420FFF7CAFC00223721A0
:101C10006420FFF7C5FC6A2200216420FFF7C0FCA6
:101C20002A2201216420FFF7BBFC10BD10B5002261
:101C300011466420FFF7B4FC4FF4FA6001F08BFE0C
:101C4000FF223D216420FFF7ABFC4FF4FA6001F066
:101C500082FE402200216420FFF7A2FC4FF4FA60CC
:101C600001F079FE4D2236216420FFF799FC002215
:101C70004C216420FFF794FC152201216420FFF71A
:101C80008FFC4FF4FA6001F066FE00224F216420C1
:101C9000FFF786FC9D2250216420FFF781FC05227E
:101CA00051216420FFF77CFC022252216420FFF7BF
:101CB00077FC032253216420FFF772FC9D225421FC
:101CC0006420FFF76DFC012255216420FFF768FCBA
:101CD000022256216420FFF763FC0322572164206F
:101CE000FFF75EFC9D2258216420FFF759FC032278
:101CF00059216420FFF754FC02225A216420FFF787
:101D00004FFC03225B216420FFF74AFC9D225C21EB
:101D10006420FFF745FC03225D216420FFF740FCAF
:101D20007A225E216420FFF73BFC00225F216420C1
:101D3000FFF736FC9D2260216420FFF731FC03226F
:101D400061216420FFF72CFC7A2262216420FFF7D6
:101D500027FC002263216420FFF722FCC0226421BB
:101D60000846FFF71DFC002265216420FFF718FCE0
:101D7000002237216420FFF713FC6A22002164202F
:101D8000FFF70EFC2A2201216420FFF709FC10BD99
:101D900010B5002211466420FFF702FC4FF4FA60F0
:101DA00001F0D9FDFF223D216420FFF7F9FB4FF43C
:101DB000FA6001F0D0FD002201216420FFF7F0FB62
:101DC000202206216420FFF7EBFB2022072164205C
:101DD000FFF7E6FB202208216420FFF7E1FB202229
:101DE00009216420FFF7DCFB20220A216420FFF791
:101DF000D7FB20220B216420FFF7D2FB20220C21ED
:101E00006420FFF7CDFB20220D216420FFF7C8FBE3
:101E100020220E216420FFF7C3FB40220021642012
:101E2000FFF7BEFB4FF4FA6001F095FD4D2236211D
:101E30006420FFF7B5FB00224C216420FFF7B0FBC4
:101E400020224D216420FFF7ABFB40224E2164206D
:101E5000FFF7A6FB152201216420FFF7A1FB4FF439
:101E6000FA6001F078FD00224F216420FFF798FB13
:101E70009D2250216420FFF793FB0522512164200D
:101E8000FFF78EFB402252216420FFF789FBFF22DF
:101E900053216420FFF784FB032254216420FFF7C1
:101EA0007FFB802255216420FFF77AFB0322562115
:101EB0006420FFF775FB802257216420FFF770FB39
:101EC000032258216420FFF76BFB802259216420F4
:101ED000FFF766FB02225A216420FFF761FB802294
:101EE0005B216420FFF75CFB02225C216420FFF78A
:101EF00057FB80225D216420FFF752FB1522012150
:101F00006420FFF74DFB4FF4FA6001F024FD02223C
:101F10004F216420FFF744FB9D2250216420FFF7EE
:101F20003FFB012251216420FFF73AFB402252215E
:101F30006420FFF735FB7F2253216420FFF730FB3D
:101F4000022254216420FFF72BFB802255216420BC
:101F5000FFF726FB032256216420FFF721FB802296
:101F600057216420FFF71CFB032258216420FFF750
:101F700017FB802259216420FFF712FB03225A210C
:101F80006420FFF70DFB80225B216420FFF708FB34
:101F900002225C216420FFF703FB80225D21642084
:101FA000FFF7FEFA152201216420FFF7F9FA4FF43A
:101FB000FA6001F0D0FC04224F216420FFF7F0FA10
:101FC0009D2250216420FFF7EBFA03225121642067
:101FD000FFF7E6FA402252216420FFF7E1FA0022DF
:101FE00053216420FFF7DCFA022254216420FFF71A
:101FF000D7FA802255216420FFF7D2FA0222562117
:102000006420FFF7CDFA802257216420FFF7C8FA39
:10201000032258216420FFF7C3FA8022592164204B
:10202000FFF7BEFA03225A216420FFF7B9FA802293
:102030005B216420FFF7B4FA03225C216420FFF7E0
:10204000AFFA80225D216420FFF7AAFA002237212F
:102050006420FFF7A5FA002238216420FFF7A0FAD8
:10206000002239216420FFF79BFA6A2200216420B4
:10207000FFF796FA2A2201216420FFF791FA10BD9A
:1020800010B5002211466420FFF78AFA4FF4FA6077
:1020900001F061FCFF223D216420FFF781FA4FF43B
:1020A000FA6001F058FC002201216420FFF778FA61
:1020B000202206216420FFF773FA202207216420E2
:1020C000FFF76EFA202208216420FFF769FA202228
:1020D00009216420FFF764FA20220A216420FFF717
:1020E0005FFA20220B216420FFF75AFA20220C21EC
:1020F0006420FFF755FA20220D216420FFF750FAE3
:1021000020220E216420FFF74BFA40220021642098
:10211000FFF746FA4FF4FA6001F01DFC4D2236211C
:102120006420FFF73DFA00224C216420FFF738FAC3
:1021300020224D216420FFF733FA40224E216420F3
:10214000FFF72EFA152201216420FFF729FA4FF438
:10215000FA6001F000FC00224F216420FFF720FA12
:102160009D2250216420FFF71BFA05225121642093
:10217000FFF716FA022252216420FFF711FA4C22CF
:1021800053216420FFF70CFA022254216420FFF748
:1021900007FA4C2255216420FFF702FA0222562149
:1021A0006420FFF7FDF94C2257216420FFF7F8F96E
:1021B000402258216420FFF7F3F9002259216420BE
:1021C000FFF7EEF903225A216420FFF7E9F94C22C8
:1021D0005B216420FFF7E4F903225C216420FFF710
:1021E000DFF94C225D216420FFF7DAF91522012185
:1021F0006420FFF7D5F94FF4FA6001F0ACFB02223E
:102200004F216420FFF7CCF99D2250216420FFF775
:10221000C7F9012251216420FFF7C2F9402252215F
:102220006420FFF7BDF94C2253216420FFF7B8F971
:10223000022254216420FFF7B3F94C225521642077
:10224000FFF7AEF9022256216420FFF7A9F94C22CC
:1022500057216420FFF7A4F9402258216420FFF79A
:102260009FF9002259216420FFF79AF903225A218D
:102270006420FFF795F94C225B216420FFF790F969
:1022800003225C216420FFF78BF94C225D2164203E
:10229000FFF786F902225E216420FFF781F94C22C4
:1022A0005F216420FFF77CF9152201216420FFF7EC
:1022B00077F94FF4FA6001F04EFB04224F216420BD
:1022C000FFF76EF99D2250216420FFF769F9032280
:1022D00051216420FFF764F9402252216420FFF766
:1022E0005FF9982253216420FFF75AF90222542102
:1022F0006420FFF755F94C2255216420FFF750F96F
:10230000402256216420FFF74BF900225721642018
:10231000FFF746F9032258216420FFF741F94C22C8
:1023200059216420FFF73CF903225A216420FFF76A
:1023300037F94C225B216420FFF732F902225C213D
:102340006420FFF72DF94C225D216420FFF728F966
:1023500002225E216420FFF723F94C225F216420D2
:10236000FFF71EF9002237216420FFF719F9002238
:1023700038216420FFF714F9002239216420FFF787
:102380000FF96A2200216420FFF70AF92A220121AD
:102390006420FFF705F910BD10B500221146642036
:1023A000FFF7FEF84FF4FA6001F0D5FAFF223D2165
:1023B0006420FFF7F5F84FF4FA6001F0CCFA002240
:1023C00001216420FFF7ECF8202206216420FFF7AA
:1023D000E7F8202207216420FFF7E2F820220821F5
:1023E0006420FFF7DDF8202209216420FFF7D8F8E8
:1023F00020220A216420FFF7D3F820220B21642039
:10240000FFF7CEF820220C216420FFF7C9F8202224
:102410000D216420FFF7C4F820220E216420FFF76D
:10242000BFF8402200216420FFF7BAF84FF4FA60A9
:1024300001F091FA4D2236216420FFF7B1F8002215
:102440004C216420FFF7ACF820224D216420FFF7D7
:10245000A7F840224E216420FFF7A2F8152201219F
:102460006420FFF79DF84FF4FA6001F074FA00223F
:102470004F216420FFF794F89D2250216420FFF73C
:102480008FF8052251216420FFF78AF8402252215B
:102490006420FFF785F84C2253216420FFF780F871
:1024A000442254216420FFF77BF800225521642048
:1024B000FFF776F8022256216420FFF771F84C22CC
:1024C00057216420FFF76CF8022258216420FFF79F
:1024D00067F84C2259216420FFF762F803225A2141
:1024E0006420FFF75DF84C225B216420FFF758F869
:1024F00003225C216420FFF753F84C225D21642005
:10250000FFF74EF8152201216420FFF749F84FF438
:10251000FA6001F020FA02224F216420FFF740F810
:102520009D2250216420FFF73BF8012251216420B5
:10253000FFF736F8402252216420FFF731F8982245
:1025400053216420FFF72CF8032254216420FFF765
:1025500027F84C2255216420FFF722F84422562107
:102560006420FFF71DF8002257216420FFF718F8B8
:10257000022258216420FFF713F84C2259216420CD
:10258000FFF70EF802225A216420FFF709F84C22C7
:102590005B216420FFF704F803225C216420FEF72E
:1025A000FFFF4C225D216420FEF7FAFF1522012176
:1025B0006420FEF7F5FF4FF4FA6001F0CCF9042235
:1025C0004F216420FEF7ECFF9D2250216420FEF78E
:1025D000E7FF032251216420FEF7E2FF402252214F
:1025E0006420FEF7DDFFE42253216420FEF7D8FFCC
:1025F000032254216420FEF7D3FF4C22552164208E
:10260000FEF7CEFF032256216420FEF7C9FF4C22BD
:1026100057216420FEF7C4FF442258216420FEF7AE
:10262000BFFF002259216420FEF7BAFF02225A217F
:102630006420FEF7B5FF4C225B216420FEF7B0FF5B
:1026400002225C216420FEF7ABFF4C225D21642056
:10265000FEF7A6FF002237216420FEF7A1FF00222B
:1026600038216420FEF79CFF002239216420FEF708
:1026700097FF6A2200216420FEF792FF2A2201219F
:102680006420FEF78DFF10BD70B504460E462EB1D6
:102690004FF48051FE4801F0EAFB04E04FF4805112
:1026A000FB4801F0E6FB0221FA4801F0E2FB0025BD
:1026B0001BE04FF40041F74801F0DBFB04F0800021
:1026C00028B14FF40051F34801F0D1FB04E04FF47E
:1026D0000051F04801F0CDFB4FF40041ED4801F00E
:1026E000C6FB6006040E681CC5B2082DE1DB0221A2
:1026F000E84801F0BCFB4FF48051E54801F0B7FB1E
:1027000070BD70B500241CE004F1B001C8B2002116
:10271000FFF7BAFF00210846FFF7B6FF002110209F
:10272000FFF7B2FF002508E0DB4901EBC501085DBA
:102730000121FFF7A9FF681CC5B2802DF4DB601CE6
:10274000C4B2082CE0DB70BD10B500218D20FFF76E
:102750009BFF00211420FFF797FF0021AF20FFF718
:1027600093FF10BD10B500218D20FFF78DFF0021D4
:102770001020FFF789FF0021AE20FFF785FF10BD75
:1027800070B500240CE0002506E00020C24901EBF2
:10279000C5010855681CC5B2802DF6DB601CC4B2AB
:1027A000082CF0DBFFF7ADFF70BDF0B51446002636
:1027B0007F2801DC3F2900DDF0BD0B46CF1701EB80
:1027C0005777FF10C7F10707FAB2CF1701EB57771A
:1027D000FF10A1EBC707FDB2C5F107070123BB40FE
:1027E000DEB24CB1AC4B03EBC0039B5C3343AA4F4E
:1027F00007EBC007BB5408E0A74B03EBC0039B5C8F
:10280000B343A54F07EBC007BB5400BFD4E72DE986
:10281000F04706460F4690469946DDF820A034461C
:102820000CE03D4606E0524629462046FFF7BDFF34
:10283000681CC5B24D45F6DD601CC4B24445F0DDF0
:10284000FFF75FFFBDE8F0872DE9F04F80460C46AB
:1028500015461E46A346A5F12000C5B200273EE05E
:102860000C2E07D105EB45008C4901EB800010F8D8
:10287000079004E08A4800EB051010F807904FF02D
:10288000000A26E009F0800028B121464046099A56
:10289000FFF78BFF09E0099808B9012000E000204C
:1028A000024621464046FFF780FF4FEA49604FEA63
:1028B0001069601CC4B2A4EB0B00B04205D15C46A9
:1028C00008F1010000F0FF0806E00AF1010000F045
:1028D000FF0ABAF1080FD5DB00BF781CC7B2B742B8
:1028E000BEDBBDE8F08F10B50246012000E050438A
:1028F0000B00A1F10104E1B2F9D110BD2DE9FF4FA8
:1029000081B0074691461E460E9D4FF0000A0024F6
:1029100039E0301B401EC1B20A20FFF7E4FFB9FBCB
:10292000F0F00A21B0FBF1F201FB1208BAF1000F3E
:1029300016D1701EA04213DDB8F1000F0ED1012098
:10294000AB4605EBDB71491001FB04710090C8B286
:102950002B4620220299FFF777FF12E04FF0010A81
:102960000120AB4605EBDB71491001FB04710090BF
:10297000C8B208F13001CAB22B460299FFF764FFD2
:1029800000BF601CC4B2B442C3DB05B0BDE8F08F29
:10299000F8B505460E4614461F4618E07A2D03DDAD
:1029A000002506F11000C6B23A2E04DD00200546CF
:1029B0000646FFF7E5FE0120009022783B463146AF
:1029C0002846FFF741FF05F10800C5B2641C2078D6
:1029D0000028E3D1F8BD70B504460D4605F1B001FD
:1029E000C8B20021FFF750FE102141EA1410002167
:1029F000FFF74AFE04F00F0141F001000021FFF74C
:102A000043FE70BD2DE9F04180460E461546002775
:102A100031464046FFF7DFFF00240AE0214A02EB7F
:102A20008511085D0121FFF72FFE781CC7B2601CDD
:102A3000C4B2102CF2DB701CC1B24046FFF7CBFFD2
:102A400000240CE06900491C164A02EB4111085DA4
:102A50000121FFF719FE781CC7B2601CC4B2102C0C
:102A6000F0DBBDE8F0812DE9F05F06460F469046A9
:102A70001C46DDF828A04FF0000BE11704EB517164
:102A8000C910A4EBC101A1B92046E1170CE0000078
:102A900000080140000C01404C010020EE5C0008E1
:102AA000626100082A00002004EB5171C1F3C705E0
:102AB00006E02046E11704EB5171C910491CCDB264
:102AC0003D4615E029463046FFF785FFB1460BE04D
:102AD00059460BF1010B1AF801000121FFF7D4FD53
:102AE00009F1010000F0FF09C145F1DB681CC5B226
:102AF000A542E7DBBDE8F09F08B501210C2001F0FD
:102B0000C5FB4FF48050ADF8000010208DF8030095
:102B100003208DF802006946474801F0FBF84FF4A6
:102B20008051454801F0A3F94BF20200ADF80000D6
:102B300010208DF8030003208DF8020069463F48FD
:102B400001F0E8F84BF202013C4801F090F94FF433
:102B500080513A4801F08DF9642000F020FF4FF4D5
:102B60008051364801F083F90021AE20FFF78CFD3B
:102B70000021D520FFF788FD00215020FFF784FDBC
:102B80000021A820FFF780FD00213F20FFF77CFDFA
:102B90000021D320FFF778FD00210846FFF774FDE0
:102BA00000214020FFF770FD00218D20FFF76CFD14
:102BB00000211420FFF768FD00212020FFF764FDAD
:102BC00000210220FFF760FD0021A120FFF75CFD3E
:102BD0000021C020FFF758FD0021DA20FFF754FD47
:102BE00000211220FFF750FD00218120FFF74CFD4E
:102BF0000021EF20FFF748FD0021D920FFF744FD19
:102C00000021F120FFF740FD0021DB20FFF73CFD14
:102C100000213020FFF738FD0021A420FFF734FD0C
:102C20000021A620FFF730FD0021AF20FFF72CFD8B
:102C3000FFF7A6FD08BD000000080140000C0140A0
:102C400008B503208DF8000000208DF801008DF8F4
:102C5000020001208DF80300684600F092FF08BDD5
:102C6000F0B503460C461546642093FBF0F0C6B25F
:102C7000642093FBF0F700FB1730C1B2132E02DD86
:102C800001F16400C1B20846CF1701EB977701EB61
:102C9000A707BAB2072092FBF0F700FB172082B219
:102CA0005719601EDFF84CC41CF80000384482B28B
:102CB000CF1701EB9777BF10A1EB87071FB9032C44
:102CC00001DA501E82B2072092FBF0F700FB1720BA
:102CD000C0B2F0BD0146CA1701EB92729210A1EB8F
:102CE000820292B9642091FBF0F200FB121050B9FD
:102CF0004FF4C87091FBF0F200FB121008B90120EC
:102D000070470020FCE70120FAE70020F8E770B5E3
:102D1000002600240025F84806883604001D008897
:102D20000644F648B6FBF0F4F5480088A0423CD0D3
:102D3000F3490C8040F2B27510E02846FFF7CAFF55
:102D400040B1B4F5B77F02D3A4F5B77404E0681CB2
:102D500085B206E0A4F26D14681C85B2B4F5B67FA6
:102D6000EBD800BFE7488580002516E0E549888854
:102D7000FFF7B0FF30B1012D04D11D2C01D31D3C54
:102D800009E00CE0E048405DA04203D8DE48405D29
:102D9000241A00E003E0681C85B21C2CE6D200BFB8
:102DA000681CD8498871601CC871D448B6FBF0F122
:102DB00000FB11644FF46160B4FBF0F0D14908707E
:102DC0004FF46160B4FBF0F100FB11403C21B0FB1B
:102DD000F1F0CC4948704FF46160B4FBF0F100FBB6
:102DE00011403C21B0FBF1F201FB1200C549887093
:102DF0000B46DA7999799888FFF732FFC149087252
:102E0000002070BD2DE9F05F06460F4690469946BA
:102E1000DDE90AAB002440F2B270864203DB40F6E3
:102E20003300864202DD0120BDE8F09F40F2B2751A
:102E30000AE02846FFF74EFF10B1B448044401E011
:102E4000B3480444681C85B2B542F2DB781EC7B2B1
:102E5000002510E0AC48405D40F2A321484304EB5C
:102E6000C0143046FFF736FF18B1012D01D1A34839
:102E70000444681C85B2BD42ECDBA8F1010040F2BD
:102E8000A321484304EBC014C9EB4910C0EB09204F
:102E900004EB0014CAEB0A1004EB80045C4401212B
:102EA0004FF0C05001F0FFF9012002F076FC2046FF
:102EB00002F0EDFB02F01EFC0020B5E72DE9F05F0B
:102EC00006460F4690469946DDE90AAB002440F2DB
:102ED000B270864203DB40F63300864202DD0120F9
:102EE000BDE8F09F40F2B2750AE02846FFF7F2FE17
:102EF00010B18648044401E085480444681C85B24A
:102F0000B542F2DB781EC7B2002510E07E48405D76
:102F100040F2A321484304EBC0143046FFF7DAFE29
:102F200018B1012D01D175480444681C85B2BD4219
:102F3000ECDBA8F1010040F2A321484304EBC014EC
:102F4000C9EB4910C0EB092004EB0014CAEB0A10CE
:102F500004EB80045C4401214FF0C05001F0A3F960
:102F6000012002F01AFC204602F0ACFB02F0C2FB8A
:102F70000020B5E77CB5002401214FF0C05001F0DE
:102F800092F9012002F009FC042002F02AFB6149B9
:102F90000968614A12681144604A12681144604A23
:102FA0001268114445F24002114488427DD002F07B
:102FB000E3FA012001F0D7F804E0601CC4B20A2053
:102FC00000F0EDFC412001F036F80028F5D0FA2C95
:102FD00001DB01207CBD4FF4807001F0E0F801209E
:102FE00001F0E3F802F086FB02F08DFB01210320E3
:102FF00002F024FB02F07EFB02F02DFB47F6FF708F
:1030000002F052FB02F076FB4548006800280EDD16
:103010003C4880783B494978CDE900104048037826
:103020000422052140F2E170FFF7ECFE4CE0394844
:10303000006800280EDD3348807836490978CDE9EC
:103040000010304803780422052140F2E170FFF7B8
:10305000D9FE39E031480068002812DD294880781F
:1030600028494978274DCDE900102D782B4E367828
:103070003544EBB2234DEA79A979A888FFF71EFF02
:1030800022E025480068002813DD1E488078214989
:103090000978214A12781144C9B21A4DCDE90010BD
:1030A0002B78EA79A979A88800E03BE0FFF706FFD2
:1030B0000AE00020032113230B22CDE90010052193
:1030C00040F2E170FFF79EFE02F0CEFA1148008850
:1030D000114A12881044114A12881044104A12886A
:1030E000104445F24002104481B2042002F06DFA0F
:1030F00020E00000526700081828004080510100BD
:10310000FE0000204C0500205E6700080085E201FB
:103110008033E101EC000020F4000020F8000020E2
:10312000F000002002F0EFFA0121032002F086FAFD
:1031300002F0E0FAFFF784FDFFF7E9FD002049E720
:1031400008B5012002F004FB08B1FFF7E0FD022002
:1031500002F0FEFAE0B1022002F00AFB0F4800780C
:10316000401C0E490870FFF70BFB10230CA218211E
:103170000020FFF70DFCFFF7CAFD0C2000900B4864
:103180004278022324210020FFF7B8FBFFF7B9FAA9
:10319000052002F0EDFA02F0ADFA08BDFC000020B7
:1031A0004E414F5A484F4E47000000004C0500204A
:1031B00008B50121082001F069F80120ADF80000F0
:1031C00010208DF8030003208DF8020069460448A2
:1031D00000F0A0FD0121024800F04BFE08BD0000F8
:1031E000000C014008B50121082001F04FF84FF410
:1031F0008840ADF8000010208DF8030003208DF802
:1032000002006946EC4800F085FD0120EB490860AA
:10321000EB49C1F8B80108BD10B5E748001D0068CA
:1032200020F07060E449091D08600846006840F01D
:10323000407008600120E14910310860E049C1F8A0
:10324000A801042000F087FB0020DC491031086051
:10325000042000F080FB0020D949C1F8A80110BD6E
:1032600010B5D548001D006820F07060D249091DD6
:1032700008600846006840F0407008600020CF49B0
:103280000860CF49C1F8B801042000F064FB0120B8
:10329000CA490860CA49C1F8B801042000F05BFBC4
:1032A00010BD10B50024C448001D006820F07060F7
:1032B000C149091D08600846006840F000600860C8
:1032C0000120BE491031086000F045FB0120BC49D7
:1032D000C1F8A80100F03FFB07E0601CC4B2FA2C63
:1032E00003DDFFF7BDFF012010BDB4487038006852
:1032F0000028F2D1B149086000BFF5E710B5002001
:10330000AE490860AC48001D006820F07060AA4912
:10331000091D08600846006840F040700860002001
:10332000A749C1F8B801022000F015FB0120A3490C
:103330000860022000F00FFB0020A149C1F8A8019D
:1033400010BD10B500209D4908609B48001D006815
:1033500020F070609849091D08600846006840F038
:103360004070086001209649C1F8B801022000F0C1
:10337000F2FA012091490860022000F0ECFA0020E6
:103380008F49C1F8A80110BD70B504468A48001DD8
:10339000006820F070608849091D086008460068D0
:1033A00040F040700860002084490860002517E064
:1033B000E0098249103108606006040E022000F026
:1033C000CAFA01207E49C1F8A801022000F0C3FA20
:1033D00000207A490860022000F0BDFA681CC5B2DE
:1033E000082DE5DB70BD70B5054600247248001D50
:1033F000006820F070607049091D08600846006888
:1034000040F000600860002616E000206B4908606C
:10341000022000F0A0FA01206949C1F8A801600665
:10342000040E66487038006808B1601CC4B2012000
:1034300000F091FA701CC6B2082EE6DB15B9FFF752
:1034400080FF01E0FFF75AFF204670BD70B50446CB
:103450000026FFF7E1FEA020FFF796FFFFF721FF10
:103460002012FFF791FFFFF71CFF2546E11704EB41
:1034700011610912A4EB0121C8B2FFF785FFFFF724
:1034800010FFFFF7C9FEA120FFF77EFFFFF709FF3E
:103490000020FFF7A8FF0646FFF7E2FE304670BDAA
:1034A00070B504460E46FFF7B7FEA020FFF76CFF8D
:1034B000FFF7F7FE2012FFF767FFFFF7F2FE254642
:1034C000E11704EB11610912A4EB0121C8B2FFF767
:1034D0005BFFFFF7E6FE3046FFF756FFFFF7E1FE22
:1034E000FFF7BEFE0A2000F05AFA70BD2DE9F04148
:1034F00005460E461746002409E0E20026FA02F2CD
:10350000D1B22A1990B2FFF7CBFF601CC4B2BC4203
:10351000F3DBBDE8F0812DE9F04107460C460026BB
:10352000002509E036023919491B491E88B2FFF708
:103530008DFF0644681CC5B2A542F3DB3046BDE8EA
:10354000F08110B5FF20FFF781FF0446552C01D113
:10355000002010BD5521FF20FFF7A2FFFF20FFF73D
:1035600075FF0446552C01D10020F2E70120F0E759
:1035700070B506460C46154608E03046721C96B2F9
:10358000FFF764FF04F8010B681E85B2002DF4D12B
:1035900070BD70B505460C46164606E021782846F3
:1035A000FFF77EFF681C85B2641C3000A6F10101A4
:1035B0008EB2F3D170BD0000000C0140A881214201
:1035C0000080214210B56448006820F00F00624975
:1035D00008600846006840F00300086000205F496A
:1035E0000860142000F0DBF901205D49C1F8A0015A
:1035F0001E2000F0B0F910BD10B500245648006838
:1036000020F00F00544908600846006840F00800A8
:10361000086004E0601CC4B2012000F09CF94F482F
:103620008038006808B1642CF4DB642C01DB0120D5
:1036300010BD002404E0601CC4B2012000F08BF92E
:1036400046488038006808B9642CF4DB642C01DB40
:103650000120EDE70020EBE710B5002404E0601C3A
:10366000C4B2012000F077F93C488038006808B106
:10367000642CF4DB002404E0601CC4B2012000F0E0
:103680006AF936488038006808B9642CF4DB2820D1
:1036900000F061F931488038006808B1012010BDA0
:1036A0000020FCE770B50024002506E06006040E4B
:1036B000FFF7D2FF0443681CC5B2082DF6DB204695
:1036C00070BD7CB505460E46FFF77CFFFFF794FF03
:1036D000F8B9002405E0FFF7E5FF0DF80400601CD1
:1036E000C4B2052CF7DB9DF800009DF801100844DA
:1036F0009DF8021008449DF8031008449DF804103A
:10370000884208D19DF8000030709DF802002870B2
:1037100001E001207CBD0020FCE708B50121042068
:1037200000F0B4FD4FF48070ADF8000010208DF86B
:10373000030003208DF8020069460748001F00F0CF
:10374000E9FA4FF480710448001F00F090FBFFF786
:1037500039FFFFF751FF08BD04080140A0012142D5
:10376000000021427FB505460C460121022000F0F1
:103770009AFDADF80850ADF804400020ADF80A00FD
:10378000ADF8060001A9254801F0BCF80122114658
:10379000224801F02EFC1D208DF8000000208DF83D
:1037A000010003208DF8020001208DF80300684617
:1037B00000F0E7F90121194801F000FC7FBD08B5D0
:1037C0000121164801F0C3FE38B30121134801F06E
:1037D000CFFE13491348FFF774FF0C20022300901B
:1037E000104802780C214420FFF788F801200C23B0
:1037F0004322194600905020FFF726F80C200223A0
:103800000090074802780C216220FFF777F80C231C
:1038100005A219466E20FFF7BBF808BD0004004062
:1038200003010020020100205248000010B50121D0
:10383000080700F038FD012001F0BEFF01F0DBFFBA
:1038400010BD10B500214FF4FE7000F039FDFFF7F8
:10385000EDFF10BD70B50025002400202E49086042
:1038600019E02E48006818B1681CC5B2002408E0B1
:10387000601CC4B2032C04DD01202749086000202D
:1038800070BD1E2000F08BF8642D04DB002022495F
:1038900008600120F4E7E4E710B5012002F05DF8CC
:1038A000FFF7D8FF08B1FFF7CCFF10BD1FB501210E
:1038B000052000F0EBFC0120ADF80C0028208DF86D
:1038C0000F0003A9164800F025FA0021084600F071
:1038D00037FB0120009000208DF8040008208DF8AF
:1038E000050001208DF80600684601F0BFFF0620A4
:1038F0008DF8080002208DF809008DF80A000120DB
:103900008DF80B0002A800F03CF9FFF7A3FF08B9FF
:10391000FFF78CFF1FBD0000B401224200012142CD
:103920000008014010B56FF0040000F074F92E4853
:1039300000682E49B0FBF1F02D4908700846007868
:1039400000EB4001C1EBC0104FF6FF7101EAC0006F
:103950002849088010BD0146254A12784A434FF095
:10396000E0235A6100229A611A46126942F001026C
:103970001A6100BF4FF0E022106900F001021AB195
:1039800000F48032002AF5D04FF0E022126922F0D4
:1039900001024FF0E0231A6100229A61704701464C
:1039A000144A12884A434FF0E0235A6100229A6178
:1039B0001A46126942F001021A6100BF4FF0E0227C
:1039C000106900F001021AB100F48032002AF5D02B
:1039D0004FF0E022126922F001024FF0E0231A6159
:1039E00000229A61704700000C00002000127A004B
:1039F0000401002006010020014600BF704700BFFF
:103A0000494A128802F04002002AF9D0C2B2464B5D
:103A10001B1D1A80704710B586B00446012144F280
:103A2000040000F033FC4FF40070ADF814000320E4
:103A30008DF8160018208DF8170005A93B4800F0F6
:103A400069F94FF48060ADF8140004208DF8170078
:103A500005A9364800F05EF925208DF80000032006
:103A60008DF801008DF8020001208DF803006846F2
:103A700000F087F801940020ADF80800ADF80A00C6
:103A8000ADF80C00ADF810000C20ADF80E0001A947
:103A9000254800F0A2FC012240F22551224800F006
:103AA00034FD0121204800F024FD06B010BD10B502
:103AB00040F225511C4800F00DFE10B31A4800F0EA
:103AC00089FDC4B21A48008800F40040C8B91848FB
:103AD000008800F4804060B10A2C03D00020144913
:103AE000088020E01248008840F400401049088017
:103AF00019E00D2C06D10E48008840F480400C4996
:103B0000088010E00A480088C0F30D0009490C54F1
:103B100007480088401C0649088008460088C728D6
:103B200001DD0020088010BD003801400008014080
:103B30000C0100205605002009488047094800472D
:103B4000FEE7FEE7FEE7FEE7FEE7FEE7FEE7FEE74D
:103B5000FEE7FEE704480549054A064B70470000AA
:103B6000BF070008ED00000880060020800C002040
:103B7000800800208008002031490143314A11604B
:103B8000704770B5002100230F22C47804B32D4C78
:103B9000246804F4E064C4F5E064210AC1F104037C
:103BA000CA40447804FA03F184781440214309019F
:103BB000254C0678A155047804F01F050124AC407B
:103BC00005786D11AD0005F1E025C5F8004109E06B
:103BD000047804F01F050124AC401C4D06787611D2
:103BE00045F8264070BD1A4A0A400243154B1B1F78
:103BF0001A60704739B1134A121D12680243114B03
:103C00001B1D1A6006E00F4A121D126882430D4BFD
:103C10001B1D1A607047042808D14FF0E021096984
:103C200041F004014FF0E022116107E04FF0E02184
:103C3000096921F004014FF0E02211617047000092
:103C40000000FA050CED00E000E400E080E100E097
:103C500080FFFF1F10B50446CC48844208D10121E3
:103C6000042000F02DFB0021042000F029FB46E099
:103C7000C748844208D10121082000F021FB00211F
:103C8000082000F01DFB3AE0C248844208D101211F
:103C9000102000F015FB0021102000F011FB2EE099
:103CA000BD48844208D10121202000F009FB0021F9
:103CB000202000F005FB22E0B848844208D1012111
:103CC000402000F0FDFA0021402000F0F9FA16E053
:103CD000B348844208D10121802000F0F1FA00218C
:103CE000802000F0EDFA0AE0AE48844207D10121BD
:103CF000801500F0E5FA0021A01500F0E1FA10BDF2
:103D000010B50121084600F0DBFA0021012000F087
:103D1000D7FA10BD2DE9F04102460025002600200B
:103D200000230024002791F803C00CF00F0591F840
:103D300003C00CF0100CBCF1000F03D091F802C0CE
:103D40004CEA050591F800C0BCF1000F31D01468B1
:103D500000202BE04FF0010C0CFA00F3B1F800C08A
:103D60000CEA03069E4220D183004FF00F0C0CFAA0
:103D700003F7BC4305FA03FC4CEA040491F803C0C2
:103D8000BCF1280F06D14FF0010C0CFA00FCC2F870
:103D900014C00AE091F803C0BCF1480F05D14FF000
:103DA000010C0CFA00FCC2F810C0401C0828D1D34A
:103DB0001460B1F800C0BCF1FF0F34DD546800207E
:103DC0002EE000F1080C4FF0010808FA0CF3B1F8EE
:103DD00000C00CEA03069E4221D183004FF00F0C75
:103DE0000CFA03F7BC4305FA03FC4CEA040491F80F
:103DF00003C0BCF1280F05D100F1080C08FA0CF83B
:103E0000C2F8148091F803C0BCF1480F07D100F14B
:103E1000080C4FF0010808FA0CF8C2F81080401C9A
:103E20000828CED35460BDE8F0814FF6FF710180C1
:103E3000022181700421C1707047024600209368FE
:103E40000B400BB1012000E000207047014688685C
:103E500080B2704702460020D3680B400BB10120AE
:103E600000E0002070470146C86880B270470161D9
:103E70007047416170470AB1016100E041617047DC
:103E8000C16070474FF480320A4382618161826170
:103E900082698269704702460020434B18684FF6DA
:103EA0008073184040EA021008433F4B1860704787
:103EB0003E49C8617047F0B50A460023002400213E
:103EC000002500F00046B6F1004F02D1364EF169F0
:103ED00001E0354E7168C0F3034583B200F440162B
:103EE000B6F5401F08D121F070612F4E766826F09C
:103EF00070662D4F7E6012E000F48016B6F5801FCC
:103F000006D1032606FA05F4A14341F0706106E0EC
:103F1000460D360103FA06F6B14341F0706122B155
:103F2000460D360103FA06F6314300F00046B6F1BD
:103F3000004F02D11C4EF16101E01B4E7160F0BDDB
:103F400030B500228B071C0F0F2303FA04F2164B27
:103F500008338C1053F824309343134C08348D10DD
:103F600044F8253023468C1053F824308C07240F56
:103F700000FA04F423430C4C08348D1044F8253027
:103F800030BD0A49DC31086070470000000801407C
:103F9000000C0140001001400014014000180140D5
:103FA000001C0140002001400000014000002042B0
:103FB000DF48006840F00100DD49086008464068BD
:103FC000DC490840DA49486008460068DA49084098
:103FD000D74908600846006820F480200860084639
:103FE000406820F4FE0048604FF41F00886070476E
:103FF000CF49096821F48031CD4A11601146096822
:1040000021F480211160B0F5803F03D0B0F5802FFE
:104010000ED106E0C649096841F48031C44A1160F6
:1040200007E0C349096841F4A021C14A116000E0DA
:1040300000BF00BF704710B50146002200230020DA
:104040004A11012A02D1BA4C236806E0022A02D1A1
:10405000B74C236A01E0B64C636A01F01F020124E9
:1040600094401C400CB1012000E0002010BD38B588
:10407000002000900024002500BF3120FFF7DBFF67
:1040800005460098401C00900098B0F5A06F01D044
:10409000002DF2D03120FFF7CEFF08B1012400E05F
:1040A0000024204638BD01460020A14A106820F0B7
:1040B000F80040EAC10010607047A04908607047EE
:1040C000024600209A4B586820F47C1042EA010313
:1040D0001843974B586070479849086670470146E7
:1040E0000020934A506820F0030008435060704756
:1040F0008F48406800F00C007047014600208C4A51
:10410000506820F0F00008435060704701460020DE
:10411000874A506820F4E0600843506070470146C9
:104120000020834A506820F4605040EAC10050608B
:10413000704729B17E4A527A02437D4B5A7204E09D
:104140007B4A527A82437A4B5A7270477B49D83104
:104150000860704701460020754A506820F44040CE
:104160000843506070470021714A20321170704A34
:1041700082F82010012802D004280AD104E001218D
:104180006B4A2032117005E00521694A2032117016
:1041900000E000BF00BF704769490860704764498C
:1041A000096A0143624A11627047654944390860EF
:1041B000704730B500210022002400235C4D6D685B
:1041C00005F00C0121B1042905D0082923D105E00F
:1041D0005C4D056022E05B4D05601FE0544D6D684D
:1041E00005F47012524D6D6805F48034022505EB1C
:1041F00092421CB9544D554305600BE04C4D6D681F
:1042000005F400351DB1504D5543056002E04D4D9C
:104210005543056002E04B4D056000BF00BF444DB3
:104220006D6805F0F0010909484D6B5C0568DD40DB
:1042300045603F4D6D6805F4E061090A434D6B5CD4
:104240004568DD4085603A4D6D6805F46051C90AE6
:104250003E4D6B5C4568DD40C560354D6D6805F4CD
:104260004041890B3A4D6B5CC568B5FBF3F50561C0
:1042700030BD29B12E4A526902432D4B5A6104E0E8
:104280002B4A526982432A4B5A61704729B1284A06
:1042900092690243264B9A6104E0254A926982435F
:1042A000234B9A61704729B1214AD2690243204BBE
:1042B000DA6104E01E4AD26982431D4BDA6170471D
:1042C00029B11B4AD2680243194BDA6004E0184A4C
:1042D000D2688243164BDA60704729B1144A1269DA
:1042E0000243134B1A6104E0114A12698243104BD6
:1042F0001A61704712494039086070470F49C86415
:1043000070470B49C87170470948406A40F0807097
:1043100007494862704701460020054A92680A40F2
:104320000AB1012000E000207047014988727047FF
:10433000001002400000FFF8FFFFF6FE00004242BE
:104340008004424200127A0000093D000E01002064
:104350001E01002010B50446FB48844209D101210A
:104360008803FFF7ADFF00214FF48040FFF7A8FF5F
:1043700032E0F648844209D101214804FFF7ADFF3D
:1043800000214FF40030FFF7A8FF25E0F0488442F9
:1043900009D101218804FFF7A0FF00214FF48020FC
:1043A000FFF79BFF18E0EB48844209D10121C804C4
:1043B000FFF793FF00214FF40020FFF78EFF0BE083
:1043C000E548844208D101210805FFF786FF002156
:1043D0004FF48010FFF781FF10BD2DE9F04786B044
:1043E00005460E460024A24600BFA1460027B0891C
:1043F00000B100BF2F462C8A4CF6FF700440F088B5
:1044000004432C82AC894EF6F3100440B088318905
:104410000843718908430443AC81AC8A4FF6FF40DE
:104420000440B0890443AC8201A8FFF7C2FEC6482D
:10443000874202D1DDF810A001E0DDF80CA0A889C8
:1044400000F4004040B10AEBCA0000EB0A103168EA
:104450004900B0FBF1F807E00AEBCA0000EB0A10D4
:1044600031688900B0FBF1F86420B8FBF0F004017A
:104470002009642101FB1089A88900F4004040B1A3
:10448000322000EBC900B0FBF1F000F0070004435C
:1044900008E0322000EB09106421B0FBF1F000F0DD
:1044A0000F0004432C8106B0BDE8F0874FF416518D
:1044B000016000218180C18001810C2141810021A6
:1044C0008181704710B502460020108A4FF2FF0329
:1044D00018400B884C8823438C882343CC88234383
:1044E0001843108210BD0021018041808180C1806D
:1044F000704721B1828942F40052828104E08289AE
:104500004DF6FF731A4082817047F0B503460024D0
:1045100000260025002040F66A17B94200D100BFEE
:104520001846C1F3421401F01F06012707FA06F5E9
:10453000012C01D10C3004E0022C01D1103000E03C
:1045400014301AB107682F43076002E00768AF43D1
:104550000760F0BD1AB1838A0B43838202E0838A2D
:104560008B4383827047028A4FF6F0731A400282AF
:10457000028A0A430282704782894FF2FF731A400F
:10458000828182890A438281704721B1828942F007
:104590000202828104E082894FF6FD731A40828113
:1045A0007047028A4FF6DF731A400282028A0A437A
:1045B0000282704721B1028A42F48042028204E002
:1045C000028A4BF6FF731A4002827047C1F3080259
:1045D0008280704701468888C0F30800704781894F
:1045E00041F0010181817047028BD2B20283028BBC
:1045F00042EA012202837047028B02F47F42028367
:10460000028B0A430283704721B1828A42F0200262
:10461000828204E0828A4FF6DF731A4082827047FA
:1046200021B1828A42F01002828204E0828A4FF62F
:10463000EF731A408282704721B1828A42F00802E9
:10464000828204E0828A4FF6F7731A4082827047B2
:1046500021B1828942F40042828103E08289C2F35F
:104660000E028281704721B1828A42F40062828206
:1046700004E0828A4FF2FF731A4082827047828A76
:104680004FF6FB731A408282828A0A438282704705
:1046900021B1828A42F00202828204E0828A4FF6CD
:1046A000FD731A408282704702460020B1F5007FF8
:1046B00000D100BF13880B400BB1012000E00020A7
:1046C000704701F40072B2F5007F00D100BFCA4309
:1046D0000280704770B502460024002300250020A8
:1046E00040F66A16B14200D100BFC1F3421501F095
:1046F0001F03012606FA03F3012D02D196893340E8
:1047000006E0022D02D1168A334001E0968A33403A
:104710000C12012606FA04F41688344013B10CB1C9
:10472000012000E0002070BD10B50022002340F6FB
:104730006A14A14200D100BF0A1201249440A3B21E
:10474000DC43048010BD00000038014000440040FC
:1047500000480040004C00400050004010B50446A6
:10476000FE48844208D10121C014FFF7A9FD0021B1
:10477000E014FFF7A5FDC4E0B4F1804F08D101219A
:104780000846FFF7AAFD00210120FFF7A6FDB8E0CB
:10479000F348844208D101210220FFF79EFD002149
:1047A0000220FFF79AFDACE0EE48844208D10121D7
:1047B0000420FFF792FD00210420FFF78EFDA0E00A
:1047C000E948844208D101210820FFF786FD002135
:1047D0000820FFF782FD94E0E448844208D10121DB
:1047E0001020FFF77AFD00211020FFF776FD88E00A
:1047F000DF48844208D101212020FFF76EFD00210F
:104800002020FFF76AFD7CE0DA48844208D10121CC
:104810004014FFF755FD00216014FFF751FD70E0D3
:10482000D548844209D10121C804FFF749FD002180
:104830004FF40020FFF744FD63E0D048844209D1E3
:1048400001210805FFF73CFD00214FF48010FFF720
:1048500037FD56E0CA48844209D101214805FFF7D7
:104860002FFD00214FF40010FFF72AFD49E0C54855
:10487000844208D101214020FFF72FFD0021402074
:10488000FFF72BFD3DE0C048844208D10121802084
:10489000FFF723FD00218020FFF71FFD31E0BB481B
:1048A000844208D101218015FFF717FD0021A015D2
:1048B000FFF713FD25E0B648844209D10121080421
:1048C000FFF7FEFC00214FF48030FFF7F9FC18E001
:1048D000B048844209D101214804FFF7F1FC0021CE
:1048E0004FF40030FFF7ECFC0BE0AB48844208D1FA
:1048F00001218804FFF7E4FC00214FF48020FFF73A
:10490000DFFC10BD00220288944B98420ED0994BD8
:1049100098420BD0B0F1804F08D0914B984205D00F
:10492000904B984202D0904B984204D14FF68F732F
:104930001A404B881A438D4B984207D08C4B9842B3
:1049400004D04FF6FF431A40CB881A4302808B886D
:1049500083850B880385814B98420BD0854B984209
:1049600008D08B4B984205D08A4B984202D08A4B94
:10497000984201D10B7A038601238382704770B578
:10498000002400220023058C4FF6FE763540058476
:10499000028C8388048B4FF68F752C40B51E2C40FB
:1049A0000D882C43751E2A400D892A434D882A43C1
:1049B0006A4DA8420BD06F4DA84208D0744DA84252
:1049C00005D0744DA84202D0734DA84213D14FF6C2
:1049D000F7752A404D892A434FF6FB752A408D888A
:1049E0002A434FF6FF652B404FF6FF552B408D892C
:1049F0002B43CD892B4383800483CD888586028415
:104A000070BD70B5002400220023058C4FF6EF76B0
:104A100035400584028C8388048B48F6FF752C4052
:104A20004FF6FF452C400D884FF6FF7606EA052528
:104A30002C434FF6DF752A400D8906EA05152A43F7
:104A40004D8806EA05152A43444DA84202D0494D37
:104A5000A8421DD14FF67F752A404D894FF6FF764B
:104A600006EA05152A434FF6BF752A408D8806EAE7
:104A700005152A434FF6FF352B404FF2FF752B40AB
:104A80008D8906EA85052B43CD8906EA85052B43EA
:104A900083800483CD880587028470BD70B50024AF
:104AA00000220023058C4FF6FF6635400584028CFA
:104AB0008388848B4FF68F752C404FF6FC752C4005
:104AC0000D882C434FF6FF552A400D894FF6FF768F
:104AD00006EA05252A434D8806EA05252A431F4D87
:104AE000A84202D0234DA8421DD14FF2FF752A40A3
:104AF0004D894FF6FF7606EA05252A434FF6FF3526
:104B00002A408D8806EA05252A434EF6FF752B407C
:104B10004DF6FF752B408D8906EA05152B43CD898F
:104B200006EA05152B4383808483CD88858702841C
:104B300070BD70B5002200230024058C4EF6FF7670
:104B400035400584038C8488828B48F6FF752A40A3
:104B50004FF6FF452A400D8820E00000002C014060
:104B60000004004000080040000C0040001000401D
:104B70000014004000340140004C0140005001404E
:104B80000054014000180040001C0040002000407C
:104B90000040014000440140004801404FF6FF76CC
:104BA00006EA05252A434DF6FF752B400D8906EAD6
:104BB00005352B434D8806EA05352B43FA4DA842AF
:104BC00002D0FA4DA84208D14BF6FF752C408D89D2
:104BD0004FF6FF7606EA85152C4384808283CD88C4
:104BE000A0F84050038470BD828B4FF2FF331A400F
:104BF0008283828B4FF6FF7303EA01231A43828379
:104C00007047F0B50C461546002200210026078C9F
:104C10004EF6FF7C07EA0C070784828B018C4FF667
:104C2000FF7707EA043640F6FF473A404FF6FF7732
:104C300007EA05273A434FF6FF7707EA03373A4377
:104C4000D94FB8420ED0D94FB8420BD0B0F1804FF7
:104C500008D0D74FB84205D0D64FB84202D0D64F71
:104C6000B84206D14DF6FF77394046F480573943B4
:104C700005E047F6FF57394044F4805739438283B3
:104C80000184F0BD828B4FF6F3731A408283828BCE
:104C90000A4382837047F0B50C4615460022002176
:104CA0000026078C4FF6FF6C07EA0C070784828BFF
:104CB000018C4FF6FF7707EA04264FF60C773A404F
:104CC0004FF6FF7707EA03172F433A43B64FB84230
:104CD0000ED0B64FB8420BD0B0F1804F08D0B44FD1
:104CE000B84205D0B34FB84202D0B34FB84206D154
:104CF0004FF6FF57394046F48077394305E04FF2CD
:104D0000FF57394044F48077394382830184F0BDF2
:104D1000028B4FF2FF331A400283028B4FF6FF7370
:104D200003EA01231A4302837047F0B50C46154687
:104D3000002200210026078C4FF6EF7C07EA0C07C3
:104D40000784028B018C4FF6FF7707EA041640F6C2
:104D5000FF473A404FF6FF7707EA03373A434FF6EB
:104D6000FF7707EA05273A438F4FB8420ED08F4F9F
:104D7000B8420BD0B0F1804F08D08D4FB84205D06B
:104D80008C4FB84202D08C4FB84206D14FF6DF7735
:104D9000394046F01007394305E04FF65F77394058
:104DA00044F01007394302830184F0BD028B4FF6B3
:104DB000F3731A400283028B0A4302837047F0B5F3
:104DC0000C46154600220021068C4FF6FE773E4029
:104DD0000684028B018C4FF60C7632407E1C06EA6C
:104DE00003162E433243704EB0420ED06F4EB04287
:104DF0000BD0B0F1804F08D06D4EB04205D06D4E53
:104E0000B04202D06C4EB04206D14FF6FD76314032
:104E100044F00106314305E04FF6F576314044F0A9
:104E20000106314302830184F0BD70B505460C468E
:104E30005D4885420ED05D4885420BD0B5F1804F6C
:104E400008D05B48854205D05A48854202D05A486E
:104E5000854200D100E000BF208850B92389A28894
:104E600061882846FFF7ABFFE1882846FFF79EFFE1
:104E700025E0208804280AD12389A2886188284651
:104E8000FFF753FFE1882846FFF742FF17E020882D
:104E900008280AD12389A28861882846FFF7FBFEEB
:104EA000E1882846FFF7EEFE09E02389A2886188A1
:104EB0002846FFF7A6FEE1882846FFF795FE70BD5D
:104EC0002DE9F04105460C4600260127608808B907
:104ED000022600E00026A088012801D1022700E078
:104EE00001272088A0B92389A28861882846FFF776
:104EF00066FFE1882846FFF759FF23893A46314685
:104F00002846FFF712FFE1882846FFF701FF13E06C
:104F10002389A28861882846FFF707FFE188284691
:104F2000FFF7F6FE23893A4631462846FFF747FF4A
:104F3000E1882846FFF73AFFBDE8F0810A884B88F0
:104F40001A438B881A43CB881A430B891A434B891F
:104F50001A438B891A43A0F8442070474FF6FF711B
:104F6000818000210180C180418001727047002151
:104F7000018041808180C180018141818181C18125
:104F80007047002101804180012181800021C18082
:104F9000018170470021018041808180C1800181B1
:104FA0004181818170470000002C014000340140A4
:104FB0000004004000080040000C004021B10288BD
:104FC00042F00102028004E002884FF6FE731A40AC
:104FD0000280704731B1B0F8442042F40042A0F89A
:104FE000442005E0B0F84420C2F30E02A0F84420AB
:104FF00070471AB183890B43838102E083898B4315
:10500000838170478182704741EA0203A0F84830EB
:1050100070471AB183890B43838102E083898B43F4
:105020008381704701894FF6F87211400181704702
:105030000A46002101894FF68F73194011430181FF
:10504000704730B504460D4629462046FFF7F0FF6D
:10505000208940F00700208130BD2DE9F041044651
:105060000D4616461F46602D06D13B4601223146AD
:105070002046FFF75AFE05E03B4601223146204616
:10508000FFF79DFE29462046FFF7D2FF208940F01A
:1050900007002081BDE8F08130B50C460021018970
:1050A000C9B24FF6FF7505EA032515432543294389
:1050B000018130BD2DE9F04105460E461746984660
:1050C000002443463A4631462846FFF7E5FF2C893F
:1050D0004FF6F870044044F007044FF68F70044018
:1050E00044F070042C81BDE8F081F0B504460D4613
:1050F00016461F463B46324629462046FFF7CCFF60
:10510000208940F480402081F0BD01858282704773
:105110000A46002101884FF68F7319401143018020
:105120007047F0B50C4615461E46002100220023AC
:105130000189028B038C4FF6F877394021434FF6F3
:10514000FC473A4040F201173A434FF6DD773B40C7
:105150004FF6FF7707EA06172F433B43018102838F
:105160000384F0BD0A460021018B4FF68F7319406E
:105170001143018370470A460021018B48F6FF73F3
:1051800019404FF6FF7303EA022319430183704766
:105190000A460021818B4FF68F731940114381839A
:1051A00070470A460021818B48F6FF7319404FF67D
:1051B000FF7303EA022319438183704721B10288F8
:1051C00042F08002028004E002884FF67F731A40AA
:1051D0000280704721B1828842F00402828004E09C
:1051E00082884FF6FB731A408280704721B1828813
:1051F00042F00802828004E082884FF6F7731A407A
:105200008280704721B1828842F00102828004E0EE
:1052100082884FF6FE731A40828070470A4600214A
:10522000018B4FF6F77319401143018370470A460B
:105230000021018B4FF2FF7319404FF6FF7303EA11
:1052400002231943018370470A460021818B4FF6E0
:10525000F77319401143818370470A460021818BFF
:105260004FF2FF7319404FF6FF7303EA022319430D
:10527000818370470A460021018B4FF6FB7319406A
:105280001143018370470A460021018B4FF6FF331B
:1052900019404FF6FF7303EA022319430183704755
:1052A0000A460021818B4FF6FB731940114381831D
:1052B00070470A460021818B4FF6FF3319404FF6A5
:1052C000FF7303EA02231943818370470A460021D2
:1052D000018B4FF67F7319401143018370470A46D3
:1052E0000021018BC1F30E014FF6FF7303EA022385
:1052F0001943018370470A460021818B4FF67F7363
:1053000019401143818370470A460021818BC1F304
:105310000E014FF6FF7303EA02231943818370479E
:105320000A460021018C4FF6FD7319401143018498
:1053300070470A460021018C4FF6F773194011435C
:10534000018470470A460021018C4FF6DF73194033
:105350004FF6FF7303EA02131943018470470A46AC
:105360000021018C4FF67F7319404FF6FF7303EA5B
:1053700002131943018470470A460021018C4FF63D
:10538000FF5319404FF6FF7303EA022319430184C8
:1053900070470A460021018C4FF2FF7319404FF607
:1053A000FF7303EA02231943018470470A46002170
:1053B000018C4DF6FF7319404FF6FF7303EA023379
:1053C00019430184704730B5002301248C40A3B2F7
:1053D000048C9C430484048C02FA01F5ADB22C4386
:1053E000048430BD30B5002304248C40A3B2048C67
:1053F0009C430484048C02FA01F5ADB22C4304846E
:1054000030BD70B503460020002418461830012531
:105410008D40ACB21D8CA5431D8409B1082909D16A
:1054200000EB6100056825F070050560056815430F
:1054300005600EE00D1FC5F34E052844056825F4F0
:10544000E045056005684FF6FF7606EA022635431B
:10545000056070BD21B1028842F00202028004E0C2
:1054600002884FF6FD731A400280704721B102880E
:1054700042F00402028004E002884FF6FB731A40F7
:105480000280704721B1828842F08002828004E06D
:1054900082884FF67F731A408280704702884FF6E9
:1054A000F7731A40028002880A430280704782889C
:1054B0004FF68F731A40828082880A438280704739
:1054C00002894FF6F8731A40028102890A43028169
:1054D000704702894FF67F731A40028102890A439E
:1054E000028170478184704781857047818670474B
:1054F0000187704781877047A0F840107047028885
:105500004FF6FF431A40028002880A430280704728
:105510000146888E70470146088F70470146888F84
:1055200070470146B1F8400070470146888C7047CB
:105530000146088D704702460020138A0B400BB1CC
:10554000012000E000207047CA430282704730B556
:105550000246002000230024158A05EA01039589EC
:1055600005EA010413B10CB1012000E0002030BDB8
:10557000CA4302827047000010B50120FEF7BAFE50
:105580000020FEF7B7FE10BD2A4908607047294980
:10559000091F086070472749843108607047014639
:1055A0000020254A10884FF67F4210400843224AC7
:1055B00010807047014600201F4A10884FF6807205
:1055C000104008431C4A1080704708B50022009222
:1055D000194A2C3A0092009A02440092009A1160F3
:1055E00008BD08B501460020009013482C380090F3
:1055F0000098084400900098008808BD0D489C3031
:105600000068C0B270470C480830008840F00100C4
:1056100009490831088070470648A0300068C0B2C8
:10562000704705480830008840F002000249083100
:105630000880704704860D422C6C004029B1504A06
:10564000128802434E4B1A8004E04D4A128882436E
:105650004B4B1A8070474A48001D008840F01000EC
:105660004749091D088070474548001D00884FF6CE
:10567000EF7108404249091D0880704700214048E9
:105680001C300188001F008841EA0040704700B5C7
:105690000246FFF7E0FF100C394918310880091D58
:1056A0000A80FFF7E1FF00BD00B50246FFF7D3FF18
:1056B000C2F30340324908310880091D0A80FFF710
:1056C000D3FF00BD00B50246FFF7C5FF100C2C4903
:1056D00020310880091D0A80FFF7C6FF00BD0020A9
:1056E0002749103109880907080B25491431098811
:1056F0000843704700BF2248001D008800F02000CA
:105700000028F8D070471E48001D00884FF6F7713A
:1057100008401B49091D088000BF1948001D00886A
:1057200000F008000028F8D0704701460020144A15
:10573000121D12880A400AB1012000E000207047C3
:105740000F49091D098881430D4A121D11807047B8
:10575000014600200A4A121D12880A40D0B2084AA7
:1057600012880A4012B108B1012000E00020704701
:105770000349091D09888143014A121D11807047A0
:105780000028004010B501210807FEF7A6FD002102
:105790004FF08050FEF7A1FD10BD2A490862704706
:1057A00028490861704701460020274A106820F008
:1057B000E0000843106070472249A031086070473C
:1057C00010B502460020204B186820F0030010435B
:1057D00018601E4B1B6843F004031C4C2360012916
:1057E00001D130BF00E020BF184B1B6823F0040339
:1057F000164C236010BD1448006840F004001249A4
:1058000008600846006840F0020008600F48006821
:1058100040F004000D49086000BF00BF30BF704772
:1058200001460020084A52680A400AB1012000E0FF
:10583000002070470449096841EA8001024A11606A
:105840007047000000000E420070004010ED00E0C4
:10585000002044490860091D0860091D0860091DF1
:10586000086041483F4914310860704700213D49B4
:105870008279002A3AD00A46126803689A430B4696
:105880001A600A1D126803689A430B1D1A60027998
:1058900011440A6803681A430A60324A08321268DF
:1058A00003689A432F4B08331A601A1D1268036865
:1058B0009A432C4B0C331A604279102A0ED11A1FCE
:1058C000126803681A43274B08331A601A1D1268BE
:1058D00003681A43234B0C331A600DE021494279C7
:1058E00011440A6803681A430A6005E0027911440A
:1058F0000A6803689A430A607047002101600171D9
:105900000C214171002181717047164910310968DD
:105910000143144A10321160704701460020114AB9
:10592000143212680A400AB1012000E000207047DA
:105930000C49143108607047014600200022094BD1
:105940001B6803EA0102074B14331B680B4013B1B9
:105950000AB1012000E000207047024914310860BC
:105960007047000000040140FFFF0F007047000077
:105970000FB4044910B503AA029800F053F910BC03
:105980005DF814FB0801002070B5044685690068C5
:10599000C10601D5302600E02026C00707D070BD23
:1059A000D4E9012130469047206A401C20626D1ED8
:1059B000F6D570BD70B5044685690078C00707D17B
:1059C00070BDD4E9012120209047206A401C20624C
:1059D0006D1EF6D570BD000070B504460D4621461B
:1059E0001068AFF300802188090502D50F4A7A4478
:1059F00002E00E4A7A440E32002104F1240305E04D
:105A000000F00F060009965D5E54491C0028F7D18E
:105A100020780023000704D5702D02D009B102239D
:105A200011322046BDE8704000F0A2B8780D0000A9
:105A30002DE9F05F894604464FF0000ADFF824B1F3
:105A4000FB44C0F820A02046E168884700287DD0AC
:105A5000252806D0D4E901219047206A401C206205
:105A6000F1E700255F462046E16888472028064682
:105A700007DB312E05D2B81910F8200C08B1054308
:105A8000F1E7A80701D525F00405C4F81CA00027FC
:105A9000C4F818A02A2E09D0304600F021F938B3F6
:105AA00004EB8708303EC8F8186019E059F8041B69
:105AB000204604EB87029161E1688847012F064682
:105AC00018D1E069002820DA25F020051DE0D8F87B
:105AD000180000EB800006EB40003038C8F81800D2
