:020000040800F2
:10500000780C00209D530008C9660008CB66000894
:10501000CF660008D3660008D766000800000000CD
:10502000000000000000000000000000DB66000837
:10503000DD66000800000000DF660008E166000889
:10504000B7530008B7530008B7530008D78B0008C0
:10505000B7530008B7530008B7530008B753000808
:10506000B7530008B7530008B7530008B7530008F8
:10507000B7530008B7530008B7530008B7530008E8
:10508000B7530008B7530008B7530008B7530008D8
:10509000B7530008B7530008B7530008B7530008C8
:1050A000B7530008B7530008B7530008B7530008B8
:1050B000B7530008B7530008B7530008B7530008A8
:1050C000B7530008B7530008B7530008B753000898
:1050D000B753000813530008B7530008B75300082C
:1050E000B7530008B7530008B753000800F002F8A0
:1050F00000F03AF80AA090E8000C82448344AAF138
:105100000107DA4501D100F02FF8AFF2090EBAE835
:105110000F0013F0010F18BFFB1A43F001031847EB
:10512000604D0000804D0000103A24BF78C878C15F
:10513000FAD8520724BF30C830C144BF04680C609D
:10514000704700000023002400250026103A28BFE5
:1051500078C1FBD8520728BF30C148BF0B607047E9
:105160001FB51FBD10B510BD04F01DF91146FFF7A6
:10517000F7FF01F018F904F03BF903B4FFF7F2FF71
:1051800003BC00F06BF8000010B56FF0040000F0F5
:1051900074F92E4800682E49B0FBF1F02D490870D3
:1051A0000846007800EB4001C1EBC0104FF6FF71DC
:1051B00001EAC0002849088010BD0146254A12783E
:1051C0004A434FF0E0235A6100229A611A4612695D
:1051D00042F001021A6100BF4FF0E022106900F0B6
:1051E00001021AB100F48032002AF5D04FF0E0221B
:1051F000126922F001024FF0E0231A6100229A6145
:1052000070470146144A12884A434FF0E0235A611E
:1052100000229A611A46126942F001021A6100BF27
:105220004FF0E022106900F001021AB100F4803260
:10523000002AF5D04FF0E022126922F001024FF06F
:10524000E0231A6100229A617047000020000020CC
:1052500000127A000000002002000020014600BF7A
:10526000704700BF494A128802F04002002AF9D074
:10527000C2B2464B1B1D1A80704710B586B004465B
:10528000012144F2040000F033FC4FF40070ADF84B
:10529000140003208DF8160018208DF8170005A9BA
:1052A0003B4800F069F94FF48060ADF81400042029
:1052B0008DF8170005A9364800F05EF925208DF815
:1052C000000003208DF801008DF8020001208DF808
:1052D0000300684600F087F801940020ADF808004C
:1052E000ADF80A00ADF80C00ADF810000C20ADF8D8
:1052F0000E0001A9254800F0A2FC012240F2255130
:10530000224800F034FD0121204800F024FD06B0C1
:1053100010BD10B540F225511C4800F00DFE10B331
:105320001A4800F089FDC4B21A48008800F4004011
:10533000C8B91848008800F4804060B10A2C03D036
:1053400000201449088020E01248008840F4004002
:105350001049088019E00D2C06D10E48008840F451
:1053600080400C49088010E00A480088C0F30D0016
:1053700009490C5407480088401C06490880084623
:105380000088C72801DD0020088010BD00380140DA
:10539000000801400800002018010020094880474B
:1053A00009480047FEE7FEE7FEE7FEE7FEE7FEE707
:1053B000FEE7FEE7FEE7FEE704480549054A064B1F
:1053C00070470000C3670008ED5000087806002011
:1053D000780C00207808002078080020314901432B
:1053E000314A1160704770B5002100230F22C47844
:1053F00004B32D4C246804F4E064C4F5E064210A8D
:10540000C1F10403CA40447804FA03F184781440DB
:1054100021430901254C0678A155047804F01F05A5
:105420000124AC4005786D11AD0005F1E025C5F80B
:10543000004109E0047804F01F050124AC401C4D34
:105440000678761145F8264070BD1A4A0A40024394
:10545000154B1B1F1A60704739B1134A121D126891
:105460000243114B1B1D1A6006E00F4A121D126801
:1054700082430D4B1B1D1A607047042808D14FF062
:10548000E021096941F004014FF0E022116107E0D9
:105490004FF0E021096921F004014FF0E022116191
:1054A000704700000000FA050CED00E000E400E0A9
:1054B00080E100E080FFFF1F10B50446CC48844225
:1054C00008D10121042000F02DFB0021042000F070
:1054D00029FB46E0C748844208D10121082000F09A
:1054E00021FB0021082000F01DFB3AE0C248844265
:1054F00008D10121102000F015FB0021102000F040
:1055000011FB2EE0BD48844208D10121202000F08B
:1055100009FB0021202000F005FB22E0B84884426E
:1055200008D10121402000F0FDFA0021402000F0C8
:10553000F9FA16E0B348844208D10121802000F036
:10554000F1FA0021802000F0EDFA0AE0AE48844232
:1055500007D10121801500F0E5FA0021A01500F027
:10556000E1FA10BD10B50121084600F0DBFA002178
:10557000012000F0D7FA10BD2DE9F04102460025C8
:105580000026002000230024002791F803C00CF01F
:105590000F0591F803C00CF0100CBCF1000F03D004
:1055A00091F802C04CEA050591F800C0BCF1000F6B
:1055B00031D0146800202BE04FF0010C0CFA00F3FE
:1055C000B1F800C00CEA03069E4220D183004FF0E0
:1055D0000F0C0CFA03F7BC4305FA03FC4CEA040475
:1055E00091F803C0BCF1280F06D14FF0010C0CFA62
:1055F00000FCC2F814C00AE091F803C0BCF1480FE7
:1056000005D14FF0010C0CFA00FCC2F810C0401C90
:105610000828D1D31460B1F800C0BCF1FF0F34DD0D
:10562000546800202EE000F1080C4FF0010808FA41
:105630000CF3B1F800C00CEA03069E4221D18300AE
:105640004FF00F0C0CFA03F7BC4305FA03FC4CEACD
:10565000040491F803C0BCF1280F05D100F1080C37
:1056600008FA0CF8C2F8148091F803C0BCF1480F96
:1056700007D100F1080C4FF0010808FA0CF8C2F845
:105680001080401C0828CED35460BDE8F0814FF64E
:10569000FF710180022181700421C17070470246B0
:1056A000002093680B400BB1012000E00020704700
:1056B0000146886880B2704702460020D3680B40DC
:1056C0000BB1012000E0002070470146C86880B29D
:1056D000704701617047416170470AB1016100E0A4
:1056E00041617047C16070474FF480320A43826164
:1056F0008161826182698269704702460020434B62
:1057000018684FF68073184040EA021008433F4B78
:10571000186070473E49C8617047F0B50A460023DB
:1057200000240021002500F00046B6F1004F02D110
:10573000364EF16901E0354E7168C0F3034583B21E
:1057400000F44016B6F5401F08D121F070612F4ECD
:10575000766826F070662D4F7E6012E000F48016A9
:10576000B6F5801F06D1032606FA05F4A14341F0E1
:10577000706106E0460D360103FA06F6B14341F0CA
:10578000706122B1460D360103FA06F6314300F08E
:105790000046B6F1004F02D11C4EF16101E01B4EF4
:1057A0007160F0BD30B500228B071C0F0F2303FA88
:1057B00004F2164B08338C1053F824309343134CE7
:1057C00008348D1044F8253023468C1053F82430CB
:1057D0008C07240F00FA04F423430C4C08348D107A
:1057E00044F8253030BD0A49DC31086070470000BC
:1057F00000080140000C014000100140001401406D
:1058000000180140001C0140002001400000014040
:1058100000002042DF48006840F00100DD490860D8
:1058200008464068DC490840DA4948600846006894
:10583000DA490840D74908600846006820F480200B
:1058400008600846406820F4FE0048604FF41F00DE
:1058500088607047CF49096821F48031CD4A1160D2
:105860001146096821F480211160B0F5803F03D012
:10587000B0F5802F0ED106E0C649096841F48031A9
:10588000C44A116007E0C349096841F4A021C14A34
:10589000116000E000BF00BF704710B50146002254
:1058A000002300204A11012A02D1BA4C236806E0E5
:1058B000022A02D1B74C236A01E0B64C636A01F0B8
:1058C0001F02012494401C400CB1012000E0002084
:1058D00010BD38B5002000900024002500BF312005
:1058E000FFF7DBFF05460098401C00900098B0F5DC
:1058F000A06F01D0002DF2D03120FFF7CEFF08B10C
:10590000012400E00024204638BD01460020A14AC1
:10591000106820F0F80040EAC10010607047A0490C
:1059200008607047024600209A4B586820F47C10AB
:1059300042EA01031843974B58607047984908663C
:10594000704701460020934A506820F00300084346
:10595000506070478F48406800F00C007047014667
:1059600000208C4A506820F0F000084350607047D7
:1059700001460020874A506820F4E06008435060E8
:10598000704701460020834A506820F4605040EA86
:10599000C1005060704729B17E4A527A02437D4B64
:1059A0005A7204E07B4A527A82437A4B5A727047A9
:1059B0007B49D8310860704701460020754A50681D
:1059C00020F440400843506070470021714A203263
:1059D0001170704A82F82010012802D004280AD1E0
:1059E00004E001216B4A2032117005E00521694A6B
:1059F0002032117000E000BF00BF704769490860A5
:105A000070476449096A0143624A116270476549F7
:105A100044390860704730B500210022002400237B
:105A20005C4D6D6805F00C0121B1042905D00829F1
:105A300023D105E05C4D056022E05B4D05601FE071
:105A4000544D6D6805F47012524D6D6805F4803444
:105A5000022505EB92421CB9544D554305600BE0FD
:105A60004C4D6D6805F400351DB1504D5543056032
:105A700002E04D4D5543056002E04B4D056000BF0F
:105A800000BF444D6D6805F0F0010909484D6B5C9D
:105A90000568DD4045603F4D6D6805F4E061090A29
:105AA000434D6B5C4568DD4085603A4D6D6805F49B
:105AB0006051C90A3E4D6B5C4568DD40C560354D9F
:105AC0006D6805F44041890B3A4D6B5CC568B5FBC8
:105AD000F3F5056130BD29B12E4A526902432D4BC1
:105AE0005A6104E02B4A526982432A4B5A6170473B
:105AF00029B1284A92690243264B9A6104E0254A5B
:105B000092698243234B9A61704729B1214AD26935
:105B10000243204BDA6104E01E4AD26982431D4BE6
:105B2000DA61704729B11B4AD2680243194BDA6027
:105B300004E0184AD2688243164BDA60704729B1F4
:105B4000144A12690243134B1A6104E0114A1269A4
:105B50008243104B1A617047124940390860704700
:105B60000F49C86470470B49C87170470948406ABB
:105B700040F0807007494862704701460020054A9E
:105B800092680A400AB1012000E0002070470149F4
:105B900088727047001002400000FFF8FFFFF6FE19
:105BA000000042428004424200127A0000093D0097
:105BB0000A0000201A00002010B50446FB48844269
:105BC00009D101218803FFF7ADFF00214FF4804088
:105BD000FFF7A8FF32E0F648844209D101214804CA
:105BE000FFF7ADFF00214FF40030FFF7A8FF25E0DD
:105BF000F048844209D101218804FFF7A0FF002169
:105C00004FF48020FFF79BFF18E0EB48844209D156
:105C10000121C804FFF793FF00214FF40020FFF794
:105C20008EFF0BE0E548844208D101210805FFF70B
:105C300086FF00214FF48010FFF781FF10BD2DE992
:105C4000F04786B005460E460024A24600BFA14696
:105C50000027B08900B100BF2F462C8A4CF6FF7098
:105C60000440F08804432C82AC894EF6F3100440C3
:105C7000B08831890843718908430443AC81AC8AF8
:105C80004FF6FF400440B0890443AC8201A8FFF7FF
:105C9000C2FEC648874202D1DDF810A001E0DDF85F
:105CA0000CA0A88900F4004040B10AEBCA0000EB48
:105CB0000A1031684900B0FBF1F807E00AEBCA00AE
:105CC00000EB0A1031688900B0FBF1F86420B8FBE2
:105CD000F0F004012009642101FB1089A88900F477
:105CE000004040B1322000EBC900B0FBF1F000F001
:105CF0000700044308E0322000EB09106421B0FBE8
:105D0000F1F000F00F0004432C8106B0BDE8F087ED
:105D10004FF41651016000218180C18001810C2166
:105D2000418100218181704710B502460020108A10
:105D30004FF2FF0318400B884C8823438C88234381
:105D4000CC8823431843108210BD0021018041807C
:105D50008180C180704721B1828942F400528281E2
:105D600004E082894DF6FF731A4082817047F0B5D6
:105D70000346002400260025002040F66A17B94299
:105D800000D100BF1846C1F3421401F01F060127DD
:105D900007FA06F5012C01D10C3004E0022C01D1E8
:105DA000103000E014301AB107682F43076002E09A
:105DB0000768AF430760F0BD1AB1838A0B43838243
:105DC00002E0838A8B4383827047028A4FF6F07326
:105DD0001A400282028A0A430282704782894FF285
:105DE000FF731A40828182890A438281704721B100
:105DF000828942F00202828104E082894FF6FD73BB
:105E00001A4082817047028A4FF6DF731A4002827D
:105E1000028A0A430282704721B1028A42F4804218
:105E2000028204E0028A4BF6FF731A400282704736
:105E3000C1F308028280704701468888C0F30800D9
:105E40007047818941F0010181817047028BD2B294
:105E50000283028B42EA012202837047028B02F422
:105E60007F420283028B0A430283704721B1828AF8
:105E700042F02002828204E0828A4FF6DF731A40E9
:105E80008282704721B1828A42F01002828204E04D
:105E9000828A4FF6EF731A408282704721B1828A5C
:105EA00042F00802828204E0828A4FF6F7731A40B9
:105EB0008282704721B1828942F40042828103E0EC
:105EC0008289C2F30E028281704721B1828A42F434
:105ED0000062828204E0828A4FF2FF731A4082825B
:105EE0007047828A4FF6FB731A408282828A0A4385
:105EF0008282704721B1828A42F00202828204E0EB
:105F0000828A4FF6FD731A40828270470246002053
:105F1000B1F5007F00D100BF13880B400BB1012009
:105F200000E00020704701F40072B2F5007F00D15C
:105F300000BFCA430280704770B5024600240023A8
:105F40000025002040F66A16B14200D100BFC1F31F
:105F5000421501F01F03012606FA03F3012D02D1B9
:105F60009689334006E0022D02D1168A334001E0C3
:105F7000968A33400C12012606FA04F4168834403F
:105F800013B10CB1012000E0002070BD10B500225B
:105F9000002340F66A14A14200D100BF0A12012476
:105FA0009440A3B2DC43048010BD000000380140DF
:105FB0000044004000480040004C004000500040B9
:105FC00010B50120FFF7C8FD0020FFF7C5FD10BD8B
:105FD0002A49086070472949091F08607047274906
:105FE00084310860704701460020254A10884FF62A
:105FF0007F4210400843224A10807047014600202B
:106000001F4A10884FF68072104008431C4A1080C7
:10601000704708B500220092194A2C3A0092009A63
:1060200002440092009A116008BD08B501460020A4
:10603000009013482C380090009808440090009875
:10604000008808BD0D489C300068C0B270470C48FD
:106050000830008840F00100094908310880704785
:106060000648A0300068C0B2704705480830008874
:1060700040F00200024908310880704704860D4252
:106080002C6C004029B1504A128802434E4B1A80B2
:1060900004E04D4A128882434B4B1A8070474A48AD
:1060A000001D008840F010004749091D0880704716
:1060B0004548001D00884FF6EF7108404249091D10
:1060C00008807047002140481C300188001F00886C
:1060D00041EA0040704700B50246FFF7E0FF100CB0
:1060E000394918310880091D0A80FFF7E1FF00BD1A
:1060F00000B50246FFF7D3FFC2F30340324908312F
:106100000880091D0A80FFF7D3FF00BD00B50246D5
:10611000FFF7C5FF100C2C4920310880091D0A80AB
:10612000FFF7C6FF00BD0020274910310988090785
:10613000080B2549143109880843704700BF2248DD
:10614000001D008800F020000028F8D070471E488D
:10615000001D00884FF6F77108401B49091D088093
:1061600000BF1948001D008800F008000028F8D082
:10617000704701460020144A121D12880A400AB1D5
:10618000012000E0002070470F49091D0988814364
:106190000D4A121D11807047014600200A4A121D47
:1061A00012880A40D0B2084A12880A4012B108B1D7
:1061B000012000E0002070470349091D0988814340
:1061C000014A121D118070470028004010B50121BE
:1061D0000807FFF7B4FC00214FF08050FFF7AFFC39
:1061E00010BD2A4908627047284908617047014676
:1061F0000020274A106820F0E00008431060704734
:106200002249A0310860704710B502460020204B9B
:10621000186820F00300104318601E4B1B6843F001
:1062200004031C4C2360012901D130BF00E020BFD2
:10623000184B1B6823F00403164C236010BD144850
:10624000006840F00400124908600846006840F009
:10625000020008600F48006840F004000D49086023
:1062600000BF00BF30BF704701460020084A526897
:106270000A400AB1012000E0002070470449096883
:1062800041EA8001024A11607047000000000E429E
:106290000070004010ED00E010B50C23E1A20021D9
:1062A000084602F0A3F90C23E0A21946002002F0F0
:1062B0009DF90C23E0A21821002002F097F90C238D
:1062C000DDA22421002002F091F90C23DAA2302172
:1062D000002002F08BF902F042F84FF47A70FEF7DA
:1062E00090FF4FF47A70FEF78CFF4FF47A70FEF750
:1062F00088FF4FF47A70FEF784FF02F06FF800BF5A
:1063000000F068FE0028FBD10C23CFA20021084634
:1063100002F06CF902F023F84FF47A70FEF771FF87
:106320004FF47A70FEF76DFF00BF01F02AF80028E5
:10633000FBD10C23C7A2194602F058F902F00FF85E
:106340004FF47A70FEF75DFF4FF47A70FEF759FF55
:1063500000BF02F0E1FB0028FBD10C23C0A21821F2
:1063600002F044F901F0FBFF4FF47A70FEF749FFA9
:106370004FF47A70FEF745FF00BF02F098FE002848
:10638000FBD10C23B8A2242102F030F901F0E7FF81
:106390004FF47A70FEF735FF4FF47A70FEF731FF55
:1063A00002F01CF810BD08B5B248B34908604FF4BC
:1063B000A060FFF713F8FEF7E7FE02F0AFFC02F073
:1063C00089FF02F0C7F902F0A7FB00F0D5FD00F04D
:1063D00021FE02F0BDFC02F057FF00F0EDFF01F0DE
:1063E000FDFFFFF759FFA1E0A4488078A449097890
:1063F000884271D0A1488078A14908700C20009093
:106400009E48828804230021084602F0A5F8012056
:106410000C232F2200210090182002F043F80C20BA
:10642000009096488279022300211E2002F094F801
:1064300001200C232F22002100902A2002F032F8A4
:106440000C2000908D48C27902230021302002F0F8
:1064500083F80C2000908948027802230C21002048
:1064600002F07AF801200C233A22194600901846CF
:1064700002F018F80C2000908048427802230C218A
:10648000122002F069F801200C233A2219460090EC
:106490001E2002F007F80C20009078488278022332
:1064A0000C21242002F058F87448007A072837D2CB
:1064B000DFE800F0040B131A21282F000C2371A22F
:1064C0000021422002F092F82AE00C236FA2002162
:1064D000422002F08BF823E023E00C236DA2002180
:1064E000422002F083F81BE00C236CA20021422022
:1064F00002F07CF814E00C236BA20021422002F091
:1065000075F80DE00C236BA20021422002F06EF81A
:1065100006E00C2369A20021422002F067F800BFC8
:1065200000BF01F01CFF0220FEF76BFE5CE710B518
:1065300000F0A6FF4FF44870FEF763FE4FF448707A
:10654000FEF75FFE00F0EBFF4FF44870FEF759FED8
:106550004FF44870FEF755FE4FF44870FEF751FEB9
:106560004FF44870FEF74DFE01F0B3F84FF4487059
:10657000FEF747FE4FF44870FEF743FE4FF44870B5
:10658000FEF73FFE4FF44870FEF73BFE01F07BF94B
:106590004FF44870FEF735FE4FF44870FEF731FEB9
:1065A0004FF44870FEF72DFE4FF44870FEF729FEB9
:1065B00001F01BFA4FF44870FEF723FE4FF44870C9
:1065C000FEF71FFE4FF44870FEF71BFE4FF44870B5
:1065D000FEF717FE01F081FB4FF44870FEF711FE45
:1065E0004FF44870FEF70DFE4FF44870FEF709FEB9
:1065F0004FF44870FEF705FE01F0FBFC4FF44870C5
:10660000FEF7FFFD4FF44870FEF7FBFD4FF44870B6
:10661000FEF7F7FD4FF44870FEF7F3FD00F0CCFEF7
:1066200010BD0000484150505900000045564552E9
:1066300059204441590000004249205945205348FF
:1066400045204A49000000004951533236335F4F1C
:106650004B0000004C5035353233315F4F4B20003A
:10666000525443204F4B00004154323443323536AC
:10667000204F4B000050000808ED00E00806002005
:106680001E00002053756E64617900004D6F6E64CA
:106690006179000054756573646179005765646EB3
:1066A00065646179000000005468757273646179F3
:1066B00000000000467269646179000053617475DE
:1066C0007264617900000000704700BFFEE700BF00
:1066D000FEE700BFFEE700BFFEE770477047704768
:1066E000704700000CB50020019000906C480068D5
:1066F00040F480306A49086000BF6948006800F4CF
:10670000003000900198401C0190009818B9019841
:10671000B0F5A06FF1D16248006800F4003010B10C
:106720000120009001E0002000900098012843D152
:106730005C48006840F010005A490860084600684C
:1067400020F0030008600846006840F0020008607E
:1067500053484068524948600846406848600846C7
:10676000406840F4806048600846406820F47C102F
:1067700048600846406840F4E810486008460068F1
:1067800040F08070086000BF4548006800F000706D
:106790000028F9D04248406820F003004049486092
:1067A0000846406840F00200486000BF3C4840682E
:1067B00000F00C000828F9D10CBD10B5FFF792FFCE
:1067C00010BD10B53648006840F00100344908603B
:1067D0000846406834490840314948600846006826
:1067E000324908402E4908600846006820F480209D
:1067F00008600846406820F4FE0048604FF41F001F
:106800008860FFF7DAFF4FF000602949086010BD8B
:1068100010B5002100200022214B5B6803F00C0121
:1068200021B1042906D0082928D107E0214B224CA8
:10683000236027E01F4B204C236023E0184B5B684C
:1068400003F47010164B5B6803F48032022303EBF1
:10685000904022B9194B4343174C23600DE0104B75
:106860005B6803F4003323B1144B4343124C2360A1
:1068700003E0104B4343104C236003E00D4B0E4CE0
:10688000236000BF00BF064B5B68C3F303130C4CCF
:10689000E15C094B1B68CB40074C236010BD000036
:1068A00000100240002002400000FFF8FFFFF6FE4B
:1068B00008ED00E000127A002000002000093D00F1
:1068C0002400002008B501210C20FFF711F9C02099
:1068D000ADF8000010208DF8030003208DF80200B1
:1068E0006946FD48FEF748FE0420ADF80000282068
:1068F0008DF8030003208DF802006946F748FEF783
:106900003BFE4021F448FEF7E4FE8021F248FEF70A
:10691000E0FE0420FEF775FC08BD08B54020ADF888
:10692000000014208DF8030003208DF80200694652
:10693000E948FEF721FE08BD08B54020ADF800008B
:1069400004208DF803006946E348FEF715FE08BDF4
:1069500008B58020ADF8000014208DF80300032056
:106960008DF802006946DC48FEF706FE08BD08B552
:106970008020ADF8000004208DF803006946D64859
:10698000FEF7FAFD08BD08B50420ADF80000282088
:106990008DF803006946D148FEF7EEFD08BD10B53D
:1069A000FFF7BBFFFFF7D4FFFFF7EDFF00BF0421A8
:1069B000CA48FEF774FE0028F9D1FFF7BDFF00BFFB
:1069C0004021C548FEF76BFE0028F9D08021C2485F
:1069D000FEF77FFE00BF8021BF48FEF760FE002863
:1069E000F9D00420FEF7E9FB8021BB48FEF773FED7
:1069F000FFF7AEFF0420FEF7E0FBFFF78EFF40211C
:106A0000B548FEF768FE10BD10B500BF0421B348BD
:106A1000FEF745FE0028F9D1FFF78EFF00BF4021A9
:106A2000AD48FEF73CFE0028F9D08021AA48FEF7C9
:106A300050FE00BF8021A848FEF731FE0028F9D0A3
:106A40000420FEF7BAFB8021A348FEF744FEFFF7BF
:106A50007FFF0420FEF7B1FBFFF75FFF40219E4858
:106A6000FEF739FE10BD10B580219B48FEF733FEBE
:106A7000FFF76EFF0120FEF7A0FBFFF75DFF00BFF1
:106A800040219548FEF70BFE0028F9D00120FEF7C3
:106A900094FB80219048FEF71CFE00BF80218E48A9
:106AA000FEF7FDFD0028F9D00120FEF786FB10BDA2
:106AB00070B50024FFF75BFF002528E00120FEF7FA
:106AC0007CFBFFF739FF0120FEF777FB00BF402179
:106AD0008148FEF7E4FD0028F9D06006040E01208D
:106AE000FEF76BFB80217C48FEF7D9FD08B1601CE6
:106AF000C4B20120FEF761FBFFF70FFF402176488B
:106B0000FEF7E9FD0120FEF758FB681CC5B2082D11
:106B1000D4DB80217048FEF7DEFDFFF719FF00BFD0
:106B200080216D48FEF7BBFD0028F9D10220FEF759
:106B300044FBFFF701FF00BF40216748FEF7AFFDB0
:106B40000028F9D00220FEF738FBFFF7E6FE4021CF
:106B50006148FEF7C0FD0320FEF72FFB204670BD05
:106B600070B50024FFF703FF002528E00120FEF7A1
:106B700024FBFFF7E1FE0120FEF71FFB00BF4021D1
:106B80005548FEF78CFD0028F9D06006040E012060
:106B9000FEF713FB80215048FEF781FD08B1601C11
:106BA000C4B20120FEF709FBFFF7B7FE40214A48B7
:106BB000FEF791FD0120FEF700FB681CC5B2082D11
:106BC000D4DB80214448FEF784FD00BF8021424889
:106BD000FEF765FD0028F9D00220FEF7EEFAFFF778
:106BE000ABFE00BF40213C48FEF759FD0028F9D01C
:106BF0000220FEF7E2FAFFF790FE40213648FEF74A
:106C00006AFD0320FEF7D9FA204670BD2DE9F04158
:106C100004460A26002730E004F0800058B18021A5
:106C20002D48FEF756FD00BF80212B48FEF737FDAB
:106C30000028F9D005E080212748FEF74CFDFFF73A
:106C400087FE6006040E0120FEF7B7FAFFF774FE18
:106C500000BF40212048FEF722FD0028F9D0042083
:106C6000FEF7ABFAFFF759FE40211B48FEF733FD54
:106C70000220FEF7A2FA781CC7B2082FCCDB022054
:106C8000FEF79BFAFFF773FEFFF756FE00BF4021A9
:106C90001148FEF704FD0028F9D00120FEF78DFA17
:106CA0001EE0701EC6B20A20FEF787FAC6B90120A0
:106CB000FEF783FAFFF731FE40210748FEF70BFD90
:106CC0000120FEF77AFA002580210348FEF701FD36
:106CD0002846BDE8F0810000000C0140000801409A
:106CE00080210C48FEF7DBFC0028DAD10120FEF7FA
:106CF00064FAFFF712FE40210648FEF7ECFC012083
:106D0000FEF75BFA012580210248FEF7E2FC2846E7
:106D1000DFE70000000C01402DE9F04105460E467A
:106D200017469846002101EB4501C8B2FFF76EFFF8
:106D30003046FFF76BFF002404E0385DFFF766FF85
:106D4000601CC4B24445F8DBBDE8F0812DE9F04198
:106D50000646884617461C46002101EB4601C8B28C
:106D6000FFF754FF4046FFF751FFFFF74DFE0121AB
:106D700001EB4601C8B2FFF749FF012C09DD0025F0
:106D800004E0FFF795FE7855681CC5B2601EA84266
:106D9000F7DCFFF7E5FE611E7854BDE8F08110B521
:106DA000FFF7FDFD0223984A00214420FFF7CEFFA4
:106DB000FFF759FE002094490870FFF7F0FD01230A
:106DC000914A19464420FFF7A7FFFFF74CFE0F201A
:106DD0008D490870FFF7E3FD01238B4A0D21442004
:106DE000FFF79AFFFFF73FFE082087490870202031
:106DF00048708870C87008200871002048711420FD
:106E000088710420C871FFF7CAFD08237E4A0A2151
:106E10004420FFF781FFFFF726FE00207A49087023
:106E20003020487040208870FFF7B9FD0323764A70
:106E30000B214420FFF770FFFFF715FE0820724971
:106E4000087048708870C870FFF7A9FD04236E4A67
:106E500007214420FFF760FFFFF705FE00206A4985
:106E600008701D204870402088700020C8700320E2
:106E70000871FFF794FD0523634A09214420FFF7B9
:106E80004BFFFFF7F0FD51205F4908704920487023
:106E90004A2088704920C870FFF781FD04235A4AB0
:106EA00008214420FFF738FFFFF7DDFD0020564999
:106EB0000870FFF774FD0123534A0B214420FFF7AC
:106EC0002BFFFFF7D0FD05204F4908705120487077
:106ED00033208870FFF763FD03234B4A0C214420C5
:106EE000FFF71AFFFFF7BFFD102047490870FFF7B3
:106EF00056FD0123444A09214420FFF70DFFFFF707
:106F0000B2FD00BF0A20FEF77CF9FFF748FD012320
:106F10003D4A19464420FFF719FFFFF7A4FD3A4800
:106F2000007800F004000428ECD0002036490870F6
:106F30005D204870422088700020C87003200871CE
:106F4000FFF72DFD0523304A09214420FFF7E4FE19
:106F5000FFF789FD10BD10B500202B4908701D20DA
:106F60004870FFF71CFD0223274A09214420FFF740
:106F7000D3FEFFF778FD10BD10B5FFF7A3FCFFF7B8
:106F8000EAFFFFF70CFF10BD10B5FFF708FD022365
:106F90001D4A01214420FFF7D9FEFFF735FD0423E8
:106FA000194A921C03214420FFF7D0FEFFF72CFD65
:106FB0000323154AD21C02214420FFF7C7FEFFF726
:106FC00052FD11488078114908700F48C078104967
:106FD000087010BD10B5FFF7E2FC02230A4A002139
:106FE0004420FFF7B3FEFFF73EFD0020044607E014
:106FF0000548005D3C2801D0012010BD0020FCE7C1
:10700000022CF5DB00BFF8E7E0010020340000208F
:107010003500002008B501210420FEF769FD182085
:10702000ADF8000003208DF8020010208DF8030059
:107030006946FE48FEF7A0FA1021FC48FEF749FB1E
:107040000821FA48FEF745FB2020ADF8000010208B
:107050008DF8030003208DF802006946F348FEF71F
:107060008BFA01222021F148FEF737FB08BD08B555
:107070001020ADF8000014208DF8030003208DF8D7
:1070800002006946E948FEF777FA08BD08B5102006
:10709000ADF8000004208DF803006946E348FEF7D0
:1070A0006BFA08BD10B51021E048FEF712FB052071
:1070B000FEF783F80821DD48FEF70BFB0520FEF7FD
:1070C0007CF81021D948FEF706FB0520FEF775F87D
:1070D0000821D648FEF7FFFA0520FEF76EF810BD2E
:1070E00010B51021D148FEF7F6FA0520FEF765F835
:1070F0000821CE48FEF7EDFA0520FEF75EF81021D4
:10710000CA48FEF7E6FA0520FEF757F80821C748F7
:10711000FEF7E1FA0520FEF750F810BD70B5054600
:10712000002420E005FA04F000F0800020B11021D6
:10713000BE48FEF7CEFA03E01021BC48FEF7CBFABA
:107140000520FEF73AF80821B848FEF7C2FA0520F4
:10715000FEF733F80821B548FEF7BDFA0520FEF723
:107160002CF8601CC4B2082CDCDB70BD10B5012407
:10717000FFF78CFF0320FEF720F80821AB48FEF74D
:10718000A8FA0520FEF719F81021A848FEF787FA9B
:1071900000B100240821A548FEF79DFA0120FEF762
:1071A0000CF8FFF764FF0420FEF707F8204610BD37
:1071B00010B508219D48FEF78EFAFFF758FF102101
:1071C0009A48FEF788FA0520FDF7F7FF082197484F
:1071D000FEF77FFA0520FDF7F0FF08219348FEF740
:1071E0007AFA10BD10B508219048FEF774FAFFF73F
:1071F0003EFF10218D48FEF76CFA0520FDF7DDFFFC
:1072000008218A48FEF765FA0520FDF7D6FF082118
:107210008648FEF760FA10BD70B505460024FFF7FA
:1072200035FF002618E008218048FEF754FA0420B4
:10723000FDF7C3FF08217D48FEF74BFA6006040EF8
:1072400010217A48FEF72BFA08B1601CC4B2012065
:10725000FDF7B3FF701CC6B2082EE4DB15B9FFF7CB
:10726000C1FF01E0FFF7A4FF204670BD70B50646E0
:107270000C461546FFF716FF3046FFF74FFFFFF7A6
:1072800075FF2046FFF74AFFFFF770FF2846FFF71C
:1072900045FFFFF76BFFFFF723FF70BD2DE9F041BE
:1072A00080460D4616461F46FFF7FCFE4046FFF798
:1072B00035FFFFF75BFF2846FFF730FFFFF756FF6C
:1072C000002406E0385DFFF729FFFFF74FFF601C41
:1072D000C4B2B442F6DBFFF703FFBDE8F0812DE94D
:1072E000F0410746884616461C46FFF7DBFE384647
:1072F000FFF714FFFFF73AFF4046FFF70FFFFFF7D6
:1073000035FFFFF7CFFE791CC8B2FFF707FFFFF785
:107310002DFF012C0ADD002505E00120FFF77CFF91
:107320007055681CC5B2601EA842F6DC0020FFF74D
:1073300073FF611E7054FFF7D3FEBDE8F08110B5F6
:10734000FF223D216420FFF791FF4FF4FA60FDF723
:1073500034FF402200216420FFF788FF4FF4FA60D9
:10736000FDF72BFF04223E216420FFF77FFF192049
:10737000FDF747FF01232E4A3F216420FFF7AFFFAF
:1073800010BD10B500202A490870FF22402164205A
:10739000FFF76CFF4FF4FA60FDF70FFF0123244A5B
:1073A00040216420FFF79BFF21480078FF2801D18E
:1073B000002010BD0120FCE710B50022114664201A
:1073C000FFF754FFC820FDF7F8FE10BD10B50446C6
:1073D000002211466420FFF749FFC820FDF7EDFEAB
:1073E000FF223D216420FFF741FFC820FDF7E5FEA5
:1073F000402200216420FFF739FFC820FDF7DDFEA1
:107400004D2236216420FFF731FFC820FDF7D5FE5D
:10741000224616216420FFF729FF22461621642008
:10742000FFF724FF22461721642003E000080140F3
:10743000FE010020FFF71AFF224618216420FFF703
:1074400015FF224619216420FFF710FF22461A215A
:107450006420FFF70BFF22461B216420FFF706FF85
:1074600022461C216420FFF701FF22461D216420D3
:10747000FFF7FCFE22461E216420FFF7F7FE10BD39
:1074800010B5002211466420FFF7F0FEC820FDF77A
:1074900094FEFF223D216420FFF7E8FEC820FDF79F
:1074A0008CFE402200216420FFF7E0FEC820FDF79B
:1074B00084FE4D2236216420FFF7D8FEC820FDF758
:1074C0007CFE022216216420FFF7D0FE0222172143
:1074D0006420FFF7CBFE022218216420FFF7C6FECE
:1074E000022219216420FFF7C1FE02221A21642022
:1074F000FFF7BCFE02221B216420FFF7B7FE022229
:107500001C216420FFF7B2FE02221D216420FFF738
:10751000ADFE02221E216420FFF7A8FE10BD10B5AB
:10752000002211466420FFF7A1FE4FF4FA60FDF738
:1075300044FEFF223D216420FFF798FE4FF4FA60DD
:10754000FDF73BFE402200216420FFF78FFE4FF441
:10755000FA60FDF732FE4D2236216420FFF786FEE9
:1075600000224C216420FFF781FE152201216420B6
:10757000FFF77CFE4FF4FA60FDF71FFE00224F215B
:107580006420FFF773FE9D2250216420FFF76EFEFA
:10759000062251216420FFF769FE02225221642055
:1075A000FFF764FEFF2253216420FFF75FFE0322F2
:1075B00054216420FFF75AFEFF2255216420FFF773
:1075C00055FE9D2256216420FFF750FE02225721CE
:1075D0006420FFF74BFE022258216420FFF746FE8D
:1075E000FF2259216420FFF741FE03225A21642023
:1075F000FFF73CFEFF225B216420FFF737FE9D2250
:107600005C216420FFF732FE04225D216420FFF735
:107610002DFE02225E216420FFF728FEFF225F215B
:107620006420FFF723FE032260216420FFF71EFE83
:10763000FF2261216420FFF719FE9D226221642050
:10764000FFF714FE002263216420FFF70FFE0222E1
:1076500064210846FFF70AFEFF2265216420FFF738
:1076600005FE032266216420FFF700FEFF2267214A
:107670006420FFF7FBFD9D2268216420FFF7F6FDE3
:10768000002269216420FFF7F1FD02226A216420B3
:10769000FFF7ECFDFF226B216420FFF7E7FD0322DB
:1076A0006C216420FFF7E2FDFF226D216420FFF7CB
:1076B000DDFD002237216420FFF7D8FD6A2200217A
:1076C0006420FFF7D3FD2A2201216420FFF7CEFDBD
:1076D00010BD10B5002211466420FFF7C7FD4FF41E
:1076E000FA60FDF76AFDFF223D216420FFF7BEFD31
:1076F0004FF4FA60FDF761FD402200216420FFF79E
:10770000B5FD4FF4FA60FDF758FD4D223621642097
:10771000FFF7ACFD00224C216420FFF7A7FD1522E6
:1077200001216420FFF7A2FD4FF4FA60FDF745FD4B
:1077300000224F216420FFF799FD9D2250216420F3
:10774000FFF794FD092251216420FFF78FFD0222EB
:1077500052216420FFF78AFDFF2253216420FFF7A6
:1077600085FD032254216420FFF780FDFF2255216F
:107770006420FFF77BFD9D2256216420FFF776FDF4
:10778000072257216420FFF771FD0222582164204F
:10779000FFF76CFDFF2259216420FFF767FD0322EC
:1077A0005A216420FFF762FDFF225B216420FFF76E
:1077B0005DFD9D225C216420FFF758FD08225D21BC
:1077C0006420FFF753FD02225E216420FFF74EFD87
:1077D000FF225F216420FFF749FD0322602164201E
:1077E000FFF744FDFF2261216420FFF73FFD9D224A
:1077F00062216420FFF73AFD002263216420FFF735
:1078000035FD022264210846FFF730FDFF22652185
:107810006420FFF72BFD032266216420FFF726FD7D
:10782000FF2267216420FFF721FD9D22682164204B
:10783000FFF71CFD002269216420FFF717FD0222DB
:107840006A216420FFF712FDFF226B216420FFF7FD
:107850000DFD03226C216420FFF708FDFF226D213E
:107860006420FFF703FD002237216420FFF7FEFCB0
:107870006A2200216420FFF7F9FC2A2201216420FA
:10788000FFF7F4FC10BD10B5002211466420FFF78D
:10789000EDFC4FF4FA60FDF790FCFF223D216420DF
:1078A000FFF7E4FC4FF4FA60FDF787FC402200216B
:1078B0006420FFF7DBFC4FF4FA60FDF77EFC4D22FD
:1078C00036216420FFF7D2FC00224C216420FFF710
:1078D000CDFC152201216420FFF7C8FC4FF4FA60AB
:1078E000FDF76BFC00224F216420FFF7BFFC9D22B7
:1078F00050216420FFF7BAFC052251216420FFF7D4
:10790000B5FC022252216420FFF7B0FC0322532170
:107910006420FFF7ABFC9D2254216420FFF7A6FCF6
:10792000012255216420FFF7A1FC02225621642088
:10793000FFF79CFC032257216420FFF797FC9D2250
:1079400058216420FFF792FC032259216420FFF79D
:107950008DFC02225A216420FFF788FC03225B2160
:107960006420FFF783FC9D225C216420FFF77EFCEE
:1079700003225D216420FFF779FC7A225E216420D6
:10798000FFF774FC00225F216420FFF76FFC9D224B
:1079900060216420FFF76AFC032261216420FFF765
:1079A00065FC7A2262216420FFF760FC00226321DB
:1079B0006420FFF75BFCC02264210846FFF756FCF9
:1079C000002265216420FFF751FC0022372164204A
:1079D000FFF74CFC6A2200216420FFF747FC2A22B3
:1079E00001216420FFF742FC10BD10B500221146B2
:1079F0006420FFF73BFC4FF4FA60FDF7DEFBFF224B
:107A00003D216420FFF732FC4FF4FA60FDF7D5FB0F
:107A1000002201216420FFF729FC20220621642096
:107A2000FFF724FC202207216420FFF71FFC2022FF
:107A300008216420FFF71AFC202209216420FFF7A7
:107A400015FC20220A216420FFF710FC20220B21C4
:107A50006420FFF70BFC20220C216420FFF706FCBA
:107A600020220D216420FFF701FC20220E2164203A
:107A7000FFF7FCFB402200216420FFF7F7FB4FF4E7
:107A8000FA60FDF79AFB4D2236216420FFF7EEFBEA
:107A900000224C216420FFF7E9FB20224D216420C5
:107AA000FFF7E4FB40224E216420FFF7DFFB1522A5
:107AB00001216420FFF7DAFB4FF4FA60FDF77DFB4C
:107AC00000224F216420FFF7D1FB9D22502164202A
:107AD000FFF7CCFB052251216420FFF7C7FB4022B2
:107AE00052216420FFF7C2FBFF2253216420FFF7DD
:107AF000BDFB032254216420FFF7B8FB80225521EF
:107B00006420FFF7B3FB032256216420FFF7AEFB8E
:107B1000802257216420FFF7A9FB0322582164200B
:107B2000FFF7A4FB802259216420FFF79FFB02226C
:107B30005A216420FFF79AFB80225B216420FFF723
:107B400095FB02225C216420FFF790FB80225D21DF
:107B50006420FFF78BFB152201216420FFF786FBD1
:107B60004FF4FA60FDF729FB02224F216420FFF752
:107B70007DFB9D2250216420FFF778FB01225121DB
:107B80006420FFF773FB402252216420FFF76EFB55
:107B90007F2253216420FFF769FB022254216420D5
:107BA000FFF764FB802255216420FFF75FFB03226F
:107BB00056216420FFF75AFB802257216420FFF7EB
:107BC00055FB032258216420FFF750FB80225921E6
:107BD0006420FFF74BFB03225A216420FFF746FB8A
:107BE00080225B216420FFF741FB02225C2164209C
:107BF000FFF73CFB80225D216420FFF737FB152255
:107C000001216420FFF732FB4FF4FA60FDF7D5FA4B
:107C100004224F216420FFF729FB9D22502164207C
:107C2000FFF724FB032251216420FFF71FFB4022B2
:107C300052216420FFF71AFB002253216420FFF732
:107C400015FB022254216420FFF710FB80225521EE
:107C50006420FFF70BFB022256216420FFF706FB8E
:107C6000802257216420FFF701FB03225821642062
:107C7000FFF7FCFA802259216420FFF7F7FA03226C
:107C80005A216420FFF7F2FA80225B216420FFF77B
:107C9000EDFA03225C216420FFF7E8FA80225D21DF
:107CA0006420FFF7E3FA002237216420FFF7DEFAB1
:107CB000002238216420FFF7D9FA002239216420FC
:107CC000FFF7D4FA6A2200216420FFF7CFFA2A22B4
:107CD00001216420FFF7CAFA10BD10B50022114639
:107CE0006420FFF7C3FA4FF4FA60FDF766FAFF224B
:107CF0003D216420FFF7BAFA4FF4FA60FDF75DFA10
:107D0000002201216420FFF7B1FA2022062164201D
:107D1000FFF7ACFA202207216420FFF7A7FA202200
:107D200008216420FFF7A2FA202209216420FFF72E
:107D30009DFA20220A216420FFF798FA20220B21C5
:107D40006420FFF793FA20220C216420FFF78EFABB
:107D500020220D216420FFF789FA20220E216420C1
:107D6000FFF784FA402200216420FFF77FFA4FF4E6
:107D7000FA60FDF722FA4D2236216420FFF776FAE9
:107D800000224C216420FFF771FA20224D2164204B
:107D9000FFF76CFA40224E216420FFF767FA1522A4
:107DA00001216420FFF762FA4FF4FA60FDF705FA4B
:107DB00000224F216420FFF759FA9D2250216420B0
:107DC000FFF754FA052251216420FFF74FFA0222EF
:107DD00052216420FFF74AFA4C2253216420FFF716
:107DE00045FA022254216420FFF740FA4C22552123
:107DF0006420FFF73BFA022256216420FFF736FA8F
:107E00004C2257216420FFF731FA40225821642088
:107E1000FFF72CFA002259216420FFF727FA0322EA
:107E20005A216420FFF722FA4C225B216420FFF7DD
:107E30001DFA03225C216420FFF718FA4C225D2111
:107E40006420FFF713FA152201216420FFF70EFAD0
:107E50004FF4FA60FDF7B1F902224F216420FFF7D9
:107E600005FA9D2250216420FFF700FA01225121DA
:107E70006420FFF7FBF9402252216420FFF7F6F956
:107E80004C2253216420FFF7F1F90222542164208F
:107E9000FFF7ECF94C2255216420FFF7E7F90222A5
:107EA00056216420FFF7E2F94C2257216420FFF7A6
:107EB000DDF9402258216420FFF7D8F9002259212A
:107EC0006420FFF7D3F903225A216420FFF7CEF98B
:107ED0004C225B216420FFF7C9F903225C21642056
:107EE000FFF7C4F94C225D216420FFF7BFF902229D
:107EF0005E216420FFF7BAF94C225F216420FFF76E
:107F0000B5F9152201216420FFF7B0F94FF4FA60AA
:107F1000FDF753F904224F216420FFF7A7F99D22B2
:107F200050216420FFF7A2F9032251216420FFF7BA
:107F30009DF9402252216420FFF798F9982253219D
:107F40006420FFF793F9022254216420FFF78EF991
:107F50004C2255216420FFF789F9402256216420E4
:107F6000FFF784F9002257216420FFF77FF90322ED
:107F700058216420FFF77AF94C2259216420FFF739
:107F800075F903225A216420FFF770F94C225B2116
:107F90006420FFF76BF902225C216420FFF766F989
:107FA0004C225D216420FFF761F902225E216420EA
:107FB000FFF75CF94C225F216420FFF757F900229C
:107FC00037216420FFF752F9002238216420FFF79F
:107FD0004DF9002239216420FFF748F96A22002177
:107FE0006420FFF743F92A2201216420FFF73EF9BC
:107FF00010BD10B5002211466420FFF737F94FF489
:10800000FA60FDF7DAF8FF223D216420FFF72EF930
:108010004FF4FA60FDF7D1F8002201216420FFF748
:1080200025F9202206216420FFF720F920220721CC
:108030006420FFF71BF9202208216420FFF716F9BE
:10804000202209216420FFF711F920220A2164204F
:10805000FFF70CF920220B216420FFF707F92022FB
:108060000C216420FFF702F920220D216420FFF784
:10807000FDF820220E216420FFF7F8F840220021AD
:108080006420FFF7F3F84FF4FA60FDF796F84D22FD
:1080900036216420FFF7EAF800224C216420FFF724
:1080A000E5F820224D216420FFF7E0F840224E2120
:1080B0006420FFF7DBF8152201216420FFF7D6F8D2
:1080C0004FF4FA60FDF779F800224F216420FFF7A2
:1080D000CDF89D2250216420FFF7C8F805225121D8
:1080E0006420FFF7C3F8402252216420FFF7BEF856
:1080F0004C2253216420FFF7B9F844225421642014
:10810000FFF7B4F8002255216420FFF7AFF80222F0
:1081100056216420FFF7AAF84C2257216420FFF76C
:10812000A5F8022258216420FFF7A0F84C2259211B
:108130006420FFF79BF803225A216420FFF796F88A
:108140004C225B216420FFF791F803225C2164201C
:10815000FFF78CF84C225D216420FFF787F8152289
:1081600001216420FFF782F84FF4FA60FDF725F84B
:1081700002224F216420FFF779F89D2250216420CC
:10818000FFF774F8012251216420FFF76FF84022B5
:1081900052216420FFF76AF8982253216420FFF7E8
:1081A00065F8032254216420FFF760F84C22552122
:1081B0006420FFF75BF8442256216420FFF756F84D
:1081C000002257216420FFF751F802225821642031
:1081D000FFF74CF84C2259216420FFF747F80222A0
:1081E0005A216420FFF742F84C225B216420FFF7FC
:1081F0003DF803225C216420FFF738F84C225D2112
:108200006420FFF733F8152201216420FFF72EF8D0
:108210004FF4FA60FCF7D1FF04224F216420FFF7EE
:1082200025F89D2250216420FFF720F803225121D8
:108230006420FFF71BF8402252216420FFF716F854
:10824000E42253216420FFF711F803225421642013
:10825000FFF70CF84C2255216420FFF707F80322A2
:1082600056216420FFF702F84C2257216420FEF7C4
:10827000FDFF442258216420FEF7F8FF0022592117
:108280006420FEF7F3FF02225A216420FEF7EEFF7E
:108290004C225B216420FEF7E9FF02225C2164206E
:1082A000FEF7E4FF4C225D216420FEF7DFFF002291
:1082B00037216420FEF7DAFF002238216420FEF720
:1082C000D5FF002239216420FEF7D0FF6A22002169
:1082D0006420FEF7CBFF2A2201216420FEF7C6FFAF
:1082E00010BD000070B504460E462EB14FF480510B
:1082F000FE48FDF7EEF904E04FF48051FB48FDF72E
:10830000EAF90221FA48FDF7E6F900251BE04FF4EF
:108310000041F748FDF7DFF904F0800028B14FF481
:108320000051F348FDF7D5F904E04FF40051F0484F
:10833000FDF7D1F94FF40041ED48FDF7CAF96006A9
:10834000040E681CC5B2082DE1DB0221E848FDF7E8
:10835000C0F94FF48051E548FDF7BBF970BD70B529
:1083600000241CE004F1B001C8B20021FFF7BAFFFD
:1083700000210846FFF7B6FF00211020FFF7B2FFEB
:10838000002508E0DB4901EBC501085D0121FFF78D
:10839000A9FF681CC5B2802DF4DB601CC4B2082C98
:1083A000E0DB70BD10B500218D20FFF79BFF0021A1
:1083B0001420FFF797FF0021AF20FFF793FF10BDB8
:1083C00010B500218D20FFF78DFF00211020FFF751
:1083D00089FF0021AE20FFF785FF10BD70B5002496
:1083E0000CE0002506E00020C24901EBC50108555C
:1083F000681CC5B2802DF6DB601CC4B2082CF0DB13
:10840000FFF7ADFF70BDF0B5144600267F2801DCF4
:108410003F2900DDF0BD0B46CF1701EB5777FF106A
:10842000C7F10707FAB2CF1701EB5777FF10A1EB9F
:10843000C707FDB2C5F107070123BB40DEB24CB14F
:10844000AC4B03EBC0039B5C3343AA4F07EBC00765
:10845000BB5408E0A74B03EBC0039B5CB343A54FA1
:1084600007EBC007BB5400BFD4E72DE9F047064631
:108470000F4690469946DDF820A034460CE03D4674
:1084800006E0524629462046FFF7BDFF681CC5B2EC
:108490004D45F6DD601CC4B24445F0DDFFF75FFFDB
:1084A000BDE8F0872DE9F04F80460C4615461E4684
:1084B000A346A5F12000C5B200273EE00C2E07D14F
:1084C00005EB45008C4901EB800010F8079004E0B3
:1084D0008A4800EB051010F807904FF0000A26E0DC
:1084E00009F0800028B121464046099AFFF78BFF2A
:1084F00009E0099808B9012000E000200246214661
:108500004046FFF780FF4FEA49604FEA1069601C60
:10851000C4B2A4EB0B00B04205D15C4608F10100E7
:1085200000F0FF0806E00AF1010000F0FF0ABAF1CE
:10853000080FD5DB00BF781CC7B2B742BEDBBDE871
:10854000F08F10B50246012000E050430B00A1F16E
:108550000104E1B2F9D110BD2DE9FF4F81B007460A
:1085600091461E460E9D4FF0000A002439E0301B54
:10857000401EC1B20A20FFF7E4FFB9FBF0F00A2168
:10858000B0FBF1F201FB1208BAF1000F16D1701E18
:10859000A04213DDB8F1000F0ED10120AB4605EB70
:1085A000DB71491001FB04710090C8B22B462022F8
:1085B0000299FFF777FF12E04FF0010A0120AB4666
:1085C00005EBDB71491001FB04710090C8B208F1A2
:1085D0003001CAB22B460299FFF764FF00BF601C4E
:1085E000C4B2B442C3DB05B0BDE8F08FF8B50546B0
:1085F0000E4614461F4618E07A2D03DD002506F1CD
:108600001000C6B23A2E04DD002005460646FFF7EC
:10861000E5FE0120009022783B4631462846FFF7D0
:1086200041FF05F10800C5B2641C20780028E3D1A1
:10863000F8BD70B504460D4605F1B001C8B2002181
:10864000FFF750FE102141EA14100021FFF74AFE07
:1086500004F00F0141F001000021FFF743FE70BD5F
:108660002DE9F04180460E4615460027314640462A
:10867000FFF7DFFF00240AE0214A02EB8511085DC5
:108680000121FFF72FFE781CC7B2601CC4B2102C6A
:10869000F2DB701CC1B24046FFF7CBFF00240CE0B8
:1086A0006900491C164A02EB4111085D0121FFF7E0
:1086B00019FE781CC7B2601CC4B2102CF0DBBDE8F8
:1086C000F0812DE9F05F06460F4690461C46DDF826
:1086D00028A04FF0000BE11704EB5171C910A4EB77
:1086E000C101A1B92046E1170CE0000000080140DB
:1086F000000C01400802002004940008789800084B
:108700003D00002004EB5171C1F3C70506E020468F
:10871000E11704EB5171C910491CCDB23D4615E07B
:1087200029463046FFF785FFB1460BE059460BF16D
:10873000010B1AF801000121FFF7D4FD09F1010036
:1087400000F0FF09C145F1DB681CC5B2A542E7DBBB
:10875000BDE8F09F08B501210C20FDF7C9F94FF4E1
:108760008050ADF8000010208DF8030003208DF834
:10877000020069464748FCF7FFFE4FF48051454828
:10878000FCF7A7FF4BF20200ADF8000010208DF8B7
:10879000030003208DF8020069463F48FCF7ECFE19
:1087A0004BF202013C48FCF794FF4FF480513A48E9
:1087B000FCF791FF6420FCF724FD4FF4805136480C
:1087C000FCF787FF0021AE20FFF78CFD0021D520AC
:1087D000FFF788FD00215020FFF784FD0021A8202D
:1087E000FFF780FD00213F20FFF77CFD0021D32013
:1087F000FFF778FD00210846FFF774FD00214020B7
:10880000FFF770FD00218D20FFF76CFD0021142083
:10881000FFF768FD00212020FFF764FD0021022002
:10882000FFF760FD0021A120FFF75CFD0021C020C3
:10883000FFF758FD0021DA20FFF754FD0021122038
:10884000FFF750FD00218120FFF74CFD0021EF20B4
:10885000FFF748FD0021D920FFF744FD0021F1205A
:10886000FFF740FD0021DB20FFF73CFD0021302019
:10887000FFF738FD0021A420FFF734FD0021A620DA
:10888000FFF730FD0021AF20FFF72CFDFFF7A6FD1D
:1088900008BD000000080140000C014008B503209D
:1088A0008DF8000000208DF801008DF802000120F5
:1088B0008DF803006846FCF796FD08BDF0B5034649
:1088C0000C461546642093FBF0F0C6B2642093FB7F
:1088D000F0F700FB1730C1B2132E02DD01F1640086
:1088E000C1B20846CF1701EB977701EBA707BAB2E1
:1088F000072092FBF0F700FB172082B25719601E89
:10890000DFF8E8C31CF80000384482B2CF1701EB4F
:108910009777BF10A1EB87071FB9032C01DA501E10
:1089200082B2072092FBF0F700FB1720C0B2F0BD27
:108930000146CA1701EB92729210A1EB820292B922
:10894000642091FBF0F200FB121050B94FF4C87094
:1089500091FBF0F200FB121008B9012070470020D3
:10896000FCE70120FAE70020F8E770B500260024B4
:108970000025DF4806883604001D00880644DD48CF
:10898000B6FBF0F4DC480088A0423CD0DA490C8009
:1089900040F2B27510E02846FFF7CAFF40B1B4F5C7
:1089A000B77F02D3A4F5B77404E0681C85B206E073
:1089B000A4F26D14681C85B2B4F5B67FEBD800BF85
:1089C000CE488580002516E0CC498888FFF7B0FFA7
:1089D00030B1012D04D11D2C01D31D3C09E00CE068
:1089E000C748405DA04203D8C548405D241A00E056
:1089F00003E0681C85B21C2CE6D200BF681CBF498E
:108A00008871601CC871BB48B6FBF0F100FB1164B3
:108A10004FF46160B4FBF0F0B84908704FF4616046
:108A2000B4FBF0F100FB11403C21B0FBF1F0B34985
:108A300048704FF46160B4FBF0F100FB11403C2141
:108A4000B0FBF1F201FB1200AC4988700B46DA79F9
:108A500099799888FFF732FFA8490872002070BD05
:108A60002DE9F05F06460F4690469946DDE90AABD0
:108A7000002440F2B270864203DB40F633008642A7
:108A800002DD0120BDE8F09F40F2B2750AE0284601
:108A9000FFF74EFF10B19B48044401E09A4804449C
:108AA000681C85B2B542F2DB781EC7B2002510E023
:108AB0009348405D40F2A321484304EBC014304684
:108AC000FFF736FF18B1012D01D18A480444681C14
:108AD00085B2BD42ECDBA8F1010040F2A32148437E
:108AE00004EBC014C9EB4910C0EB092004EB0014DF
:108AF000CAEB0A1004EB80045C4401214FF0C05023
:108B0000FDF703F80120FDF76CFB2046FDF7E3FAC3
:108B1000FDF714FB0020B5E71CB5002401214FF040
:108B2000C050FCF7F2FF0120FDF75BFB0420FDF7CE
:108B30007CFA45F2510188423FD0FDF741FA01200D
:108B4000FCF743FF04E0601CC4B20A20FCF759FBA9
:108B50004120FCF7A2FE0028F5D0FA2C01DB012011
:108B60001CBD4FF48070FCF74CFF0120FCF74FFF59
:108B7000FDF7E4FAFDF7EBFA01210320FDF782FA95
:108B8000FDF7DCFAFDF78BFA47F6FF70FDF7B0FA58
:108B9000FDF7D4FA002002210E231122CDE90010A6
:108BA000052140F2E170FFF75BFFFDF781FA45F226
:108BB00051010420FDF72DFA07E0FDF7C8FA012165
:108BC0000320FDF75FFAFDF7B9FAFFF767FEFFF73D
:108BD000CCFE0020C4E708B50120FDF7DDFA08B19E
:108BE000FFF7C3FE0220FDF7D7FAE0B10220FDF740
:108BF000E3FA46480078401C44490870FFF7EEFB52
:108C0000102343A218210020FFF7F0FCFFF7ADFE70
:108C10000C20009039484278022324210020FFF7DD
:108C20009BFCFFF79CFB0520FDF7C6FAFDF786FAD3
:108C300008BD2DE9F05F06460F4690469946DDE9EE
:108C40000AAB002440F2B270864203DB40F63300E8
:108C5000864202DD0120BDE8F09F40F2B2750AE0D5
:108C60002846FFF765FE10B12648044401E0264877
:108C70000444681C85B2B542F2DB781EC7B20025F9
:108C800010E01F48405D40F2A321484304EBC014AC
:108C90003046FFF74DFE18B1012D01D115480444AF
:108CA000681C85B2BD42ECDBA8F1010040F2A321B3
:108CB000484304EBC014C9EB4910C0EB092004EB96
:108CC0000014CAEB0A1004EB80045C4401214FF04D
:108CD000C050FCF71AFF0120FDF783FA2046FDF78C
:108CE00015FAFDF72BFA0020B5E70000689E000892
:108CF00018280040805101001201002008060020C1
:108D0000749E00080085E2018033E101100100201B
:108D10004E414F5A484F4E470000000008B5012110
:108D20000820FCF7E5FE0120ADF8000010208DF8CA
:108D3000030003208DF8020069460448FCF71CFC80
:108D400001210248FCF7C7FC08BD0000000C0140EF
:108D500008B501210820FCF7CBFE4FF48840ADF8A0
:108D6000000010208DF8030003208DF802006946F2
:108D7000EC48FCF701FC0120EB490860EB49C1F825
:108D8000B80108BD10B5E748001D006820F070600C
:108D9000E449091D08600846006840F0407008601A
:108DA0000120E14910310860E049C1F8A801042020
:108DB000FCF703FA0020DC49103108600420FCF7BE
:108DC000FCF90020D949C1F8A80110BD10B5D5485B
:108DD000001D006820F07060D249091D0860084637
:108DE000006840F0407008600020CF490860CF491B
:108DF000C1F8B8010420FCF7E0F90120CA49086075
:108E0000CA49C1F8B8010420FCF7D7F910BD10B564
:108E10000024C448001D006820F07060C149091D8D
:108E200008600846006840F0006008600120BE4904
:108E300010310860FCF7C1F90120BC49C1F8A80154
:108E4000FCF7BBF907E0601CC4B2FA2C03DDFFF7A6
:108E5000BDFF012010BDB448703800680028F2D171
:108E6000B149086000BFF5E710B50020AE490860C1
:108E7000AC48001D006820F07060AA49091D086018
:108E80000846006840F0407008600020A749C1F81B
:108E9000B8010220FCF791F90120A34908600220E3
:108EA000FCF78BF90020A149C1F8A80110BD10B54D
:108EB00000209D4908609B48001D006820F07060FC
:108EC0009849091D08600846006840F04070086035
:108ED00001209649C1F8B8010220FCF76EF9012083
:108EE000914908600220FCF768F900208F49C1F819
:108EF000A80110BD70B504468A48001D006820F026
:108F000070608849091D08600846006840F040709C
:108F10000860002084490860002517E0E0098249C4
:108F2000103108606006040E0220FCF746F90120AB
:108F30007E49C1F8A8010220FCF73FF900207A49D8
:108F400008600220FCF739F9681CC5B2082DE5DB82
:108F500070BD70B5054600247248001D006820F001
:108F600070607049091D08600846006840F00060A4
:108F70000860002616E000206B4908600220FCF71C
:108F80001CF901206949C1F8A8016006040E664871
:108F90007038006808B1601CC4B20120FCF70DF9FC
:108FA000701CC6B2082EE6DB15B9FFF780FF01E0A2
:108FB000FFF75AFF204670BD70B504460026FFF744
:108FC000E1FEA020FFF796FFFFF721FF2012FFF739
:108FD00091FFFFF71CFF2546E11704EB1161091211
:108FE000A4EB0121C8B2FFF785FFFFF710FFFFF7E1
:108FF000C9FEA120FFF77EFFFFF709FF0020FFF762
:10900000A8FF0646FFF7E2FE304670BD70B5044685
:109010000E46FFF7B7FEA020FFF76CFFFFF7F7FE45
:109020002012FFF767FFFFF7F2FE2546E11704EB7A
:1090300011610912A4EB0121C8B2FFF75BFFFFF732
:10904000E6FE3046FFF756FFFFF7E1FEFFF7BEFEF4
:109050000A20FCF7D6F870BD2DE9F04105460E4612
:109060001746002409E0E20026FA02F2D1B22A19DA
:1090700090B2FFF7CBFF601CC4B2BC42F3DBBDE88B
:10908000F0812DE9F04107460C460026002509E055
:1090900036023919491B491E88B2FFF78DFF064475
:1090A000681CC5B2A542F3DB3046BDE8F08110B5BF
:1090B000FF20FFF781FF0446552C01D1002010BD91
:1090C0005521FF20FFF7A2FFFF20FFF775FF0446A1
:1090D000552C01D10020F2E70120F0E770B50646DB
:1090E0000C46154608E03046721C96B2FFF764FF46
:1090F00004F8010B681E85B2002DF4D170BD70B567
:1091000005460C46164606E021782846FFF77EFF06
:10911000681C85B2641C3000A6F101018EB2F3D147
:1091200070BD0000000C0140A88121420080214256
:1091300010B56548006820F00F00634908600846D4
:10914000006840F0030008600020604908601420B7
:10915000FCF757F801205E49C1F8A0011E20FCF77A
:109160002CF810BD10B500245748006820F00F00FF
:10917000554908600846006840F00800086004E0AF
:10918000601CC4B20120FCF718F850488038006811
:1091900008B1642CF4DB642C01DB012010BD002439
:1091A00004E0601CC4B20120FCF707F8474880388F
:1091B000006808B9642CF4DB642C01DB0120EDE7C6
:1091C0000020EBE710B5002404E0601CC4B20120CD
:1091D000FBF7F3FF3D488038006808B1642CF4DBEE
:1091E000002404E0601CC4B20120FBF7E6FF37480E
:1091F0008038006808B9642CF4DB2820FBF7DDFF19
:1092000032488038006808B1012010BD0020FCE71A
:1092100070B50024002506E06006040EFFF7D2FFBB
:109220000443681CC5B2082DF6DB204670BD7CB532
:1092300005460E46FFF77CFFFFF794FF00BB0024B6
:1092400005E0FFF7E5FF0DF80400601CC4B2052C33
:10925000F7DB9DF800009DF8011008449DF802100E
:1092600008449DF803100844C0B29DF804108842D9
:1092700008D19DF8000030709DF80200287001E0D0
:1092800001207CBD0020FCE708B501210420FCF78B
:109290002FFC4FF48070ADF8000010208DF8030013
:1092A00003208DF8020069460748001FFCF764F9A7
:1092B0004FF480710448001FFCF70BFAFFF738FFEA
:1092C000FFF750FF08BD000004080140A001214243
:1092D0000000214208B501210820FCF709FC4FF4E9
:1092E0004870ADF8000048208DF803006946294811
:1092F000FCF742F908BD10B5044614B10120264917
:1093000008702548007868B34FF400712148FCF7D5
:10931000C6F950B14FF480711E48FCF7C0F920B176
:1093200020211C48FCF7BBF9E0B90A20FBF769FFD4
:109330000020194908704FF400711648FCF7AFF986
:1093400008B9012010BD4FF480711248FCF7A7F94D
:1093500008B90220F6E720210E48FCF7A0F9B0B9C1
:109360000320EFE74FF400710A48FCF798F9012851
:109370000DD101020748FCF792F9012807D12021FD
:109380000448FCF78CF9012801D10349087000203A
:10939000D8E70000000C014014010020704770471E
:1093A000704770477047754600F028F8AE460500D4
:1093B0006946534620F00700854618B020B5FBF7F4
:1093C000FBFFBDE820404FF000064FF000074FF0D4
:1093D00000084FF0000B21F00701AC46ACE8C009D3
:1093E000ACE8C009ACE8C009ACE8C0098D467047DC
:1093F0000446AFF300802046FBF7BFFE00487047ED
:109400001406002000000000000000000000000022
:10941000000000003F40000000000000000030009D
:10942000400030004000000009000BC03D000BC0B0
:109430003D00090018C024407FE022403180000038
:10944000180024C01B000D803240018003801C40A6
:1094500027401C8007400040100060000000000012
:10946000000000000000000000001F80204040209D
:109470000000402020401F8000000000090006007E
:109480001F80060009000000040004003F80040063
:109490000400000000100060000000000000000058
:1094A0000400040004000400040000000000004068
:1094B0000000000000000000002001C0060038008D
:1094C000400000001F802040204020401F800000FE
:1094D000000010403FC000400000000018C02140C4
:1094E00022402440184000001080204024402440A6
:1094F0001B80000002000D0011003FC00140000071
:109500003C80244024402440238000001F802440CD
:1095100024403440038000003000200027C0380081
:10952000200000001B802440244024401B800000B9
:109530001C0022C0224022401F80000000000000CA
:10954000084000000000000000000000046000006F
:1095500000000000000004000A00110020804040CC
:10956000090009000900090009000000000040404E
:10957000208011000A00040018002000234024006D
:10958000180000001F802040274029401F40000095
:10959000004007C039000F0001C0004020403FC01C
:1095A000244024401B8000001F8020402040204099
:1095B0003080000020403FC0204020401F8000003D
:1095C00020403FC024402E4030C0000020403FC01B
:1095D00024402E00300000000F0010802040224068
:1095E0003380020020403FC0040004003FC0204000
:1095F000204020403FC0204020400000006020204C
:1096000020203FC02000200020403FC024400B000D
:1096100030C0204020403FC020400040004000C0FB
:109620003FC03C0003C03C003FC0000020403FC0A2
:109630000C4023003FC020001F80204020402040DD
:109640001F80000020403FC024402400180000007C
:109650001F802140214020E01FA0000020403FC08B
:109660002440260019C0004018C024402440224055
:1096700031800000300020403FC02040300000001A
:1096800020003F80004000403F80200020003E003E
:1096900001C0070038002000380007C03C0007C0A8
:1096A00038000000204039C0060039C020400000CA
:1096B0002000384007C0384020000000304021C062
:1096C0002640384020C00000000000007FE040201D
:1096D00040200000000070000C00038000400000EB
:1096E0000000402040207FE000000000000020003B
:1096F00040002000000000000010001000100010CA
:1097000000100010000000004000000000000000F9
:10971000000002800540054003C0004020003FC01B
:109720000440044003800000000003800440044023
:109730000640000000000380044024403FC0004079
:109740000000038005400540034000000000044085
:109750001FC0244024402000000002E005500550B6
:109760000650042020403FC00440040003C00040D5
:109770000000044027C0004000000000001000105E
:10978000041027E00000000020403FC00140070017
:1097900004C00440204020403FC000400040000082
:1097A00007C0040007C0040003C00000044007C055
:1097B0000440040003C00040000003800440044053
:1097C00003800000041007F00450044003800000F0
:1097D000000003800440045007F00010044007C05C
:1097E000024004000400000000000640054005405F
:1097F00004C00000000004001F800440004000007E
:10980000040007800040044007C000400400070037
:1098100004C0018006000400060001C0070001C06A
:1098200006000000044006C0010006C0044000001D
:109830000410071004E0018006000400000004404A
:1098400005C00640044000000000000004007BE06A
:1098500040200000000000000000FFF000000000B9
:10986000000040207BE00400000000004000800079
:109870004000200020004000000000000000000028
:1098800000000000000000000000000000001FCCED
:10989000000C000000000000000008003000600024
:1098A0000800300060000000022003FC1E2002209F
:1098B00003FC1E200220000000000E1811043FFFD0
:1098C00010840C78000000000F0010840F3800C0D6
:1098D000077818840078000000780F8410C41124E1
:1098E0000E9800E400840008080068007000000082
:1098F000000000000000000000000000000007E081
:10990000181820044002000000004002200418182B
:1099100007E00000000000000240024001800FF05C
:1099200001800240024000000080008000800FF8AB
:1099300000800080008000000001000D000E00008B
:109940000000000000000000000000800080008097
:1099500000800080008000800000000C000C0000EF
:109960000000000000000000000000060018006079
:109970000180060018002000000007F0080810040D
:109980001004080807F000000000080408041FFC89
:10999000000400040000000000000E0C101410244D
:1099A000104411840E0C000000000C181004110467
:1099B000110412880C700000000000E00320042451
:1099C00008241FFC0024000000001F9810841104CC
:1099D0001104108810700000000007F008881104BE
:1099E000110418880070000000001C00100010FC1A
:1099F00013001C001000000000000E3811441084F9
:109A0000108411440E38000000000700088C104438
:109A10001044088807F00000000000000000030C5C
:109A2000030C00000000000000000000000101061F
:109A30000000000000000000000000800140022043
:109A40000410080810040000022002200220022056
:109A50000220022002200000000010040808041068
:109A6000022001400080000000000E001200100CD7
:109A7000106C10800F00000003E00C1813E4142495
:109A800017C4082807D000000004003C03C41C4091
:109A9000074000E4001C000410041FFC1104110422
:109AA00011040E880070000003E00C18100410046C
:109AB000100410081C10000010041FFC10041004F7
:109AC0001004080807F0000010041FFC1104110422
:109AD00017C410040818000010041FFC1104110022
:109AE00017C010000800000003E00C181004100458
:109AF00010441C780040000010041FFC10840080FB
:109B0000008010841FFC10040000100410041FFCCF
:109B100010041004000000000003000110011001F7
:109B20001FFE10001000000010041FFC1104038031
:109B30001464181C1004000010041FFC100400041E
:109B400000040004000C000010041FFC1F0000FCB7
:109B50001F001FFC1004000010041FFC0C04030075
:109B600000E010181FFC100007F008081004100493
:109B70001004080807F0000010041FFC1084108077
:109B8000108010800F00000007F008181024102427
:109B9000101C080A07F2000010041FFC1104110039
:109BA00011C011300E0C000400000E1C11041084B2
:109BB000108410441C3800001800100010041FFC12
:109BC000100410001800000010001FF8100400041A
:109BD000000410041FF8100010001E0011E0001C0B
:109BE000007013801C0010001FC0103C00E01F001C
:109BF00000E0103C1FC000001004180C163401C017
:109C000001C01634180C100410001C00130400FCD2
:109C100013041C00100000000804101C10641084C1
:109C200013041C04101800000000000000007FFE58
:109C30004002400240020000000030000C0003809F
:109C40000060001C000300000000400240024002CF
:109C50007FFE000000000000000000002000400027
:109C60004000400020000000000100010001000150
:109C70000001000100010001000040004000200040
:109C800000000000000000000000009801240144D2
:109C90000144014400FC000410001FFC0088010482
:109CA00001040088007000000000007000880104BA
:109CB0000104010400880000000000700088010415
:109CC000010411081FFC0004000000F801440144D5
:109CD0000144014400C800000000010401040FFC1D
:109CE0001104110411001800000000D601290129F7
:109CF000012901C90106000010041FFC00840100B5
:109D00000100010400FC000400000104190419FC16
:109D10000004000400000000000000030001010135
:109D2000190119FE0000000010041FFC002400406F
:109D300001B4010C010400000000100410041FFC19
:109D40000004000400000000010401FC0104010003
:109D500001FC0104010000FC010401FC008401007D
:109D60000100010400FC0004000000F801040104EB
:109D70000104010400F80000010101FF0085010455
:109D800001040088007000000000007000880104D9
:109D90000104010501FF00010104010401FC00842C
:109DA0000104010001800000000000CC0124012416
:109DB000012401240198000000000100010007F8BF
:109DC0000104010400000000010001F80004000487
:109DD0000004010801FC0004010001800170000C76
:109DE000001001600180010001F0010C003001C091
:109DF0000030010C01F0010000000104018C00742E
:109E00000170018C01040000010101810171000E4B
:109E1000001801600180010000000184010C013480
:109E200001440184010C000000000000000000005B
:109E300001003EFC40024002000000000000000063
:109E4000FFFF0000000000000000400240023EFC56
:109E500001000000000000000000600080008000A1
:109E60004000400020002000000303060104060219
:109E7000050003051F1C1F1E1F1E1F1F1E1F1E1F68
:109E8000A09E0008000000201801000028510008D2
:109E9000B89F000818010020600B00004451000822
:109EA00000000000000000000000000000000102AF
:109EB000030401020304060708090204060800005F
:109EC00000A24A0400000000000000000102030498
:109ED000060708090000000000000000000000FC68
:109EE0004454545455FE545454F444440000000067
:109EF0000000000000000000000000000040300FE3
:109F000000FD45454547454545FD00000000000072
:109F10000000000000000000000000000000000041
:109F2000FE2222222222222222FE00000000000025
:109F30000000000000000000000000000080403031
:109F40000F02020202020242827F000000000000B3
:109F50000000000000000000000000000000FE0201
:109F600082BAAAAAAAAAAABA8202FE000000000027
:109F70000000000000000000000000000000FF40A2
:109F80004F605048464850604F40FF0000000000BE
:109F900000000000000000000000000000000000C1
:109FA00000000000000000000000000000000000B1
:089FB0000000000001000000A8
:04000005080050EDB2
:00000001FF
